{
  "_format": "hh-sol-artifact-1",
  "contractName": "Voting",
  "sourceName": "contracts/Voting.sol",
  "abi": [
    {
      "inputs": [],
      "stateMutability": "nonpayable",
      "type": "constructor"
    },
    {
      "anonymous": false,
      "inputs": [
        {
          "indexed": true,
          "internalType": "uint256",
          "name": "electionId",
          "type": "uint256"
        },
        {
          "indexed": false,
          "internalType": "string",
          "name": "message",
          "type": "string"
        }
      ],
      "name": "activeElectionEvent",
      "type": "event"
    },
    {
      "anonymous": false,
      "inputs": [
        {
          "indexed": true,
          "internalType": "uint256",
          "name": "electionId",
          "type": "uint256"
        },
        {
          "indexed": false,
          "internalType": "string",
          "name": "message",
          "type": "string"
        }
      ],
      "name": "activeRegistrationEvent",
      "type": "event"
    },
    {
      "anonymous": false,
      "inputs": [
        {
          "indexed": true,
          "internalType": "uint256",
          "name": "electionId",
          "type": "uint256"
        },
        {
          "indexed": false,
          "internalType": "string",
          "name": "message",
          "type": "string"
        }
      ],
      "name": "activeVotingEvent",
      "type": "event"
    },
    {
      "anonymous": false,
      "inputs": [
        {
          "indexed": false,
          "internalType": "uint256",
          "name": "candidateId",
          "type": "uint256"
        },
        {
          "indexed": false,
          "internalType": "string",
          "name": "message",
          "type": "string"
        }
      ],
      "name": "addCandidateEvent",
      "type": "event"
    },
    {
      "anonymous": false,
      "inputs": [
        {
          "indexed": false,
          "internalType": "uint256",
          "name": "voterId",
          "type": "uint256"
        },
        {
          "indexed": false,
          "internalType": "string",
          "name": "message",
          "type": "string"
        }
      ],
      "name": "castVoteEvent",
      "type": "event"
    },
    {
      "anonymous": false,
      "inputs": [
        {
          "indexed": true,
          "internalType": "uint256",
          "name": "electionId",
          "type": "uint256"
        },
        {
          "indexed": false,
          "internalType": "string",
          "name": "message",
          "type": "string"
        }
      ],
      "name": "completeElectionEvent",
      "type": "event"
    },
    {
      "anonymous": false,
      "inputs": [
        {
          "indexed": true,
          "internalType": "uint256",
          "name": "electionId",
          "type": "uint256"
        },
        {
          "indexed": false,
          "internalType": "string",
          "name": "message",
          "type": "string"
        }
      ],
      "name": "deactiveElectionEvent",
      "type": "event"
    },
    {
      "anonymous": false,
      "inputs": [
        {
          "indexed": true,
          "internalType": "uint256",
          "name": "electionId",
          "type": "uint256"
        },
        {
          "indexed": false,
          "internalType": "string",
          "name": "message",
          "type": "string"
        }
      ],
      "name": "deactiveRegistrationEvent",
      "type": "event"
    },
    {
      "anonymous": false,
      "inputs": [
        {
          "indexed": true,
          "internalType": "uint256",
          "name": "electionId",
          "type": "uint256"
        },
        {
          "indexed": false,
          "internalType": "string",
          "name": "message",
          "type": "string"
        }
      ],
      "name": "deactiveVotingEvent",
      "type": "event"
    },
    {
      "anonymous": false,
      "inputs": [
        {
          "indexed": true,
          "internalType": "uint256",
          "name": "electionId",
          "type": "uint256"
        },
        {
          "indexed": false,
          "internalType": "string",
          "name": "electionName",
          "type": "string"
        },
        {
          "indexed": false,
          "internalType": "uint256",
          "name": "startTime",
          "type": "uint256"
        },
        {
          "indexed": false,
          "internalType": "uint256",
          "name": "endTime",
          "type": "uint256"
        }
      ],
      "name": "electionCreated",
      "type": "event"
    },
    {
      "anonymous": false,
      "inputs": [
        {
          "indexed": true,
          "internalType": "uint256",
          "name": "electionId",
          "type": "uint256"
        },
        {
          "indexed": false,
          "internalType": "string",
          "name": "message",
          "type": "string"
        },
        {
          "indexed": false,
          "internalType": "uint256",
          "name": "winnerId",
          "type": "uint256"
        }
      ],
      "name": "getWinnerEvent",
      "type": "event"
    },
    {
      "anonymous": false,
      "inputs": [
        {
          "indexed": false,
          "internalType": "uint256",
          "name": "voterId",
          "type": "uint256"
        },
        {
          "indexed": false,
          "internalType": "string",
          "name": "message",
          "type": "string"
        }
      ],
      "name": "regVoterEvent",
      "type": "event"
    },
    {
      "inputs": [
        {
          "internalType": "uint256",
          "name": "_electionId",
          "type": "uint256"
        }
      ],
      "name": "activeElection",
      "outputs": [],
      "stateMutability": "nonpayable",
      "type": "function"
    },
    {
      "inputs": [
        {
          "internalType": "uint256",
          "name": "_electionId",
          "type": "uint256"
        }
      ],
      "name": "activeRegistration",
      "outputs": [],
      "stateMutability": "nonpayable",
      "type": "function"
    },
    {
      "inputs": [
        {
          "internalType": "uint256",
          "name": "_electionId",
          "type": "uint256"
        }
      ],
      "name": "activeVoting",
      "outputs": [],
      "stateMutability": "nonpayable",
      "type": "function"
    },
    {
      "inputs": [
        {
          "internalType": "uint256",
          "name": "_electionId",
          "type": "uint256"
        },
        {
          "internalType": "string",
          "name": "_candidateName",
          "type": "string"
        },
        {
          "internalType": "address",
          "name": "_candidateAddress",
          "type": "address"
        }
      ],
      "name": "addCandidate",
      "outputs": [],
      "stateMutability": "nonpayable",
      "type": "function"
    },
    {
      "inputs": [
        {
          "internalType": "uint256",
          "name": "",
          "type": "uint256"
        },
        {
          "internalType": "uint256",
          "name": "",
          "type": "uint256"
        }
      ],
      "name": "candidates",
      "outputs": [
        {
          "internalType": "uint256",
          "name": "candidateId",
          "type": "uint256"
        },
        {
          "internalType": "address",
          "name": "candidateAddress",
          "type": "address"
        },
        {
          "internalType": "string",
          "name": "candidateName",
          "type": "string"
        },
        {
          "internalType": "uint256",
          "name": "electionId",
          "type": "uint256"
        },
        {
          "internalType": "uint256",
          "name": "voteCount",
          "type": "uint256"
        }
      ],
      "stateMutability": "view",
      "type": "function"
    },
    {
      "inputs": [
        {
          "internalType": "uint256",
          "name": "_electionId",
          "type": "uint256"
        },
        {
          "internalType": "uint256",
          "name": "_candidateId",
          "type": "uint256"
        }
      ],
      "name": "castVote",
      "outputs": [],
      "stateMutability": "nonpayable",
      "type": "function"
    },
    {
      "inputs": [
        {
          "internalType": "uint256",
          "name": "_electionId",
          "type": "uint256"
        }
      ],
      "name": "completeElection",
      "outputs": [],
      "stateMutability": "nonpayable",
      "type": "function"
    },
    {
      "inputs": [
        {
          "internalType": "string",
          "name": "_electionName",
          "type": "string"
        },
        {
          "internalType": "uint256",
          "name": "_startTime",
          "type": "uint256"
        },
        {
          "internalType": "uint256",
          "name": "_endTime",
          "type": "uint256"
        }
      ],
      "name": "createElection",
      "outputs": [],
      "stateMutability": "nonpayable",
      "type": "function"
    },
    {
      "inputs": [
        {
          "internalType": "uint256",
          "name": "_electionId",
          "type": "uint256"
        }
      ],
      "name": "deactiveElection",
      "outputs": [],
      "stateMutability": "nonpayable",
      "type": "function"
    },
    {
      "inputs": [
        {
          "internalType": "uint256",
          "name": "_electionId",
          "type": "uint256"
        }
      ],
      "name": "deactiveRegistration",
      "outputs": [],
      "stateMutability": "nonpayable",
      "type": "function"
    },
    {
      "inputs": [
        {
          "internalType": "uint256",
          "name": "_electionId",
          "type": "uint256"
        }
      ],
      "name": "deactiveVoting",
      "outputs": [],
      "stateMutability": "nonpayable",
      "type": "function"
    },
    {
      "inputs": [
        {
          "internalType": "uint256",
          "name": "",
          "type": "uint256"
        }
      ],
      "name": "elections",
      "outputs": [
        {
          "internalType": "uint256",
          "name": "electionId",
          "type": "uint256"
        },
        {
          "internalType": "string",
          "name": "electionName",
          "type": "string"
        },
        {
          "internalType": "bool",
          "name": "isActive",
          "type": "bool"
        },
        {
          "internalType": "uint256",
          "name": "startTime",
          "type": "uint256"
        },
        {
          "internalType": "uint256",
          "name": "endTime",
          "type": "uint256"
        },
        {
          "internalType": "uint256",
          "name": "totalCandidates",
          "type": "uint256"
        },
        {
          "internalType": "uint256",
          "name": "totalVoters",
          "type": "uint256"
        },
        {
          "internalType": "uint256",
          "name": "totalVotes",
          "type": "uint256"
        },
        {
          "internalType": "uint256",
          "name": "winnerId",
          "type": "uint256"
        },
        {
          "internalType": "bool",
          "name": "registrationPhase",
          "type": "bool"
        },
        {
          "internalType": "bool",
          "name": "votingPhase",
          "type": "bool"
        },
        {
          "internalType": "bool",
          "name": "isCompleted",
          "type": "bool"
        }
      ],
      "stateMutability": "view",
      "type": "function"
    },
    {
      "inputs": [
        {
          "internalType": "uint256",
          "name": "_electionId",
          "type": "uint256"
        }
      ],
      "name": "getAllCandidates",
      "outputs": [
        {
          "components": [
            {
              "internalType": "uint256",
              "name": "candidateId",
              "type": "uint256"
            },
            {
              "internalType": "address",
              "name": "candidateAddress",
              "type": "address"
            },
            {
              "internalType": "string",
              "name": "candidateName",
              "type": "string"
            },
            {
              "internalType": "uint256",
              "name": "electionId",
              "type": "uint256"
            },
            {
              "internalType": "uint256",
              "name": "voteCount",
              "type": "uint256"
            }
          ],
          "internalType": "struct Voting.Candidate[]",
          "name": "",
          "type": "tuple[]"
        }
      ],
      "stateMutability": "view",
      "type": "function"
    },
    {
      "inputs": [],
      "name": "getAllElections",
      "outputs": [
        {
          "components": [
            {
              "internalType": "uint256",
              "name": "electionId",
              "type": "uint256"
            },
            {
              "internalType": "string",
              "name": "electionName",
              "type": "string"
            },
            {
              "internalType": "bool",
              "name": "isActive",
              "type": "bool"
            },
            {
              "internalType": "uint256",
              "name": "startTime",
              "type": "uint256"
            },
            {
              "internalType": "uint256",
              "name": "endTime",
              "type": "uint256"
            },
            {
              "internalType": "uint256",
              "name": "totalCandidates",
              "type": "uint256"
            },
            {
              "internalType": "uint256",
              "name": "totalVoters",
              "type": "uint256"
            },
            {
              "internalType": "uint256",
              "name": "totalVotes",
              "type": "uint256"
            },
            {
              "internalType": "uint256",
              "name": "winnerId",
              "type": "uint256"
            },
            {
              "internalType": "bool",
              "name": "registrationPhase",
              "type": "bool"
            },
            {
              "internalType": "bool",
              "name": "votingPhase",
              "type": "bool"
            },
            {
              "internalType": "bool",
              "name": "isCompleted",
              "type": "bool"
            }
          ],
          "internalType": "struct Voting.Election[]",
          "name": "",
          "type": "tuple[]"
        }
      ],
      "stateMutability": "view",
      "type": "function"
    },
    {
      "inputs": [],
      "name": "getBlockTimestamp",
      "outputs": [
        {
          "internalType": "uint256",
          "name": "",
          "type": "uint256"
        }
      ],
      "stateMutability": "view",
      "type": "function"
    },
    {
      "inputs": [
        {
          "internalType": "uint256",
          "name": "_electionId",
          "type": "uint256"
        },
        {
          "internalType": "uint256",
          "name": "_candidateId",
          "type": "uint256"
        }
      ],
      "name": "getCandidate",
      "outputs": [
        {
          "internalType": "uint256",
          "name": "candidateId",
          "type": "uint256"
        },
        {
          "internalType": "address",
          "name": "candidateAddress",
          "type": "address"
        },
        {
          "internalType": "string",
          "name": "candidateName",
          "type": "string"
        },
        {
          "internalType": "uint256",
          "name": "electionId",
          "type": "uint256"
        },
        {
          "internalType": "uint256",
          "name": "voteCount",
          "type": "uint256"
        }
      ],
      "stateMutability": "view",
      "type": "function"
    },
    {
      "inputs": [
        {
          "internalType": "uint256",
          "name": "_electionId",
          "type": "uint256"
        }
      ],
      "name": "getElection",
      "outputs": [
        {
          "internalType": "uint256",
          "name": "electionId",
          "type": "uint256"
        },
        {
          "internalType": "string",
          "name": "electionName",
          "type": "string"
        },
        {
          "internalType": "bool",
          "name": "isActive",
          "type": "bool"
        },
        {
          "internalType": "uint256",
          "name": "startTime",
          "type": "uint256"
        },
        {
          "internalType": "uint256",
          "name": "endTime",
          "type": "uint256"
        },
        {
          "internalType": "uint256",
          "name": "totalCandidates",
          "type": "uint256"
        },
        {
          "internalType": "uint256",
          "name": "totalVoters",
          "type": "uint256"
        },
        {
          "internalType": "uint256",
          "name": "totalVotes",
          "type": "uint256"
        },
        {
          "internalType": "uint256",
          "name": "winnerId",
          "type": "uint256"
        },
        {
          "internalType": "bool",
          "name": "isCompleted",
          "type": "bool"
        }
      ],
      "stateMutability": "view",
      "type": "function"
    },
    {
      "inputs": [],
      "name": "getOwner",
      "outputs": [
        {
          "internalType": "address",
          "name": "",
          "type": "address"
        }
      ],
      "stateMutability": "view",
      "type": "function"
    },
    {
      "inputs": [
        {
          "internalType": "uint256",
          "name": "_electionId",
          "type": "uint256"
        },
        {
          "internalType": "address",
          "name": "_voterAddress",
          "type": "address"
        }
      ],
      "name": "getVoter",
      "outputs": [
        {
          "internalType": "uint256",
          "name": "voterId",
          "type": "uint256"
        },
        {
          "internalType": "string",
          "name": "voterName",
          "type": "string"
        },
        {
          "internalType": "address",
          "name": "voterAddress",
          "type": "address"
        },
        {
          "internalType": "uint256",
          "name": "electionId",
          "type": "uint256"
        },
        {
          "internalType": "uint256",
          "name": "candidateId",
          "type": "uint256"
        },
        {
          "internalType": "bool",
          "name": "isVoted",
          "type": "bool"
        }
      ],
      "stateMutability": "view",
      "type": "function"
    },
    {
      "inputs": [
        {
          "internalType": "uint256",
          "name": "_electionId",
          "type": "uint256"
        }
      ],
      "name": "getWinner",
      "outputs": [
        {
          "internalType": "uint256",
          "name": "",
          "type": "uint256"
        },
        {
          "internalType": "uint256",
          "name": "",
          "type": "uint256"
        }
      ],
      "stateMutability": "nonpayable",
      "type": "function"
    },
    {
      "inputs": [
        {
          "internalType": "uint256",
          "name": "",
          "type": "uint256"
        },
        {
          "internalType": "address",
          "name": "",
          "type": "address"
        }
      ],
      "name": "isCandidateRegistered",
      "outputs": [
        {
          "internalType": "bool",
          "name": "",
          "type": "bool"
        }
      ],
      "stateMutability": "view",
      "type": "function"
    },
    {
      "inputs": [
        {
          "internalType": "string",
          "name": "_voterName",
          "type": "string"
        },
        {
          "internalType": "uint256",
          "name": "_electionId",
          "type": "uint256"
        },
        {
          "internalType": "uint256",
          "name": "_candidateId",
          "type": "uint256"
        },
        {
          "internalType": "address",
          "name": "_voterAddress",
          "type": "address"
        }
      ],
      "name": "regVoter",
      "outputs": [],
      "stateMutability": "nonpayable",
      "type": "function"
    },
    {
      "inputs": [
        {
          "internalType": "uint256",
          "name": "_electionId",
          "type": "uint256"
        }
      ],
      "name": "verifyVoter",
      "outputs": [
        {
          "internalType": "bool",
          "name": "isRegistered",
          "type": "bool"
        }
      ],
      "stateMutability": "view",
      "type": "function"
    },
    {
      "inputs": [
        {
          "internalType": "uint256",
          "name": "",
          "type": "uint256"
        },
        {
          "internalType": "address",
          "name": "",
          "type": "address"
        }
      ],
      "name": "voters",
      "outputs": [
        {
          "internalType": "uint256",
          "name": "voterId",
          "type": "uint256"
        },
        {
          "internalType": "string",
          "name": "voterName",
          "type": "string"
        },
        {
          "internalType": "address",
          "name": "voterAddress",
          "type": "address"
        },
        {
          "internalType": "uint256",
          "name": "electionId",
          "type": "uint256"
        },
        {
          "internalType": "uint256",
          "name": "candidateId",
          "type": "uint256"
        },
        {
          "internalType": "bool",
          "name": "isVoted",
          "type": "bool"
        },
        {
          "internalType": "bool",
          "name": "isRegistered",
          "type": "bool"
        }
      ],
      "stateMutability": "view",
      "type": "function"
    }
  ],
  "bytecode": "0x60a060405234801561001057600080fd5b503373ffffffffffffffffffffffffffffffffffffffff1660808173ffffffffffffffffffffffffffffffffffffffff1681525050608051615b7e6100ad60003960008181610a5101528181610d0a015281816111470152818161155801528181611b5d01528181611dbd01528181611fa601528181611fe30152818161298d01528181612b8a01528181612d8901526132c70152615b7e6000f3fe608060405234801561001057600080fd5b50600436106101585760003560e01c8063893d20e8116100c3578063e1fc52af1161007c578063e1fc52af14610423578063e39b28ef14610453578063e9dbf4a61461046f578063f49a7a171461048b578063f9ded646146104a7578063fce82c8f146104d757610158565b8063893d20e8146103155780638e292d08146103335780638f47b1461461034f5780639d710777146103845780639e319063146103bd578063a0bd43e5146103f357610158565b80635e6fef01116101155780635e6fef0114610232578063796b89b91461026d5780637de142421461028b5780637fd5f268146102bf57806381c430ef146102dd5780638885a413146102f957610158565b80632c0a3f891461015d5780634129b2c91461017957806341403d30146101aa5780634840042c146101c65780634bd46448146101e25780635cffe51a14610216575b600080fd5b610177600480360381019061017291906138c1565b6104f3565b005b610193600480360381019061018e9190613901565b610a35565b6040516101a192919061393d565b60405180910390f35b6101c460048036038101906101bf9190613b0a565b610cf1565b005b6101e060048036038101906101db9190613901565b61112e565b005b6101fc60048036038101906101f791906138c1565b61132e565b60405161020d959493929190613c07565b60405180910390f35b610230600480360381019061022b9190613901565b61153f565b005b61024c60048036038101906102479190613901565b611737565b6040516102649c9b9a99989796959493929190613c7c565b60405180910390f35b610275611853565b6040516102829190613d3d565b60405180910390f35b6102a560048036038101906102a091906138c1565b61185b565b6040516102b6959493929190613c07565b60405180910390f35b6102c7611946565b6040516102d49190613f86565b60405180910390f35b6102f760048036038101906102f29190613901565b611b44565b005b610313600480360381019061030e9190613901565b611da4565b005b61031d611fa2565b60405161032a9190613fa8565b60405180910390f35b61034d60048036038101906103489190613901565b611fca565b005b61036960048036038101906103649190613fc3565b6122db565b60405161037b96959493929190614003565b60405180910390f35b61039e60048036038101906103999190613901565b612576565b6040516103b49a9998979695949392919061406b565b60405180910390f35b6103d760048036038101906103d29190613fc3565b612786565b6040516103ea979695949392919061410e565b60405180910390f35b61040d60048036038101906104089190613901565b612897565b60405161041a9190614184565b60405180910390f35b61043d60048036038101906104389190613fc3565b612945565b60405161044a9190614184565b60405180910390f35b61046d60048036038101906104689190613901565b612974565b005b61048960048036038101906104849190613901565b612b71565b005b6104a560048036038101906104a0919061419f565b612d70565b005b6104c160048036038101906104bc9190613901565b613080565b6040516104ce9190614355565b60405180910390f35b6104f160048036038101906104ec9190614377565b6132ae565b005b6003600083815260200190815260200160002060003373ffffffffffffffffffffffffffffffffffffffff1673ffffffffffffffffffffffffffffffffffffffff16815260200190815260200160002060050160019054906101000a900460ff16610593576040517f08c379a000000000000000000000000000000000000000000000000000000000815260040161058a90614446565b60405180910390fd5b600080600084815260200190815260200160002060050154905060045483106105f1576040517f08c379a00000000000000000000000000000000000000000000000000000000081526004016105e8906144b2565b60405180910390fd5b808210610633576040517f08c379a000000000000000000000000000000000000000000000000000000000815260040161062a9061451e565b60405180910390fd5b6003600084815260200190815260200160002060003373ffffffffffffffffffffffffffffffffffffffff1673ffffffffffffffffffffffffffffffffffffffff16815260200190815260200160002060050160009054906101000a900460ff16156106d4576040517f08c379a00000000000000000000000000000000000000000000000000000000081526004016106cb906145b0565b60405180910390fd5b60008084815260200190815260200160002060020160009054906101000a900460ff16610736576040517f08c379a000000000000000000000000000000000000000000000000000000000815260040161072d9061461c565b60405180910390fd5b60008084815260200190815260200160002060090160019054906101000a900460ff16610798576040517f08c379a000000000000000000000000000000000000000000000000000000000815260040161078f90614688565b60405180910390fd5b4260008085815260200190815260200160002060030154111580156107d25750426000808581526020019081526020016000206004015410155b610811576040517f08c379a0000000000000000000000000000000000000000000000000000000008152600401610808906146f4565b60405180910390fd5b82600160008581526020019081526020016000206000848152602001908152602001600020600301541461087a576040517f08c379a000000000000000000000000000000000000000000000000000000000815260040161087190614760565b60405180910390fd5b816003600085815260200190815260200160002060003373ffffffffffffffffffffffffffffffffffffffff1673ffffffffffffffffffffffffffffffffffffffff1681526020019081526020016000206004018190555060016003600085815260200190815260200160002060003373ffffffffffffffffffffffffffffffffffffffff1673ffffffffffffffffffffffffffffffffffffffff16815260200190815260200160002060050160006101000a81548160ff0219169083151502179055506000808481526020019081526020016000206007016000815480929190610964906147af565b919050555060016000848152602001908152602001600020600083815260200190815260200160002060040160008154809291906109a1906147af565b91905055507f5533d5d8a59c8c6fc73fec643bde2a80d5249359048ce5ad8268999b467c9b646003600085815260200190815260200160002060003373ffffffffffffffffffffffffffffffffffffffff1673ffffffffffffffffffffffffffffffffffffffff16815260200190815260200160002060000154604051610a289190614843565b60405180910390a1505050565b6000803373ffffffffffffffffffffffffffffffffffffffff167f000000000000000000000000000000000000000000000000000000000000000073ffffffffffffffffffffffffffffffffffffffff1614610ac6576040517f08c379a0000000000000000000000000000000000000000000000000000000008152600401610abd906148bd565b60405180910390fd5b6004548310610b0a576040517f08c379a0000000000000000000000000000000000000000000000000000000008152600401610b0190614929565b60405180910390fd5b60008084815260200190815260200160002060090160029054906101000a900460ff16610b6c576040517f08c379a0000000000000000000000000000000000000000000000000000000008152600401610b6390614995565b60405180910390fd5b60008084815260200190815260200160002060020160009054906101000a900460ff1615610bcf576040517f08c379a0000000000000000000000000000000000000000000000000000000008152600401610bc690614a01565b60405180910390fd5b600080600085815260200190815260200160002060050154905060008060005b83811015610c9057866001600089815260200190815260200160002060008381526020019081526020016000206003015403610c835760016000888152602001908152602001600020600082815260200190815260200160002060040154831015610c82576001600088815260200190815260200160002060008281526020019081526020016000206004015492508091505b5b8080600101915050610bef565b508060008088815260200190815260200160002060080181905550857feb860cb3b9047fed9f8079266ddfd7a11e3149f4bcf11fc3d8f373b04c61771782604051610cdb9190614a6d565b60405180910390a2818194509450505050915091565b3373ffffffffffffffffffffffffffffffffffffffff167f000000000000000000000000000000000000000000000000000000000000000073ffffffffffffffffffffffffffffffffffffffff1614610d7f576040517f08c379a0000000000000000000000000000000000000000000000000000000008152600401610d76906148bd565b60405180910390fd5b816000815111610dc4576040517f08c379a0000000000000000000000000000000000000000000000000000000008152600401610dbb90614ae7565b60405180910390fd5b81600073ffffffffffffffffffffffffffffffffffffffff168173ffffffffffffffffffffffffffffffffffffffff1603610e34576040517f08c379a0000000000000000000000000000000000000000000000000000000008152600401610e2b90614ae7565b60405180910390fd5b6004548510610e78576040517f08c379a0000000000000000000000000000000000000000000000000000000008152600401610e6f90614929565b60405180910390fd5b6002600086815260200190815260200160002060008473ffffffffffffffffffffffffffffffffffffffff1673ffffffffffffffffffffffffffffffffffffffff16815260200190815260200160002060009054906101000a900460ff1615610f16576040517f08c379a0000000000000000000000000000000000000000000000000000000008152600401610f0d90614b53565b60405180910390fd5b60008086815260200190815260200160002060090160009054906101000a900460ff16610f78576040517f08c379a0000000000000000000000000000000000000000000000000000000008152600401610f6f90614bbf565b60405180910390fd5b60008060008781526020019081526020016000206005016000815480929190610fa0906147af565b9190505590506040518060a001604052808281526020018573ffffffffffffffffffffffffffffffffffffffff16815260200186815260200187815260200160008152506001600088815260200190815260200160002060008381526020019081526020016000206000820151816000015560208201518160010160006101000a81548173ffffffffffffffffffffffffffffffffffffffff021916908373ffffffffffffffffffffffffffffffffffffffff160217905550604082015181600201908161106e9190614deb565b50606082015181600301556080820151816004015590505060016002600088815260200190815260200160002060008673ffffffffffffffffffffffffffffffffffffffff1673ffffffffffffffffffffffffffffffffffffffff16815260200190815260200160002060006101000a81548160ff0219169083151502179055507f66b1543f5ce2008daad22e7d34bf4fe6171c5f3a1df8a5dd7f16b919b62a65bf8160405161111e9190614f09565b60405180910390a1505050505050565b3373ffffffffffffffffffffffffffffffffffffffff167f000000000000000000000000000000000000000000000000000000000000000073ffffffffffffffffffffffffffffffffffffffff16146111bc576040517f08c379a00000000000000000000000000000000000000000000000000000000081526004016111b3906148bd565b60405180910390fd5b600454811115611201576040517f08c379a00000000000000000000000000000000000000000000000000000000081526004016111f890614929565b60405180910390fd5b60008082815260200190815260200160002060020160009054906101000a900460ff1615611264576040517f08c379a000000000000000000000000000000000000000000000000000000000815260040161125b90614a01565b60405180910390fd5b60008082815260200190815260200160002060090160029054906101000a900460ff16156112c7576040517f08c379a00000000000000000000000000000000000000000000000000000000081526004016112be90614f83565b60405180910390fd5b600160008083815260200190815260200160002060090160026101000a81548160ff021916908315150217905550807f4bf7e25c24d8d2e2b68c740e5971c960ea45ff3b301ad2b468c196bf9ed4f6a960405161132390614fef565b60405180910390a250565b600080606060008060008060008981526020019081526020016000206005015490506004548810611394576040517f08c379a000000000000000000000000000000000000000000000000000000000815260040161138b9061505b565b60405180910390fd5b808711156113d7576040517f08c379a00000000000000000000000000000000000000000000000000000000081526004016113ce9061505b565b60405180910390fd5b6000600160008a815260200190815260200160002060008981526020019081526020016000206040518060a0016040529081600082015481526020016001820160009054906101000a900473ffffffffffffffffffffffffffffffffffffffff1673ffffffffffffffffffffffffffffffffffffffff1673ffffffffffffffffffffffffffffffffffffffff16815260200160028201805461147890614c0e565b80601f01602080910402602001604051908101604052809291908181526020018280546114a490614c0e565b80156114f15780601f106114c6576101008083540402835291602001916114f1565b820191906000526020600020905b8154815290600101906020018083116114d457829003601f168201915b50505050508152602001600382015481526020016004820154815250509050806000015181602001518260400151836060015184608001519650965096509650965050509295509295909350565b3373ffffffffffffffffffffffffffffffffffffffff167f000000000000000000000000000000000000000000000000000000000000000073ffffffffffffffffffffffffffffffffffffffff16146115cd576040517f08c379a00000000000000000000000000000000000000000000000000000000081526004016115c4906148bd565b60405180910390fd5b600454811115611612576040517f08c379a000000000000000000000000000000000000000000000000000000000815260040161160990614929565b60405180910390fd5b60008082815260200190815260200160002060020160009054906101000a900460ff16611674576040517f08c379a000000000000000000000000000000000000000000000000000000000815260040161166b906150c7565b60405180910390fd5b600080600083815260200190815260200160002060020160006101000a81548160ff021916908315150217905550600080600083815260200190815260200160002060090160006101000a81548160ff021916908315150217905550600080600083815260200190815260200160002060090160016101000a81548160ff021916908315150217905550807f805afb8e19e9e9e9103701927b3dcdf7c55c49171ac9ff29ac697ef28509f2a460405161172c90615133565b60405180910390a250565b600060205280600052604060002060009150905080600001549080600101805461176090614c0e565b80601f016020809104026020016040519081016040528092919081815260200182805461178c90614c0e565b80156117d95780601f106117ae576101008083540402835291602001916117d9565b820191906000526020600020905b8154815290600101906020018083116117bc57829003601f168201915b5050505050908060020160009054906101000a900460ff16908060030154908060040154908060050154908060060154908060070154908060080154908060090160009054906101000a900460ff16908060090160019054906101000a900460ff16908060090160029054906101000a900460ff1690508c565b600042905090565b6001602052816000526040600020602052806000526040600020600091509150508060000154908060010160009054906101000a900473ffffffffffffffffffffffffffffffffffffffff16908060020180546118b790614c0e565b80601f01602080910402602001604051908101604052809291908181526020018280546118e390614c0e565b80156119305780601f1061190557610100808354040283529160200191611930565b820191906000526020600020905b81548152906001019060200180831161191357829003601f168201915b5050505050908060030154908060040154905085565b6060600060045467ffffffffffffffff81111561196657611965613981565b5b60405190808252806020026020018201604052801561199f57816020015b61198c6137c9565b8152602001906001900390816119845790505b50905060005b600454811015611b3c5760008082815260200190815260200160002060405180610180016040529081600082015481526020016001820180546119e790614c0e565b80601f0160208091040260200160405190810160405280929190818152602001828054611a1390614c0e565b8015611a605780601f10611a3557610100808354040283529160200191611a60565b820191906000526020600020905b815481529060010190602001808311611a4357829003601f168201915b505050505081526020016002820160009054906101000a900460ff161515151581526020016003820154815260200160048201548152602001600582015481526020016006820154815260200160078201548152602001600882015481526020016009820160009054906101000a900460ff161515151581526020016009820160019054906101000a900460ff161515151581526020016009820160029054906101000a900460ff161515151581525050828281518110611b2457611b23615153565b5b602002602001018190525080806001019150506119a5565b508091505090565b3373ffffffffffffffffffffffffffffffffffffffff167f000000000000000000000000000000000000000000000000000000000000000073ffffffffffffffffffffffffffffffffffffffff1614611bd2576040517f08c379a0000000000000000000000000000000000000000000000000000000008152600401611bc9906148bd565b60405180910390fd5b6004548110611c16576040517f08c379a0000000000000000000000000000000000000000000000000000000008152600401611c0d90614929565b60405180910390fd5b60008082815260200190815260200160002060020160009054906101000a900460ff16611c78576040517f08c379a0000000000000000000000000000000000000000000000000000000008152600401611c6f906151ce565b60405180910390fd5b60008082815260200190815260200160002060090160009054906101000a900460ff1615611cdb576040517f08c379a0000000000000000000000000000000000000000000000000000000008152600401611cd290615260565b60405180910390fd5b60008082815260200190815260200160002060090160019054906101000a900460ff16611d3d576040517f08c379a0000000000000000000000000000000000000000000000000000000008152600401611d34906152cc565b60405180910390fd5b600080600083815260200190815260200160002060090160016101000a81548160ff021916908315150217905550807f32aacc61c7893eeb621b0291b1e1f38a3edab51ef00280d7277400adda6bdbd2604051611d9990615338565b60405180910390a250565b3373ffffffffffffffffffffffffffffffffffffffff167f000000000000000000000000000000000000000000000000000000000000000073ffffffffffffffffffffffffffffffffffffffff1614611e32576040517f08c379a0000000000000000000000000000000000000000000000000000000008152600401611e29906148bd565b60405180910390fd5b6004548110611e76576040517f08c379a0000000000000000000000000000000000000000000000000000000008152600401611e6d90614929565b60405180910390fd5b60008082815260200190815260200160002060020160009054906101000a900460ff16611ed8576040517f08c379a0000000000000000000000000000000000000000000000000000000008152600401611ecf906151ce565b60405180910390fd5b60008082815260200190815260200160002060090160009054906101000a900460ff1615611f3b576040517f08c379a0000000000000000000000000000000000000000000000000000000008152600401611f3290615260565b60405180910390fd5b600160008083815260200190815260200160002060090160006101000a81548160ff021916908315150217905550807f812be57ff3aad52a34fd221061d1eb22acd3a8264d8fcb1b749ffe5a46f99e00604051611f97906153a4565b60405180910390a250565b60007f0000000000000000000000000000000000000000000000000000000000000000905090565b3373ffffffffffffffffffffffffffffffffffffffff167f000000000000000000000000000000000000000000000000000000000000000073ffffffffffffffffffffffffffffffffffffffff1614612058576040517f08c379a000000000000000000000000000000000000000000000000000000000815260040161204f906148bd565b60405180910390fd5b600454811061209c576040517f08c379a000000000000000000000000000000000000000000000000000000000815260040161209390614929565b60405180910390fd5b60008082815260200190815260200160002060020160009054906101000a900460ff166120fe576040517f08c379a00000000000000000000000000000000000000000000000000000000081526004016120f5906151ce565b60405180910390fd5b60008082815260200190815260200160002060090160009054906101000a900460ff1615612161576040517f08c379a000000000000000000000000000000000000000000000000000000000815260040161215890615410565b60405180910390fd5b60008082815260200190815260200160002060090160019054906101000a900460ff16156121c4576040517f08c379a00000000000000000000000000000000000000000000000000000000081526004016121bb906154a2565b60405180910390fd5b6001600080838152602001908152602001600020600501541161221c576040517f08c379a000000000000000000000000000000000000000000000000000000000815260040161221390615534565b60405180910390fd5b60016000808381526020019081526020016000206006015411612274576040517f08c379a000000000000000000000000000000000000000000000000000000000815260040161226b906155a0565b60405180910390fd5b600160008083815260200190815260200160002060090160016101000a81548160ff021916908315150217905550807f9d40f798047b16879455bd5998cb8c300e47ac7db6a9e63670e0f761914343df6040516122d09061560c565b60405180910390a250565b600060606000806000808760008111612329576040517f08c379a000000000000000000000000000000000000000000000000000000000815260040161232090614ae7565b60405180910390fd5b600454891061236d576040517f08c379a000000000000000000000000000000000000000000000000000000000815260040161236490615678565b60405180910390fd5b600073ffffffffffffffffffffffffffffffffffffffff168873ffffffffffffffffffffffffffffffffffffffff16036123a5573397505b6000600360008b815260200190815260200160002060008a73ffffffffffffffffffffffffffffffffffffffff1673ffffffffffffffffffffffffffffffffffffffff1681526020019081526020016000206040518060e00160405290816000820154815260200160018201805461241c90614c0e565b80601f016020809104026020016040519081016040528092919081815260200182805461244890614c0e565b80156124955780601f1061246a57610100808354040283529160200191612495565b820191906000526020600020905b81548152906001019060200180831161247857829003601f168201915b505050505081526020016002820160009054906101000a900473ffffffffffffffffffffffffffffffffffffffff1673ffffffffffffffffffffffffffffffffffffffff1673ffffffffffffffffffffffffffffffffffffffff16815260200160038201548152602001600482015481526020016005820160009054906101000a900460ff161515151581526020016005820160019054906101000a900460ff1615151515815250509050806000015181602001518260400151836060015184608001518560a0015197509750975097509750975050509295509295509295565b600060606000806000806000806000806004548b106125ca576040517f08c379a00000000000000000000000000000000000000000000000000000000081526004016125c1906156e4565b60405180910390fd5b60008060008d8152602001908152602001600020604051806101800160405290816000820154815260200160018201805461260490614c0e565b80601f016020809104026020016040519081016040528092919081815260200182805461263090614c0e565b801561267d5780601f106126525761010080835404028352916020019161267d565b820191906000526020600020905b81548152906001019060200180831161266057829003601f168201915b505050505081526020016002820160009054906101000a900460ff161515151581526020016003820154815260200160048201548152602001600582015481526020016006820154815260200160078201548152602001600882015481526020016009820160009054906101000a900460ff161515151581526020016009820160019054906101000a900460ff161515151581526020016009820160029054906101000a900460ff1615151515815250509050806000015181602001518260400151836060015184608001518560a001518660c001518760e001518861010001518961016001519a509a509a509a509a509a509a509a509a509a50509193959799509193959799565b6003602052816000526040600020602052806000526040600020600091509150508060000154908060010180546127bc90614c0e565b80601f01602080910402602001604051908101604052809291908181526020018280546127e890614c0e565b80156128355780601f1061280a57610100808354040283529160200191612835565b820191906000526020600020905b81548152906001019060200180831161281857829003601f168201915b5050505050908060020160009054906101000a900473ffffffffffffffffffffffffffffffffffffffff16908060030154908060040154908060050160009054906101000a900460ff16908060050160019054906101000a900460ff16905087565b600060045482106128dd576040517f08c379a00000000000000000000000000000000000000000000000000000000081526004016128d490614929565b60405180910390fd5b6003600083815260200190815260200160002060003373ffffffffffffffffffffffffffffffffffffffff1673ffffffffffffffffffffffffffffffffffffffff16815260200190815260200160002060050160019054906101000a900460ff169050919050565b60026020528160005260406000206020528060005260406000206000915091509054906101000a900460ff1681565b3373ffffffffffffffffffffffffffffffffffffffff167f000000000000000000000000000000000000000000000000000000000000000073ffffffffffffffffffffffffffffffffffffffff1614612a02576040517f08c379a00000000000000000000000000000000000000000000000000000000081526004016129f9906148bd565b60405180910390fd5b6004548110612a46576040517f08c379a0000000000000000000000000000000000000000000000000000000008152600401612a3d90614929565b60405180910390fd5b60008082815260200190815260200160002060020160009054906101000a900460ff16612aa8576040517f08c379a0000000000000000000000000000000000000000000000000000000008152600401612a9f906151ce565b60405180910390fd5b60008082815260200190815260200160002060090160009054906101000a900460ff16612b0a576040517f08c379a0000000000000000000000000000000000000000000000000000000008152600401612b0190615776565b60405180910390fd5b600080600083815260200190815260200160002060090160006101000a81548160ff021916908315150217905550807f4db4bca33ffad2e48e831544e9b62894cd345ee0b0322f48a24d949ec7d4741e604051612b6690615808565b60405180910390a250565b3373ffffffffffffffffffffffffffffffffffffffff167f000000000000000000000000000000000000000000000000000000000000000073ffffffffffffffffffffffffffffffffffffffff1614612bff576040517f08c379a0000000000000000000000000000000000000000000000000000000008152600401612bf6906148bd565b60405180910390fd5b6004548110612c43576040517f08c379a0000000000000000000000000000000000000000000000000000000008152600401612c3a90614929565b60405180910390fd5b60008082815260200190815260200160002060090160029054906101000a900460ff1615612ca6576040517f08c379a0000000000000000000000000000000000000000000000000000000008152600401612c9d90614f83565b60405180910390fd5b60008082815260200190815260200160002060020160009054906101000a900460ff1615612d09576040517f08c379a0000000000000000000000000000000000000000000000000000000008152600401612d0090614a01565b60405180910390fd5b600160008083815260200190815260200160002060020160006101000a81548160ff021916908315150217905550807f5cc0095233d950906740f494e45969f5276be13b20a90cf897b3c1b2c9e8e8d9604051612d6590615874565b60405180910390a250565b3373ffffffffffffffffffffffffffffffffffffffff167f000000000000000000000000000000000000000000000000000000000000000073ffffffffffffffffffffffffffffffffffffffff1614612dfe576040517f08c379a0000000000000000000000000000000000000000000000000000000008152600401612df5906148bd565b60405180910390fd5b826000815111612e43576040517f08c379a0000000000000000000000000000000000000000000000000000000008152600401612e3a90614ae7565b60405180910390fd5b81421115612e86576040517f08c379a0000000000000000000000000000000000000000000000000000000008152600401612e7d906158e0565b60405180910390fd5b81831115612ec9576040517f08c379a0000000000000000000000000000000000000000000000000000000008152600401612ec090615972565b60405180910390fd5b604051806101800160405280600454815260200185815260200160001515815260200184815260200183815260200160008152602001600081526020016000815260200160008152602001600015158152602001600015158152602001600015158152506000806004548152602001908152602001600020600082015181600001556020820151816001019081612f609190614deb565b5060408201518160020160006101000a81548160ff021916908315150217905550606082015181600301556080820151816004015560a0820151816005015560c0820151816006015560e0820151816007015561010082015181600801556101208201518160090160006101000a81548160ff0219169083151502179055506101408201518160090160016101000a81548160ff0219169083151502179055506101608201518160090160026101000a81548160ff0219169083151502179055509050506004547f2e9b8dc915d5de229b12468c2f0ca7bfd1c46d1cea8e78d6debb1dcfa5a1459f85858560405161305a93929190615992565b60405180910390a260046000815480929190613075906147af565b919050555050505050565b606060045482106130c6576040517f08c379a00000000000000000000000000000000000000000000000000000000081526004016130bd906156e4565b60405180910390fd5b600080600084815260200190815260200160002060050154905060008167ffffffffffffffff8111156130fc576130fb613981565b5b60405190808252806020026020018201604052801561313557816020015b613122613832565b81526020019060019003908161311a5790505b50905060005b828110156132a3576001600086815260200190815260200160002060008281526020019081526020016000206040518060a0016040529081600082015481526020016001820160009054906101000a900473ffffffffffffffffffffffffffffffffffffffff1673ffffffffffffffffffffffffffffffffffffffff1673ffffffffffffffffffffffffffffffffffffffff1681526020016002820180546131e290614c0e565b80601f016020809104026020016040519081016040528092919081815260200182805461320e90614c0e565b801561325b5780601f106132305761010080835404028352916020019161325b565b820191906000526020600020905b81548152906001019060200180831161323e57829003601f168201915b505050505081526020016003820154815260200160048201548152505082828151811061328b5761328a615153565b5b6020026020010181905250808060010191505061313b565b508092505050919050565b3373ffffffffffffffffffffffffffffffffffffffff167f000000000000000000000000000000000000000000000000000000000000000073ffffffffffffffffffffffffffffffffffffffff161461333c576040517f08c379a0000000000000000000000000000000000000000000000000000000008152600401613333906148bd565b60405180910390fd5b836000815111613381576040517f08c379a000000000000000000000000000000000000000000000000000000000815260040161337890614ae7565b60405180910390fd5b81600073ffffffffffffffffffffffffffffffffffffffff168173ffffffffffffffffffffffffffffffffffffffff16036133f1576040517f08c379a00000000000000000000000000000000000000000000000000000000081526004016133e890614ae7565b60405180910390fd5b60008060008781526020019081526020016000206005015490506003600087815260200190815260200160002060008573ffffffffffffffffffffffffffffffffffffffff1673ffffffffffffffffffffffffffffffffffffffff16815260200190815260200160002060050160019054906101000a900460ff16156134ac576040517f08c379a00000000000000000000000000000000000000000000000000000000081526004016134a390615a1c565b60405180910390fd5b600080600088815260200190815260200160002060060160008154809291906134d4906147af565b919050559050600454871061351e576040517f08c379a0000000000000000000000000000000000000000000000000000000008152600401613515906144b2565b60405180910390fd5b818610613560576040517f08c379a00000000000000000000000000000000000000000000000000000000081526004016135579061451e565b60405180910390fd5b600081905060008089815260200190815260200160002060020160009054906101000a900460ff166135c7576040517f08c379a00000000000000000000000000000000000000000000000000000000081526004016135be9061461c565b60405180910390fd5b60008089815260200190815260200160002060090160009054906101000a900460ff16613629576040517f08c379a000000000000000000000000000000000000000000000000000000000815260040161362090615aae565b60405180910390fd5b6040518060e001604052808281526020018a81526020018773ffffffffffffffffffffffffffffffffffffffff1681526020018981526020016000815260200160001515815260200160011515815250600360008a815260200190815260200160002060008873ffffffffffffffffffffffffffffffffffffffff1673ffffffffffffffffffffffffffffffffffffffff1681526020019081526020016000206000820151816000015560208201518160010190816136e89190614deb565b5060408201518160020160006101000a81548173ffffffffffffffffffffffffffffffffffffffff021916908373ffffffffffffffffffffffffffffffffffffffff160217905550606082015181600301556080820151816004015560a08201518160050160006101000a81548160ff02191690831515021790555060c08201518160050160016101000a81548160ff0219169083151502179055509050507f0299d59c31dcf661049385a2c4b98ab6db3dede0f39be5fa6a4c5a9f0bd880d0816040516137b69190615b1a565b60405180910390a1505050505050505050565b60405180610180016040528060008152602001606081526020016000151581526020016000815260200160008152602001600081526020016000815260200160008152602001600081526020016000151581526020016000151581526020016000151581525090565b6040518060a0016040528060008152602001600073ffffffffffffffffffffffffffffffffffffffff1681526020016060815260200160008152602001600081525090565b6000604051905090565b600080fd5b600080fd5b6000819050919050565b61389e8161388b565b81146138a957600080fd5b50565b6000813590506138bb81613895565b92915050565b600080604083850312156138d8576138d7613881565b5b60006138e6858286016138ac565b92505060206138f7858286016138ac565b9150509250929050565b60006020828403121561391757613916613881565b5b6000613925848285016138ac565b91505092915050565b6139378161388b565b82525050565b6000604082019050613952600083018561392e565b61395f602083018461392e565b9392505050565b600080fd5b600080fd5b6000601f19601f8301169050919050565b7f4e487b7100000000000000000000000000000000000000000000000000000000600052604160045260246000fd5b6139b982613970565b810181811067ffffffffffffffff821117156139d8576139d7613981565b5b80604052505050565b60006139eb613877565b90506139f782826139b0565b919050565b600067ffffffffffffffff821115613a1757613a16613981565b5b613a2082613970565b9050602081019050919050565b82818337600083830152505050565b6000613a4f613a4a846139fc565b6139e1565b905082815260208101848484011115613a6b57613a6a61396b565b5b613a76848285613a2d565b509392505050565b600082601f830112613a9357613a92613966565b5b8135613aa3848260208601613a3c565b91505092915050565b600073ffffffffffffffffffffffffffffffffffffffff82169050919050565b6000613ad782613aac565b9050919050565b613ae781613acc565b8114613af257600080fd5b50565b600081359050613b0481613ade565b92915050565b600080600060608486031215613b2357613b22613881565b5b6000613b31868287016138ac565b935050602084013567ffffffffffffffff811115613b5257613b51613886565b5b613b5e86828701613a7e565b9250506040613b6f86828701613af5565b9150509250925092565b613b8281613acc565b82525050565b600081519050919050565b600082825260208201905092915050565b60005b83811015613bc2578082015181840152602081019050613ba7565b60008484015250505050565b6000613bd982613b88565b613be38185613b93565b9350613bf3818560208601613ba4565b613bfc81613970565b840191505092915050565b600060a082019050613c1c600083018861392e565b613c296020830187613b79565b8181036040830152613c3b8186613bce565b9050613c4a606083018561392e565b613c57608083018461392e565b9695505050505050565b60008115159050919050565b613c7681613c61565b82525050565b600061018082019050613c92600083018f61392e565b8181036020830152613ca4818e613bce565b9050613cb3604083018d613c6d565b613cc0606083018c61392e565b613ccd608083018b61392e565b613cda60a083018a61392e565b613ce760c083018961392e565b613cf460e083018861392e565b613d0261010083018761392e565b613d10610120830186613c6d565b613d1e610140830185613c6d565b613d2c610160830184613c6d565b9d9c50505050505050505050505050565b6000602082019050613d52600083018461392e565b92915050565b600081519050919050565b600082825260208201905092915050565b6000819050602082019050919050565b613d8d8161388b565b82525050565b600082825260208201905092915050565b6000613daf82613b88565b613db98185613d93565b9350613dc9818560208601613ba4565b613dd281613970565b840191505092915050565b613de681613c61565b82525050565b600061018083016000830151613e056000860182613d84565b5060208301518482036020860152613e1d8282613da4565b9150506040830151613e326040860182613ddd565b506060830151613e456060860182613d84565b506080830151613e586080860182613d84565b5060a0830151613e6b60a0860182613d84565b5060c0830151613e7e60c0860182613d84565b5060e0830151613e9160e0860182613d84565b50610100830151613ea6610100860182613d84565b50610120830151613ebb610120860182613ddd565b50610140830151613ed0610140860182613ddd565b50610160830151613ee5610160860182613ddd565b508091505092915050565b6000613efc8383613dec565b905092915050565b6000602082019050919050565b6000613f1c82613d58565b613f268185613d63565b935083602082028501613f3885613d74565b8060005b85811015613f745784840389528151613f558582613ef0565b9450613f6083613f04565b925060208a01995050600181019050613f3c565b50829750879550505050505092915050565b60006020820190508181036000830152613fa08184613f11565b905092915050565b6000602082019050613fbd6000830184613b79565b92915050565b60008060408385031215613fda57613fd9613881565b5b6000613fe8858286016138ac565b9250506020613ff985828601613af5565b9150509250929050565b600060c082019050614018600083018961392e565b818103602083015261402a8188613bce565b90506140396040830187613b79565b614046606083018661392e565b614053608083018561392e565b61406060a0830184613c6d565b979650505050505050565b600061014082019050614081600083018d61392e565b8181036020830152614093818c613bce565b90506140a2604083018b613c6d565b6140af606083018a61392e565b6140bc608083018961392e565b6140c960a083018861392e565b6140d660c083018761392e565b6140e360e083018661392e565b6140f161010083018561392e565b6140ff610120830184613c6d565b9b9a5050505050505050505050565b600060e082019050614123600083018a61392e565b81810360208301526141358189613bce565b90506141446040830188613b79565b614151606083018761392e565b61415e608083018661392e565b61416b60a0830185613c6d565b61417860c0830184613c6d565b98975050505050505050565b60006020820190506141996000830184613c6d565b92915050565b6000806000606084860312156141b8576141b7613881565b5b600084013567ffffffffffffffff8111156141d6576141d5613886565b5b6141e286828701613a7e565b93505060206141f3868287016138ac565b9250506040614204868287016138ac565b9150509250925092565b600081519050919050565b600082825260208201905092915050565b6000819050602082019050919050565b61424381613acc565b82525050565b600060a0830160008301516142616000860182613d84565b506020830151614274602086018261423a565b506040830151848203604086015261428c8282613da4565b91505060608301516142a16060860182613d84565b5060808301516142b46080860182613d84565b508091505092915050565b60006142cb8383614249565b905092915050565b6000602082019050919050565b60006142eb8261420e565b6142f58185614219565b9350836020820285016143078561422a565b8060005b85811015614343578484038952815161432485826142bf565b945061432f836142d3565b925060208a0199505060018101905061430b565b50829750879550505050505092915050565b6000602082019050818103600083015261436f81846142e0565b905092915050565b6000806000806080858703121561439157614390613881565b5b600085013567ffffffffffffffff8111156143af576143ae613886565b5b6143bb87828801613a7e565b94505060206143cc878288016138ac565b93505060406143dd878288016138ac565b92505060606143ee87828801613af5565b91505092959194509250565b7f766f746572206973206e6f742072656769737465726564210000000000000000600082015250565b6000614430601883613b93565b915061443b826143fa565b602082019050919050565b6000602082019050818103600083015261445f81614423565b9050919050565b7f496e76616c696420656c656374696f6e20696400000000000000000000000000600082015250565b600061449c601383613b93565b91506144a782614466565b602082019050919050565b600060208201905081810360008301526144cb8161448f565b9050919050565b7f696e76616c69642063616e646964617465206964000000000000000000000000600082015250565b6000614508601483613b93565b9150614513826144d2565b602082019050919050565b60006020820190508181036000830152614537816144fb565b9050919050565b7f796f7520616c726561647920766f74656420666f72207468697320656c65637460008201527f696f6e2129000000000000000000000000000000000000000000000000000000602082015250565b600061459a602583613b93565b91506145a58261453e565b604082019050919050565b600060208201905081810360008301526145c98161458d565b9050919050565b7f656c656374696f6e206973206e6f742061637469766521000000000000000000600082015250565b6000614606601783613b93565b9150614611826145d0565b602082019050919050565b60006020820190508181036000830152614635816145f9565b9050919050565b7f566f74696e67206973206e6f7420616374697665210000000000000000000000600082015250565b6000614672601583613b93565b915061467d8261463c565b602082019050919050565b600060208201905081810360008301526146a181614665565b9050919050565b7f496e76616c69642074696d6520666f7220766f74696e67000000000000000000600082015250565b60006146de601783613b93565b91506146e9826146a8565b602082019050919050565b6000602082019050818103600083015261470d816146d1565b9050919050565b7f496e76616c69642043616e646964617465204964000000000000000000000000600082015250565b600061474a601483613b93565b915061475582614714565b602082019050919050565b600060208201905081810360008301526147798161473d565b9050919050565b7f4e487b7100000000000000000000000000000000000000000000000000000000600052601160045260246000fd5b60006147ba8261388b565b91507fffffffffffffffffffffffffffffffffffffffffffffffffffffffffffffffff82036147ec576147eb614780565b5b600182019050919050565b7f766f7465722063617374656420766f7465000000000000000000000000000000600082015250565b600061482d601183613b93565b9150614838826147f7565b602082019050919050565b6000604082019050614858600083018461392e565b818103602083015261486981614820565b905092915050565b7f6f6e6c792061646d696e00000000000000000000000000000000000000000000600082015250565b60006148a7600a83613b93565b91506148b282614871565b602082019050919050565b600060208201905081810360008301526148d68161489a565b9050919050565b7f496e76616c696420456c656374696f6e20496400000000000000000000000000600082015250565b6000614913601383613b93565b915061491e826148dd565b602082019050919050565b6000602082019050818103600083015261494281614906565b9050919050565b7f656c656374696f6e206973206e6f7420636f6d706c6574656420796574000000600082015250565b600061497f601d83613b93565b915061498a82614949565b602082019050919050565b600060208201905081810360008301526149ae81614972565b9050919050565b7f656c656374696f6e20697320616c726561647920616374697665210000000000600082015250565b60006149eb601b83613b93565b91506149f6826149b5565b602082019050919050565b60006020820190508181036000830152614a1a816149de565b9050919050565b7f54686520656c656374696f6e20697320636f6d706c6574656400000000000000600082015250565b6000614a57601983613b93565b9150614a6282614a21565b602082019050919050565b60006040820190508181036000830152614a8681614a4a565b9050614a95602083018461392e565b92915050565b7f496e76616c696400000000000000000000000000000000000000000000000000600082015250565b6000614ad1600783613b93565b9150614adc82614a9b565b602082019050919050565b60006020820190508181036000830152614b0081614ac4565b9050919050565b7f43616e64696461746520416c7265616479206164646564210000000000000000600082015250565b6000614b3d601883613b93565b9150614b4882614b07565b602082019050919050565b60006020820190508181036000830152614b6c81614b30565b9050919050565b7f526567697374726174696f6e207068617365206e6f7420616374697665210000600082015250565b6000614ba9601e83613b93565b9150614bb482614b73565b602082019050919050565b60006020820190508181036000830152614bd881614b9c565b9050919050565b7f4e487b7100000000000000000000000000000000000000000000000000000000600052602260045260246000fd5b60006002820490506001821680614c2657607f821691505b602082108103614c3957614c38614bdf565b5b50919050565b60008190508160005260206000209050919050565b60006020601f8301049050919050565b600082821b905092915050565b600060088302614ca17fffffffffffffffffffffffffffffffffffffffffffffffffffffffffffffffff82614c64565b614cab8683614c64565b95508019841693508086168417925050509392505050565b6000819050919050565b6000614ce8614ce3614cde8461388b565b614cc3565b61388b565b9050919050565b6000819050919050565b614d0283614ccd565b614d16614d0e82614cef565b848454614c71565b825550505050565b600090565b614d2b614d1e565b614d36818484614cf9565b505050565b5b81811015614d5a57614d4f600082614d23565b600181019050614d3c565b5050565b601f821115614d9f57614d7081614c3f565b614d7984614c54565b81016020851015614d88578190505b614d9c614d9485614c54565b830182614d3b565b50505b505050565b600082821c905092915050565b6000614dc260001984600802614da4565b1980831691505092915050565b6000614ddb8383614db1565b9150826002028217905092915050565b614df482613b88565b67ffffffffffffffff811115614e0d57614e0c613981565b5b614e178254614c0e565b614e22828285614d5e565b600060209050601f831160018114614e555760008415614e43578287015190505b614e4d8582614dcf565b865550614eb5565b601f198416614e6386614c3f565b60005b82811015614e8b57848901518255600182019150602085019450602081019050614e66565b86831015614ea85784890151614ea4601f891682614db1565b8355505b6001600288020188555050505b505050505050565b7f43616e646964617465206164646564207375636365737366756c6c7900000000600082015250565b6000614ef3601c83613b93565b9150614efe82614ebd565b602082019050919050565b6000604082019050614f1e600083018461392e565b8181036020830152614f2f81614ee6565b905092915050565b7f656c656374696f6e20697320616c726561647920636f6d706c65746564210000600082015250565b6000614f6d601e83613b93565b9150614f7882614f37565b602082019050919050565b60006020820190508181036000830152614f9c81614f60565b9050919050565b7f656c656374696f6e20697320636f6d706c657465640000000000000000000000600082015250565b6000614fd9601583613b93565b9150614fe482614fa3565b602082019050919050565b6000602082019050818103600083015261500881614fcc565b9050919050565b7f496e76616c69642063616e646964617465206964210000000000000000000000600082015250565b6000615045601583613b93565b91506150508261500f565b602082019050919050565b6000602082019050818103600083015261507481615038565b9050919050565b7f456c656374696f6e20697320616c726561647920646561637469766574656421600082015250565b60006150b1602083613b93565b91506150bc8261507b565b602082019050919050565b600060208201905081810360008301526150e0816150a4565b9050919050565b7f456c656374696f6e206973204465616374697665000000000000000000000000600082015250565b600061511d601483613b93565b9150615128826150e7565b602082019050919050565b6000602082019050818103600083015261514c81615110565b9050919050565b7f4e487b7100000000000000000000000000000000000000000000000000000000600052603260045260246000fd5b7f656c656374696f6e206973206465616374697661746564210000000000000000600082015250565b60006151b8601883613b93565b91506151c382615182565b602082019050919050565b600060208201905081810360008301526151e7816151ab565b9050919050565b7f726567697374726174696f6e20697320616c726561647920616374697661746560008201527f6421000000000000000000000000000000000000000000000000000000000000602082015250565b600061524a602283613b93565b9150615255826151ee565b604082019050919050565b600060208201905081810360008301526152798161523d565b9050919050565b7f566f74696e6720616c7265616479206465616374697661746564400000000000600082015250565b60006152b6601b83613b93565b91506152c182615280565b602082019050919050565b600060208201905081810360008301526152e5816152a9565b9050919050565b7f4e6f7720766f74696e6720706861736520697320446561637469766174656400600082015250565b6000615322601f83613b93565b915061532d826152ec565b602082019050919050565b6000602082019050818103600083015261535181615315565b9050919050565b7f4e6f7720726567697374726174696f6e20706861736520697320416374697665600082015250565b600061538e602083613b93565b915061539982615358565b602082019050919050565b600060208201905081810360008301526153bd81615381565b9050919050565b7f726567697374726174696f6e2069732061637469766521000000000000000000600082015250565b60006153fa601783613b93565b9150615405826153c4565b602082019050919050565b60006020820190508181036000830152615429816153ed565b9050919050565b7f566f74696e6720706861736520697320616c726561647920616374697665746560008201527f6421000000000000000000000000000000000000000000000000000000000000602082015250565b600061548c602283613b93565b915061549782615430565b604082019050919050565b600060208201905081810360008301526154bb8161547f565b9050919050565b7f4d7573742068617665206d6f7265207468616e206f6e652063616e646964617460008201527f6521000000000000000000000000000000000000000000000000000000000000602082015250565b600061551e602283613b93565b9150615529826154c2565b604082019050919050565b6000602082019050818103600083015261554d81615511565b9050919050565b7f4d7573742068617665206d6f7265207468616e206f6e6520766f746572210000600082015250565b600061558a601e83613b93565b915061559582615554565b602082019050919050565b600060208201905081810360008301526155b98161557d565b9050919050565b7f4e6f7720766f74696e6720706861736520697320616374697661746564000000600082015250565b60006155f6601d83613b93565b9150615601826155c0565b602082019050919050565b60006020820190508181036000830152615625816155e9565b9050919050565b7f496e76616c696420656c656374696f6e20496400000000000000000000000000600082015250565b6000615662601383613b93565b915061566d8261562c565b602082019050919050565b6000602082019050818103600083015261569181615655565b9050919050565b7f496e76616c696420656c656374696f6e20696421000000000000000000000000600082015250565b60006156ce601483613b93565b91506156d982615698565b602082019050919050565b600060208201905081810360008301526156fd816156c1565b9050919050565b7f726567697374726174696f6e20697320616c726561647920646561637469766160008201527f7465642100000000000000000000000000000000000000000000000000000000602082015250565b6000615760602483613b93565b915061576b82615704565b604082019050919050565b6000602082019050818103600083015261578f81615753565b9050919050565b7f4e6f7720726567697374726174696f6e2070686173652069732044656163746960008201527f7661746564000000000000000000000000000000000000000000000000000000602082015250565b60006157f2602583613b93565b91506157fd82615796565b604082019050919050565b60006020820190508181036000830152615821816157e5565b9050919050565b7f456c656374696f6e206973204163746976650000000000000000000000000000600082015250565b600061585e601283613b93565b915061586982615828565b602082019050919050565b6000602082019050818103600083015261588d81615851565b9050919050565b7f496e76616c696420656e642074696d6521000000000000000000000000000000600082015250565b60006158ca601183613b93565b91506158d582615894565b602082019050919050565b600060208201905081810360008301526158f9816158bd565b9050919050565b7f53746172742074696d65206d757374206265206265666f726520656e6420746960008201527f6d65000000000000000000000000000000000000000000000000000000000000602082015250565b600061595c602283613b93565b915061596782615900565b604082019050919050565b6000602082019050818103600083015261598b8161594f565b9050919050565b600060608201905081810360008301526159ac8186613bce565b90506159bb602083018561392e565b6159c8604083018461392e565b949350505050565b7f766f74657220697320616c726561647920726567697374657265642100000000600082015250565b6000615a06601c83613b93565b9150615a11826159d0565b602082019050919050565b60006020820190508181036000830152615a35816159f9565b9050919050565b7f526567697374726174696f6e207068617365206973206e6f742061637469766560008201527f2100000000000000000000000000000000000000000000000000000000000000602082015250565b6000615a98602183613b93565b9150615aa382615a3c565b604082019050919050565b60006020820190508181036000830152615ac781615a8b565b9050919050565b7f4e657720766f7465722072656769737465726564000000000000000000000000600082015250565b6000615b04601483613b93565b9150615b0f82615ace565b602082019050919050565b6000604082019050615b2f600083018461392e565b8181036020830152615b4081615af7565b90509291505056fea264697066735822122062b7bc46b31c1ea5e94c018b72337a5b2b66d038d16efc587d0499dc01103ddb64736f6c634300081c0033",
  "linkReferences": {},
  "deployedLinkReferences": {}
}