{
  "_format": "hh-sol-artifact-1",
  "contractName": "Voting",
  "sourceName": "contracts/Voting.sol",
  "abi": [
    {
      "inputs": [],
      "stateMutability": "nonpayable",
      "type": "constructor"
    },
    {
      "anonymous": false,
      "inputs": [
        {
          "indexed": true,
          "internalType": "uint256",
          "name": "electionId",
          "type": "uint256"
        },
        {
          "indexed": false,
          "internalType": "string",
          "name": "message",
          "type": "string"
        }
      ],
      "name": "activeElectionEvent",
      "type": "event"
    },
    {
      "anonymous": false,
      "inputs": [
        {
          "indexed": true,
          "internalType": "uint256",
          "name": "electionId",
          "type": "uint256"
        },
        {
          "indexed": false,
          "internalType": "string",
          "name": "message",
          "type": "string"
        }
      ],
      "name": "activeRegistrationEvent",
      "type": "event"
    },
    {
      "anonymous": false,
      "inputs": [
        {
          "indexed": true,
          "internalType": "uint256",
          "name": "electionId",
          "type": "uint256"
        },
        {
          "indexed": false,
          "internalType": "string",
          "name": "message",
          "type": "string"
        }
      ],
      "name": "activeVotingEvent",
      "type": "event"
    },
    {
      "anonymous": false,
      "inputs": [
        {
          "indexed": false,
          "internalType": "uint256",
          "name": "candidateId",
          "type": "uint256"
        },
        {
          "indexed": false,
          "internalType": "string",
          "name": "message",
          "type": "string"
        }
      ],
      "name": "addCandidateEvent",
      "type": "event"
    },
    {
      "anonymous": false,
      "inputs": [
        {
          "indexed": false,
          "internalType": "uint256",
          "name": "voterId",
          "type": "uint256"
        },
        {
          "indexed": false,
          "internalType": "string",
          "name": "message",
          "type": "string"
        }
      ],
      "name": "castVoteEvent",
      "type": "event"
    },
    {
      "anonymous": false,
      "inputs": [
        {
          "indexed": true,
          "internalType": "uint256",
          "name": "electionId",
          "type": "uint256"
        },
        {
          "indexed": false,
          "internalType": "string",
          "name": "message",
          "type": "string"
        }
      ],
      "name": "completeElectionEvent",
      "type": "event"
    },
    {
      "anonymous": false,
      "inputs": [
        {
          "indexed": true,
          "internalType": "uint256",
          "name": "electionId",
          "type": "uint256"
        },
        {
          "indexed": false,
          "internalType": "string",
          "name": "message",
          "type": "string"
        }
      ],
      "name": "deactiveElectionEvent",
      "type": "event"
    },
    {
      "anonymous": false,
      "inputs": [
        {
          "indexed": true,
          "internalType": "uint256",
          "name": "electionId",
          "type": "uint256"
        },
        {
          "indexed": false,
          "internalType": "string",
          "name": "message",
          "type": "string"
        }
      ],
      "name": "deactiveRegistrationEvent",
      "type": "event"
    },
    {
      "anonymous": false,
      "inputs": [
        {
          "indexed": true,
          "internalType": "uint256",
          "name": "electionId",
          "type": "uint256"
        },
        {
          "indexed": false,
          "internalType": "string",
          "name": "message",
          "type": "string"
        }
      ],
      "name": "deactiveVotingEvent",
      "type": "event"
    },
    {
      "anonymous": false,
      "inputs": [
        {
          "indexed": true,
          "internalType": "uint256",
          "name": "electionId",
          "type": "uint256"
        },
        {
          "indexed": false,
          "internalType": "string",
          "name": "electionName",
          "type": "string"
        },
        {
          "indexed": false,
          "internalType": "uint256",
          "name": "startTime",
          "type": "uint256"
        },
        {
          "indexed": false,
          "internalType": "uint256",
          "name": "endTime",
          "type": "uint256"
        }
      ],
      "name": "electionCreated",
      "type": "event"
    },
    {
      "anonymous": false,
      "inputs": [
        {
          "indexed": true,
          "internalType": "uint256",
          "name": "electionId",
          "type": "uint256"
        },
        {
          "indexed": false,
          "internalType": "string",
          "name": "message",
          "type": "string"
        },
        {
          "indexed": false,
          "internalType": "uint256",
          "name": "winnerId",
          "type": "uint256"
        }
      ],
      "name": "getWinnerEvent",
      "type": "event"
    },
    {
      "anonymous": false,
      "inputs": [
        {
          "indexed": false,
          "internalType": "uint256",
          "name": "voterId",
          "type": "uint256"
        },
        {
          "indexed": false,
          "internalType": "string",
          "name": "message",
          "type": "string"
        }
      ],
      "name": "regVoterEvent",
      "type": "event"
    },
    {
      "inputs": [
        {
          "internalType": "uint256",
          "name": "_electionId",
          "type": "uint256"
        }
      ],
      "name": "activeElection",
      "outputs": [],
      "stateMutability": "nonpayable",
      "type": "function"
    },
    {
      "inputs": [
        {
          "internalType": "uint256",
          "name": "_electionId",
          "type": "uint256"
        }
      ],
      "name": "activeRegistration",
      "outputs": [],
      "stateMutability": "nonpayable",
      "type": "function"
    },
    {
      "inputs": [
        {
          "internalType": "uint256",
          "name": "_electionId",
          "type": "uint256"
        }
      ],
      "name": "activeVoting",
      "outputs": [],
      "stateMutability": "nonpayable",
      "type": "function"
    },
    {
      "inputs": [
        {
          "internalType": "uint256",
          "name": "_electionId",
          "type": "uint256"
        },
        {
          "internalType": "string",
          "name": "_candidateName",
          "type": "string"
        },
        {
          "internalType": "address",
          "name": "_candidateAddress",
          "type": "address"
        }
      ],
      "name": "addCandidate",
      "outputs": [],
      "stateMutability": "nonpayable",
      "type": "function"
    },
    {
      "inputs": [
        {
          "internalType": "uint256",
          "name": "",
          "type": "uint256"
        },
        {
          "internalType": "uint256",
          "name": "",
          "type": "uint256"
        }
      ],
      "name": "candidates",
      "outputs": [
        {
          "internalType": "uint256",
          "name": "candidateId",
          "type": "uint256"
        },
        {
          "internalType": "address",
          "name": "candidateAddress",
          "type": "address"
        },
        {
          "internalType": "string",
          "name": "candidateName",
          "type": "string"
        },
        {
          "internalType": "uint256",
          "name": "electionId",
          "type": "uint256"
        },
        {
          "internalType": "uint256",
          "name": "voteCount",
          "type": "uint256"
        }
      ],
      "stateMutability": "view",
      "type": "function"
    },
    {
      "inputs": [
        {
          "internalType": "uint256",
          "name": "_electionId",
          "type": "uint256"
        },
        {
          "internalType": "uint256",
          "name": "_candidateId",
          "type": "uint256"
        }
      ],
      "name": "castVote",
      "outputs": [],
      "stateMutability": "nonpayable",
      "type": "function"
    },
    {
      "inputs": [
        {
          "internalType": "uint256",
          "name": "_electionId",
          "type": "uint256"
        }
      ],
      "name": "completeElection",
      "outputs": [],
      "stateMutability": "nonpayable",
      "type": "function"
    },
    {
      "inputs": [
        {
          "internalType": "string",
          "name": "_electionName",
          "type": "string"
        },
        {
          "internalType": "uint256",
          "name": "_startTime",
          "type": "uint256"
        },
        {
          "internalType": "uint256",
          "name": "_endTime",
          "type": "uint256"
        }
      ],
      "name": "createElection",
      "outputs": [],
      "stateMutability": "nonpayable",
      "type": "function"
    },
    {
      "inputs": [
        {
          "internalType": "uint256",
          "name": "_electionId",
          "type": "uint256"
        }
      ],
      "name": "deactiveElection",
      "outputs": [],
      "stateMutability": "nonpayable",
      "type": "function"
    },
    {
      "inputs": [
        {
          "internalType": "uint256",
          "name": "_electionId",
          "type": "uint256"
        }
      ],
      "name": "deactiveRegistration",
      "outputs": [],
      "stateMutability": "nonpayable",
      "type": "function"
    },
    {
      "inputs": [
        {
          "internalType": "uint256",
          "name": "_electionId",
          "type": "uint256"
        }
      ],
      "name": "deactiveVoting",
      "outputs": [],
      "stateMutability": "nonpayable",
      "type": "function"
    },
    {
      "inputs": [
        {
          "internalType": "uint256",
          "name": "",
          "type": "uint256"
        }
      ],
      "name": "elections",
      "outputs": [
        {
          "internalType": "uint256",
          "name": "electionId",
          "type": "uint256"
        },
        {
          "internalType": "string",
          "name": "electionName",
          "type": "string"
        },
        {
          "internalType": "bool",
          "name": "isActive",
          "type": "bool"
        },
        {
          "internalType": "uint256",
          "name": "startTime",
          "type": "uint256"
        },
        {
          "internalType": "uint256",
          "name": "endTime",
          "type": "uint256"
        },
        {
          "internalType": "uint256",
          "name": "totalCandidates",
          "type": "uint256"
        },
        {
          "internalType": "uint256",
          "name": "totalVoters",
          "type": "uint256"
        },
        {
          "internalType": "uint256",
          "name": "totalVotes",
          "type": "uint256"
        },
        {
          "internalType": "uint256",
          "name": "winnerId",
          "type": "uint256"
        },
        {
          "internalType": "bool",
          "name": "registrationPhase",
          "type": "bool"
        },
        {
          "internalType": "bool",
          "name": "votingPhase",
          "type": "bool"
        },
        {
          "internalType": "bool",
          "name": "isCompleted",
          "type": "bool"
        }
      ],
      "stateMutability": "view",
      "type": "function"
    },
    {
      "inputs": [
        {
          "internalType": "uint256",
          "name": "_electionId",
          "type": "uint256"
        }
      ],
      "name": "getAllCandidates",
      "outputs": [
        {
          "components": [
            {
              "internalType": "uint256",
              "name": "candidateId",
              "type": "uint256"
            },
            {
              "internalType": "address",
              "name": "candidateAddress",
              "type": "address"
            },
            {
              "internalType": "string",
              "name": "candidateName",
              "type": "string"
            },
            {
              "internalType": "uint256",
              "name": "electionId",
              "type": "uint256"
            },
            {
              "internalType": "uint256",
              "name": "voteCount",
              "type": "uint256"
            }
          ],
          "internalType": "struct Voting.Candidate[]",
          "name": "",
          "type": "tuple[]"
        }
      ],
      "stateMutability": "view",
      "type": "function"
    },
    {
      "inputs": [],
      "name": "getAllElections",
      "outputs": [
        {
          "components": [
            {
              "internalType": "uint256",
              "name": "electionId",
              "type": "uint256"
            },
            {
              "internalType": "string",
              "name": "electionName",
              "type": "string"
            },
            {
              "internalType": "bool",
              "name": "isActive",
              "type": "bool"
            },
            {
              "internalType": "uint256",
              "name": "startTime",
              "type": "uint256"
            },
            {
              "internalType": "uint256",
              "name": "endTime",
              "type": "uint256"
            },
            {
              "internalType": "uint256",
              "name": "totalCandidates",
              "type": "uint256"
            },
            {
              "internalType": "uint256",
              "name": "totalVoters",
              "type": "uint256"
            },
            {
              "internalType": "uint256",
              "name": "totalVotes",
              "type": "uint256"
            },
            {
              "internalType": "uint256",
              "name": "winnerId",
              "type": "uint256"
            },
            {
              "internalType": "bool",
              "name": "registrationPhase",
              "type": "bool"
            },
            {
              "internalType": "bool",
              "name": "votingPhase",
              "type": "bool"
            },
            {
              "internalType": "bool",
              "name": "isCompleted",
              "type": "bool"
            }
          ],
          "internalType": "struct Voting.Election[]",
          "name": "",
          "type": "tuple[]"
        }
      ],
      "stateMutability": "view",
      "type": "function"
    },
    {
      "inputs": [],
      "name": "getBlockTimestamp",
      "outputs": [
        {
          "internalType": "uint256",
          "name": "",
          "type": "uint256"
        }
      ],
      "stateMutability": "view",
      "type": "function"
    },
    {
      "inputs": [
        {
          "internalType": "uint256",
          "name": "_electionId",
          "type": "uint256"
        },
        {
          "internalType": "uint256",
          "name": "_candidateId",
          "type": "uint256"
        }
      ],
      "name": "getCandidate",
      "outputs": [
        {
          "internalType": "uint256",
          "name": "candidateId",
          "type": "uint256"
        },
        {
          "internalType": "address",
          "name": "candidateAddress",
          "type": "address"
        },
        {
          "internalType": "string",
          "name": "candidateName",
          "type": "string"
        },
        {
          "internalType": "uint256",
          "name": "electionId",
          "type": "uint256"
        },
        {
          "internalType": "uint256",
          "name": "voteCount",
          "type": "uint256"
        }
      ],
      "stateMutability": "view",
      "type": "function"
    },
    {
      "inputs": [
        {
          "internalType": "uint256",
          "name": "_electionId",
          "type": "uint256"
        }
      ],
      "name": "getElection",
      "outputs": [
        {
          "internalType": "uint256",
          "name": "electionId",
          "type": "uint256"
        },
        {
          "internalType": "string",
          "name": "electionName",
          "type": "string"
        },
        {
          "internalType": "bool",
          "name": "isActive",
          "type": "bool"
        },
        {
          "internalType": "uint256",
          "name": "startTime",
          "type": "uint256"
        },
        {
          "internalType": "uint256",
          "name": "endTime",
          "type": "uint256"
        },
        {
          "internalType": "uint256",
          "name": "totalCandidates",
          "type": "uint256"
        },
        {
          "internalType": "uint256",
          "name": "totalVoters",
          "type": "uint256"
        },
        {
          "internalType": "uint256",
          "name": "totalVotes",
          "type": "uint256"
        },
        {
          "internalType": "uint256",
          "name": "winnerId",
          "type": "uint256"
        },
        {
          "internalType": "bool",
          "name": "isCompleted",
          "type": "bool"
        }
      ],
      "stateMutability": "view",
      "type": "function"
    },
    {
      "inputs": [],
      "name": "getOwner",
      "outputs": [
        {
          "internalType": "address",
          "name": "",
          "type": "address"
        }
      ],
      "stateMutability": "view",
      "type": "function"
    },
    {
      "inputs": [
        {
          "internalType": "uint256",
          "name": "_electionId",
          "type": "uint256"
        },
        {
          "internalType": "address",
          "name": "_voterAddress",
          "type": "address"
        }
      ],
      "name": "getVoter",
      "outputs": [
        {
          "internalType": "uint256",
          "name": "voterId",
          "type": "uint256"
        },
        {
          "internalType": "string",
          "name": "voterName",
          "type": "string"
        },
        {
          "internalType": "address",
          "name": "voterAddress",
          "type": "address"
        },
        {
          "internalType": "uint256",
          "name": "electionId",
          "type": "uint256"
        },
        {
          "internalType": "uint256",
          "name": "candidateId",
          "type": "uint256"
        },
        {
          "internalType": "bool",
          "name": "isVoted",
          "type": "bool"
        }
      ],
      "stateMutability": "view",
      "type": "function"
    },
    {
      "inputs": [
        {
          "internalType": "uint256",
          "name": "_electionId",
          "type": "uint256"
        }
      ],
      "name": "getWinner",
      "outputs": [
        {
          "internalType": "uint256",
          "name": "",
          "type": "uint256"
        },
        {
          "internalType": "uint256",
          "name": "",
          "type": "uint256"
        }
      ],
      "stateMutability": "nonpayable",
      "type": "function"
    },
    {
      "inputs": [
        {
          "internalType": "uint256",
          "name": "",
          "type": "uint256"
        },
        {
          "internalType": "address",
          "name": "",
          "type": "address"
        }
      ],
      "name": "isCandidateRegistered",
      "outputs": [
        {
          "internalType": "bool",
          "name": "",
          "type": "bool"
        }
      ],
      "stateMutability": "view",
      "type": "function"
    },
    {
      "inputs": [
        {
          "internalType": "string",
          "name": "_voterName",
          "type": "string"
        },
        {
          "internalType": "uint256",
          "name": "_electionId",
          "type": "uint256"
        },
        {
          "internalType": "uint256",
          "name": "_candidateId",
          "type": "uint256"
        }
      ],
      "name": "regVoter",
      "outputs": [],
      "stateMutability": "nonpayable",
      "type": "function"
    },
    {
      "inputs": [
        {
          "internalType": "uint256",
          "name": "",
          "type": "uint256"
        },
        {
          "internalType": "address",
          "name": "",
          "type": "address"
        }
      ],
      "name": "voters",
      "outputs": [
        {
          "internalType": "uint256",
          "name": "voterId",
          "type": "uint256"
        },
        {
          "internalType": "string",
          "name": "voterName",
          "type": "string"
        },
        {
          "internalType": "address",
          "name": "voterAddress",
          "type": "address"
        },
        {
          "internalType": "uint256",
          "name": "electionId",
          "type": "uint256"
        },
        {
          "internalType": "uint256",
          "name": "candidateId",
          "type": "uint256"
        },
        {
          "internalType": "bool",
          "name": "isVoted",
          "type": "bool"
        },
        {
          "internalType": "bool",
          "name": "isRegistered",
          "type": "bool"
        }
      ],
      "stateMutability": "view",
      "type": "function"
    }
  ],
  "bytecode": "0x60a060405234801561001057600080fd5b503373ffffffffffffffffffffffffffffffffffffffff1660808173ffffffffffffffffffffffffffffffffffffffff16815250506080516159126100a660003960008181610e31015281816110ea015281816115270152818161193801528181611f3d0152818161219d01528181612386015281816123c301528181612cbf01528181612ebc01526130bb01526159126000f3fe608060405234801561001057600080fd5b506004361061014d5760003560e01c806381c430ef116100c35780639e3190631161007c5780639e319063146103ce578063e1fc52af14610404578063e39b28ef14610434578063e9dbf4a614610450578063f49a7a171461046c578063f9ded646146104885761014d565b806381c430ef146102ee5780638885a4131461030a578063893d20e8146103265780638e292d08146103445780638f47b146146103605780639d710777146103955761014d565b80634bd46448116101155780634bd46448146101f35780635cffe51a146102275780635e6fef0114610243578063796b89b91461027e5780637de142421461029c5780637fd5f268146102d05761014d565b80632c0a3f891461015257806339ff79f41461016e5780634129b2c91461018a57806341403d30146101bb5780634840042c146101d7575b600080fd5b61016c600480360381019061016791906136d8565b6104b8565b005b6101886004803603810190610183919061385e565b6109fa565b005b6101a4600480360381019061019f91906138cd565b610e15565b6040516101b2929190613909565b60405180910390f35b6101d560048036038101906101d09190613990565b6110d1565b005b6101f160048036038101906101ec91906138cd565b61150e565b005b61020d600480360381019061020891906136d8565b61170e565b60405161021e959493929190613a8d565b60405180910390f35b610241600480360381019061023c91906138cd565b61191f565b005b61025d600480360381019061025891906138cd565b611b17565b6040516102759c9b9a99989796959493929190613b02565b60405180910390f35b610286611c33565b6040516102939190613bc3565b60405180910390f35b6102b660048036038101906102b191906136d8565b611c3b565b6040516102c7959493929190613a8d565b60405180910390f35b6102d8611d26565b6040516102e59190613e0c565b60405180910390f35b610308600480360381019061030391906138cd565b611f24565b005b610324600480360381019061031f91906138cd565b612184565b005b61032e612382565b60405161033b9190613e2e565b60405180910390f35b61035e600480360381019061035991906138cd565b6123aa565b005b61037a60048036038101906103759190613e49565b6126bb565b60405161038c96959493929190613e89565b60405180910390f35b6103af60048036038101906103aa91906138cd565b612956565b6040516103c59a99989796959493929190613ef1565b60405180910390f35b6103e860048036038101906103e39190613e49565b612b66565b6040516103fb9796959493929190613f94565b60405180910390f35b61041e60048036038101906104199190613e49565b612c77565b60405161042b919061400a565b60405180910390f35b61044e600480360381019061044991906138cd565b612ca6565b005b61046a600480360381019061046591906138cd565b612ea3565b005b6104866004803603810190610481919061385e565b6130a2565b005b6104a2600480360381019061049d91906138cd565b6133b2565b6040516104af919061416c565b60405180910390f35b6003600083815260200190815260200160002060003373ffffffffffffffffffffffffffffffffffffffff1673ffffffffffffffffffffffffffffffffffffffff16815260200190815260200160002060050160019054906101000a900460ff16610558576040517f08c379a000000000000000000000000000000000000000000000000000000000815260040161054f906141da565b60405180910390fd5b600080600084815260200190815260200160002060050154905060045483106105b6576040517f08c379a00000000000000000000000000000000000000000000000000000000081526004016105ad90614246565b60405180910390fd5b8082106105f8576040517f08c379a00000000000000000000000000000000000000000000000000000000081526004016105ef906142b2565b60405180910390fd5b6003600084815260200190815260200160002060003373ffffffffffffffffffffffffffffffffffffffff1673ffffffffffffffffffffffffffffffffffffffff16815260200190815260200160002060050160009054906101000a900460ff1615610699576040517f08c379a000000000000000000000000000000000000000000000000000000000815260040161069090614344565b60405180910390fd5b60008084815260200190815260200160002060020160009054906101000a900460ff166106fb576040517f08c379a00000000000000000000000000000000000000000000000000000000081526004016106f2906143b0565b60405180910390fd5b60008084815260200190815260200160002060090160019054906101000a900460ff1661075d576040517f08c379a00000000000000000000000000000000000000000000000000000000081526004016107549061441c565b60405180910390fd5b4260008085815260200190815260200160002060030154111580156107975750426000808581526020019081526020016000206004015410155b6107d6576040517f08c379a00000000000000000000000000000000000000000000000000000000081526004016107cd90614488565b60405180910390fd5b82600160008581526020019081526020016000206000848152602001908152602001600020600301541461083f576040517f08c379a0000000000000000000000000000000000000000000000000000000008152600401610836906144f4565b60405180910390fd5b816003600085815260200190815260200160002060003373ffffffffffffffffffffffffffffffffffffffff1673ffffffffffffffffffffffffffffffffffffffff1681526020019081526020016000206004018190555060016003600085815260200190815260200160002060003373ffffffffffffffffffffffffffffffffffffffff1673ffffffffffffffffffffffffffffffffffffffff16815260200190815260200160002060050160006101000a81548160ff021916908315150217905550600080848152602001908152602001600020600701600081548092919061092990614543565b9190505550600160008481526020019081526020016000206000838152602001908152602001600020600401600081548092919061096690614543565b91905055507f5533d5d8a59c8c6fc73fec643bde2a80d5249359048ce5ad8268999b467c9b646003600085815260200190815260200160002060003373ffffffffffffffffffffffffffffffffffffffff1673ffffffffffffffffffffffffffffffffffffffff168152602001908152602001600020600001546040516109ed91906145d7565b60405180910390a1505050565b826000815111610a3f576040517f08c379a0000000000000000000000000000000000000000000000000000000008152600401610a3690614651565b60405180910390fd5b60008060008581526020019081526020016000206005015490506003600085815260200190815260200160002060003373ffffffffffffffffffffffffffffffffffffffff1673ffffffffffffffffffffffffffffffffffffffff16815260200190815260200160002060050160019054906101000a900460ff1615610afa576040517f08c379a0000000000000000000000000000000000000000000000000000000008152600401610af1906146bd565b60405180910390fd5b60008060008681526020019081526020016000206006016000815480929190610b2290614543565b9190505590506004548510610b6c576040517f08c379a0000000000000000000000000000000000000000000000000000000008152600401610b6390614246565b60405180910390fd5b818410610bae576040517f08c379a0000000000000000000000000000000000000000000000000000000008152600401610ba5906142b2565b60405180910390fd5b600081905060008087815260200190815260200160002060020160009054906101000a900460ff16610c15576040517f08c379a0000000000000000000000000000000000000000000000000000000008152600401610c0c906143b0565b60405180910390fd5b60008087815260200190815260200160002060090160009054906101000a900460ff16610c77576040517f08c379a0000000000000000000000000000000000000000000000000000000008152600401610c6e9061474f565b60405180910390fd5b6040518060e001604052808281526020018881526020013373ffffffffffffffffffffffffffffffffffffffff16815260200187815260200160008152602001600015158152602001600115158152506003600088815260200190815260200160002060003373ffffffffffffffffffffffffffffffffffffffff1673ffffffffffffffffffffffffffffffffffffffff168152602001908152602001600020600082015181600001556020820151816001019081610d36919061497b565b5060408201518160020160006101000a81548173ffffffffffffffffffffffffffffffffffffffff021916908373ffffffffffffffffffffffffffffffffffffffff160217905550606082015181600301556080820151816004015560a08201518160050160006101000a81548160ff02191690831515021790555060c08201518160050160016101000a81548160ff0219169083151502179055509050507f0299d59c31dcf661049385a2c4b98ab6db3dede0f39be5fa6a4c5a9f0bd880d081604051610e049190614a99565b60405180910390a150505050505050565b6000803373ffffffffffffffffffffffffffffffffffffffff167f000000000000000000000000000000000000000000000000000000000000000073ffffffffffffffffffffffffffffffffffffffff1614610ea6576040517f08c379a0000000000000000000000000000000000000000000000000000000008152600401610e9d90614b13565b60405180910390fd5b6004548310610eea576040517f08c379a0000000000000000000000000000000000000000000000000000000008152600401610ee190614b7f565b60405180910390fd5b60008084815260200190815260200160002060090160029054906101000a900460ff16610f4c576040517f08c379a0000000000000000000000000000000000000000000000000000000008152600401610f4390614beb565b60405180910390fd5b60008084815260200190815260200160002060020160009054906101000a900460ff1615610faf576040517f08c379a0000000000000000000000000000000000000000000000000000000008152600401610fa690614c57565b60405180910390fd5b600080600085815260200190815260200160002060050154905060008060005b83811015611070578660016000898152602001908152602001600020600083815260200190815260200160002060030154036110635760016000888152602001908152602001600020600082815260200190815260200160002060040154831015611062576001600088815260200190815260200160002060008281526020019081526020016000206004015492508091505b5b8080600101915050610fcf565b508060008088815260200190815260200160002060080181905550857feb860cb3b9047fed9f8079266ddfd7a11e3149f4bcf11fc3d8f373b04c617717826040516110bb9190614cc3565b60405180910390a2818194509450505050915091565b3373ffffffffffffffffffffffffffffffffffffffff167f000000000000000000000000000000000000000000000000000000000000000073ffffffffffffffffffffffffffffffffffffffff161461115f576040517f08c379a000000000000000000000000000000000000000000000000000000000815260040161115690614b13565b60405180910390fd5b8160008151116111a4576040517f08c379a000000000000000000000000000000000000000000000000000000000815260040161119b90614651565b60405180910390fd5b81600073ffffffffffffffffffffffffffffffffffffffff168173ffffffffffffffffffffffffffffffffffffffff1603611214576040517f08c379a000000000000000000000000000000000000000000000000000000000815260040161120b90614651565b60405180910390fd5b6004548510611258576040517f08c379a000000000000000000000000000000000000000000000000000000000815260040161124f90614b7f565b60405180910390fd5b6002600086815260200190815260200160002060008473ffffffffffffffffffffffffffffffffffffffff1673ffffffffffffffffffffffffffffffffffffffff16815260200190815260200160002060009054906101000a900460ff16156112f6576040517f08c379a00000000000000000000000000000000000000000000000000000000081526004016112ed90614d3d565b60405180910390fd5b60008086815260200190815260200160002060090160009054906101000a900460ff16611358576040517f08c379a000000000000000000000000000000000000000000000000000000000815260040161134f90614da9565b60405180910390fd5b6000806000878152602001908152602001600020600501600081548092919061138090614543565b9190505590506040518060a001604052808281526020018573ffffffffffffffffffffffffffffffffffffffff16815260200186815260200187815260200160008152506001600088815260200190815260200160002060008381526020019081526020016000206000820151816000015560208201518160010160006101000a81548173ffffffffffffffffffffffffffffffffffffffff021916908373ffffffffffffffffffffffffffffffffffffffff160217905550604082015181600201908161144e919061497b565b50606082015181600301556080820151816004015590505060016002600088815260200190815260200160002060008673ffffffffffffffffffffffffffffffffffffffff1673ffffffffffffffffffffffffffffffffffffffff16815260200190815260200160002060006101000a81548160ff0219169083151502179055507f66b1543f5ce2008daad22e7d34bf4fe6171c5f3a1df8a5dd7f16b919b62a65bf816040516114fe9190614e15565b60405180910390a1505050505050565b3373ffffffffffffffffffffffffffffffffffffffff167f000000000000000000000000000000000000000000000000000000000000000073ffffffffffffffffffffffffffffffffffffffff161461159c576040517f08c379a000000000000000000000000000000000000000000000000000000000815260040161159390614b13565b60405180910390fd5b6004548111156115e1576040517f08c379a00000000000000000000000000000000000000000000000000000000081526004016115d890614b7f565b60405180910390fd5b60008082815260200190815260200160002060020160009054906101000a900460ff1615611644576040517f08c379a000000000000000000000000000000000000000000000000000000000815260040161163b90614c57565b60405180910390fd5b60008082815260200190815260200160002060090160029054906101000a900460ff16156116a7576040517f08c379a000000000000000000000000000000000000000000000000000000000815260040161169e90614e8f565b60405180910390fd5b600160008083815260200190815260200160002060090160026101000a81548160ff021916908315150217905550807f4bf7e25c24d8d2e2b68c740e5971c960ea45ff3b301ad2b468c196bf9ed4f6a960405161170390614efb565b60405180910390a250565b600080606060008060008060008981526020019081526020016000206005015490506004548810611774576040517f08c379a000000000000000000000000000000000000000000000000000000000815260040161176b90614f67565b60405180910390fd5b808711156117b7576040517f08c379a00000000000000000000000000000000000000000000000000000000081526004016117ae90614f67565b60405180910390fd5b6000600160008a815260200190815260200160002060008981526020019081526020016000206040518060a0016040529081600082015481526020016001820160009054906101000a900473ffffffffffffffffffffffffffffffffffffffff1673ffffffffffffffffffffffffffffffffffffffff1673ffffffffffffffffffffffffffffffffffffffff1681526020016002820180546118589061479e565b80601f01602080910402602001604051908101604052809291908181526020018280546118849061479e565b80156118d15780601f106118a6576101008083540402835291602001916118d1565b820191906000526020600020905b8154815290600101906020018083116118b457829003601f168201915b50505050508152602001600382015481526020016004820154815250509050806000015181602001518260400151836060015184608001519650965096509650965050509295509295909350565b3373ffffffffffffffffffffffffffffffffffffffff167f000000000000000000000000000000000000000000000000000000000000000073ffffffffffffffffffffffffffffffffffffffff16146119ad576040517f08c379a00000000000000000000000000000000000000000000000000000000081526004016119a490614b13565b60405180910390fd5b6004548111156119f2576040517f08c379a00000000000000000000000000000000000000000000000000000000081526004016119e990614b7f565b60405180910390fd5b60008082815260200190815260200160002060020160009054906101000a900460ff16611a54576040517f08c379a0000000000000000000000000000000000000000000000000000000008152600401611a4b90614fd3565b60405180910390fd5b600080600083815260200190815260200160002060020160006101000a81548160ff021916908315150217905550600080600083815260200190815260200160002060090160006101000a81548160ff021916908315150217905550600080600083815260200190815260200160002060090160016101000a81548160ff021916908315150217905550807f805afb8e19e9e9e9103701927b3dcdf7c55c49171ac9ff29ac697ef28509f2a4604051611b0c9061503f565b60405180910390a250565b6000602052806000526040600020600091509050806000015490806001018054611b409061479e565b80601f0160208091040260200160405190810160405280929190818152602001828054611b6c9061479e565b8015611bb95780601f10611b8e57610100808354040283529160200191611bb9565b820191906000526020600020905b815481529060010190602001808311611b9c57829003601f168201915b5050505050908060020160009054906101000a900460ff16908060030154908060040154908060050154908060060154908060070154908060080154908060090160009054906101000a900460ff16908060090160019054906101000a900460ff16908060090160029054906101000a900460ff1690508c565b600042905090565b6001602052816000526040600020602052806000526040600020600091509150508060000154908060010160009054906101000a900473ffffffffffffffffffffffffffffffffffffffff1690806002018054611c979061479e565b80601f0160208091040260200160405190810160405280929190818152602001828054611cc39061479e565b8015611d105780601f10611ce557610100808354040283529160200191611d10565b820191906000526020600020905b815481529060010190602001808311611cf357829003601f168201915b5050505050908060030154908060040154905085565b6060600060045467ffffffffffffffff811115611d4657611d45613733565b5b604051908082528060200260200182016040528015611d7f57816020015b611d6c6135e0565b815260200190600190039081611d645790505b50905060005b600454811015611f1c576000808281526020019081526020016000206040518061018001604052908160008201548152602001600182018054611dc79061479e565b80601f0160208091040260200160405190810160405280929190818152602001828054611df39061479e565b8015611e405780601f10611e1557610100808354040283529160200191611e40565b820191906000526020600020905b815481529060010190602001808311611e2357829003601f168201915b505050505081526020016002820160009054906101000a900460ff161515151581526020016003820154815260200160048201548152602001600582015481526020016006820154815260200160078201548152602001600882015481526020016009820160009054906101000a900460ff161515151581526020016009820160019054906101000a900460ff161515151581526020016009820160029054906101000a900460ff161515151581525050828281518110611f0457611f0361505f565b5b60200260200101819052508080600101915050611d85565b508091505090565b3373ffffffffffffffffffffffffffffffffffffffff167f000000000000000000000000000000000000000000000000000000000000000073ffffffffffffffffffffffffffffffffffffffff1614611fb2576040517f08c379a0000000000000000000000000000000000000000000000000000000008152600401611fa990614b13565b60405180910390fd5b6004548110611ff6576040517f08c379a0000000000000000000000000000000000000000000000000000000008152600401611fed90614b7f565b60405180910390fd5b60008082815260200190815260200160002060020160009054906101000a900460ff16612058576040517f08c379a000000000000000000000000000000000000000000000000000000000815260040161204f906150da565b60405180910390fd5b60008082815260200190815260200160002060090160009054906101000a900460ff16156120bb576040517f08c379a00000000000000000000000000000000000000000000000000000000081526004016120b29061516c565b60405180910390fd5b60008082815260200190815260200160002060090160019054906101000a900460ff1661211d576040517f08c379a0000000000000000000000000000000000000000000000000000000008152600401612114906151d8565b60405180910390fd5b600080600083815260200190815260200160002060090160016101000a81548160ff021916908315150217905550807f32aacc61c7893eeb621b0291b1e1f38a3edab51ef00280d7277400adda6bdbd260405161217990615244565b60405180910390a250565b3373ffffffffffffffffffffffffffffffffffffffff167f000000000000000000000000000000000000000000000000000000000000000073ffffffffffffffffffffffffffffffffffffffff1614612212576040517f08c379a000000000000000000000000000000000000000000000000000000000815260040161220990614b13565b60405180910390fd5b6004548110612256576040517f08c379a000000000000000000000000000000000000000000000000000000000815260040161224d90614b7f565b60405180910390fd5b60008082815260200190815260200160002060020160009054906101000a900460ff166122b8576040517f08c379a00000000000000000000000000000000000000000000000000000000081526004016122af906150da565b60405180910390fd5b60008082815260200190815260200160002060090160009054906101000a900460ff161561231b576040517f08c379a00000000000000000000000000000000000000000000000000000000081526004016123129061516c565b60405180910390fd5b600160008083815260200190815260200160002060090160006101000a81548160ff021916908315150217905550807f812be57ff3aad52a34fd221061d1eb22acd3a8264d8fcb1b749ffe5a46f99e00604051612377906152b0565b60405180910390a250565b60007f0000000000000000000000000000000000000000000000000000000000000000905090565b3373ffffffffffffffffffffffffffffffffffffffff167f000000000000000000000000000000000000000000000000000000000000000073ffffffffffffffffffffffffffffffffffffffff1614612438576040517f08c379a000000000000000000000000000000000000000000000000000000000815260040161242f90614b13565b60405180910390fd5b600454811061247c576040517f08c379a000000000000000000000000000000000000000000000000000000000815260040161247390614b7f565b60405180910390fd5b60008082815260200190815260200160002060020160009054906101000a900460ff166124de576040517f08c379a00000000000000000000000000000000000000000000000000000000081526004016124d5906150da565b60405180910390fd5b60008082815260200190815260200160002060090160009054906101000a900460ff1615612541576040517f08c379a00000000000000000000000000000000000000000000000000000000081526004016125389061531c565b60405180910390fd5b60008082815260200190815260200160002060090160019054906101000a900460ff16156125a4576040517f08c379a000000000000000000000000000000000000000000000000000000000815260040161259b906153ae565b60405180910390fd5b600160008083815260200190815260200160002060050154116125fc576040517f08c379a00000000000000000000000000000000000000000000000000000000081526004016125f390615440565b60405180910390fd5b60016000808381526020019081526020016000206006015411612654576040517f08c379a000000000000000000000000000000000000000000000000000000000815260040161264b906154ac565b60405180910390fd5b600160008083815260200190815260200160002060090160016101000a81548160ff021916908315150217905550807f9d40f798047b16879455bd5998cb8c300e47ac7db6a9e63670e0f761914343df6040516126b090615518565b60405180910390a250565b600060606000806000808760008111612709576040517f08c379a000000000000000000000000000000000000000000000000000000000815260040161270090614651565b60405180910390fd5b600454891061274d576040517f08c379a000000000000000000000000000000000000000000000000000000000815260040161274490615584565b60405180910390fd5b600073ffffffffffffffffffffffffffffffffffffffff168873ffffffffffffffffffffffffffffffffffffffff1603612785573397505b6000600360008b815260200190815260200160002060008a73ffffffffffffffffffffffffffffffffffffffff1673ffffffffffffffffffffffffffffffffffffffff1681526020019081526020016000206040518060e0016040529081600082015481526020016001820180546127fc9061479e565b80601f01602080910402602001604051908101604052809291908181526020018280546128289061479e565b80156128755780601f1061284a57610100808354040283529160200191612875565b820191906000526020600020905b81548152906001019060200180831161285857829003601f168201915b505050505081526020016002820160009054906101000a900473ffffffffffffffffffffffffffffffffffffffff1673ffffffffffffffffffffffffffffffffffffffff1673ffffffffffffffffffffffffffffffffffffffff16815260200160038201548152602001600482015481526020016005820160009054906101000a900460ff161515151581526020016005820160019054906101000a900460ff1615151515815250509050806000015181602001518260400151836060015184608001518560a0015197509750975097509750975050509295509295509295565b600060606000806000806000806000806004548b106129aa576040517f08c379a00000000000000000000000000000000000000000000000000000000081526004016129a1906155f0565b60405180910390fd5b60008060008d815260200190815260200160002060405180610180016040529081600082015481526020016001820180546129e49061479e565b80601f0160208091040260200160405190810160405280929190818152602001828054612a109061479e565b8015612a5d5780601f10612a3257610100808354040283529160200191612a5d565b820191906000526020600020905b815481529060010190602001808311612a4057829003601f168201915b505050505081526020016002820160009054906101000a900460ff161515151581526020016003820154815260200160048201548152602001600582015481526020016006820154815260200160078201548152602001600882015481526020016009820160009054906101000a900460ff161515151581526020016009820160019054906101000a900460ff161515151581526020016009820160029054906101000a900460ff1615151515815250509050806000015181602001518260400151836060015184608001518560a001518660c001518760e001518861010001518961016001519a509a509a509a509a509a509a509a509a509a50509193959799509193959799565b600360205281600052604060002060205280600052604060002060009150915050806000015490806001018054612b9c9061479e565b80601f0160208091040260200160405190810160405280929190818152602001828054612bc89061479e565b8015612c155780601f10612bea57610100808354040283529160200191612c15565b820191906000526020600020905b815481529060010190602001808311612bf857829003601f168201915b5050505050908060020160009054906101000a900473ffffffffffffffffffffffffffffffffffffffff16908060030154908060040154908060050160009054906101000a900460ff16908060050160019054906101000a900460ff16905087565b60026020528160005260406000206020528060005260406000206000915091509054906101000a900460ff1681565b3373ffffffffffffffffffffffffffffffffffffffff167f000000000000000000000000000000000000000000000000000000000000000073ffffffffffffffffffffffffffffffffffffffff1614612d34576040517f08c379a0000000000000000000000000000000000000000000000000000000008152600401612d2b90614b13565b60405180910390fd5b6004548110612d78576040517f08c379a0000000000000000000000000000000000000000000000000000000008152600401612d6f90614b7f565b60405180910390fd5b60008082815260200190815260200160002060020160009054906101000a900460ff16612dda576040517f08c379a0000000000000000000000000000000000000000000000000000000008152600401612dd1906150da565b60405180910390fd5b60008082815260200190815260200160002060090160009054906101000a900460ff16612e3c576040517f08c379a0000000000000000000000000000000000000000000000000000000008152600401612e3390615682565b60405180910390fd5b600080600083815260200190815260200160002060090160006101000a81548160ff021916908315150217905550807f4db4bca33ffad2e48e831544e9b62894cd345ee0b0322f48a24d949ec7d4741e604051612e9890615714565b60405180910390a250565b3373ffffffffffffffffffffffffffffffffffffffff167f000000000000000000000000000000000000000000000000000000000000000073ffffffffffffffffffffffffffffffffffffffff1614612f31576040517f08c379a0000000000000000000000000000000000000000000000000000000008152600401612f2890614b13565b60405180910390fd5b6004548110612f75576040517f08c379a0000000000000000000000000000000000000000000000000000000008152600401612f6c90614b7f565b60405180910390fd5b60008082815260200190815260200160002060090160029054906101000a900460ff1615612fd8576040517f08c379a0000000000000000000000000000000000000000000000000000000008152600401612fcf90614e8f565b60405180910390fd5b60008082815260200190815260200160002060020160009054906101000a900460ff161561303b576040517f08c379a000000000000000000000000000000000000000000000000000000000815260040161303290614c57565b60405180910390fd5b600160008083815260200190815260200160002060020160006101000a81548160ff021916908315150217905550807f5cc0095233d950906740f494e45969f5276be13b20a90cf897b3c1b2c9e8e8d960405161309790615780565b60405180910390a250565b3373ffffffffffffffffffffffffffffffffffffffff167f000000000000000000000000000000000000000000000000000000000000000073ffffffffffffffffffffffffffffffffffffffff1614613130576040517f08c379a000000000000000000000000000000000000000000000000000000000815260040161312790614b13565b60405180910390fd5b826000815111613175576040517f08c379a000000000000000000000000000000000000000000000000000000000815260040161316c90614651565b60405180910390fd5b814211156131b8576040517f08c379a00000000000000000000000000000000000000000000000000000000081526004016131af906157ec565b60405180910390fd5b818311156131fb576040517f08c379a00000000000000000000000000000000000000000000000000000000081526004016131f29061587e565b60405180910390fd5b604051806101800160405280600454815260200185815260200160001515815260200184815260200183815260200160008152602001600081526020016000815260200160008152602001600015158152602001600015158152602001600015158152506000806004548152602001908152602001600020600082015181600001556020820151816001019081613292919061497b565b5060408201518160020160006101000a81548160ff021916908315150217905550606082015181600301556080820151816004015560a0820151816005015560c0820151816006015560e0820151816007015561010082015181600801556101208201518160090160006101000a81548160ff0219169083151502179055506101408201518160090160016101000a81548160ff0219169083151502179055506101608201518160090160026101000a81548160ff0219169083151502179055509050506004547f2e9b8dc915d5de229b12468c2f0ca7bfd1c46d1cea8e78d6debb1dcfa5a1459f85858560405161338c9392919061589e565b60405180910390a2600460008154809291906133a790614543565b919050555050505050565b606060045482106133f8576040517f08c379a00000000000000000000000000000000000000000000000000000000081526004016133ef906155f0565b60405180910390fd5b600080600084815260200190815260200160002060050154905060008167ffffffffffffffff81111561342e5761342d613733565b5b60405190808252806020026020018201604052801561346757816020015b613454613649565b81526020019060019003908161344c5790505b50905060005b828110156135d5576001600086815260200190815260200160002060008281526020019081526020016000206040518060a0016040529081600082015481526020016001820160009054906101000a900473ffffffffffffffffffffffffffffffffffffffff1673ffffffffffffffffffffffffffffffffffffffff1673ffffffffffffffffffffffffffffffffffffffff1681526020016002820180546135149061479e565b80601f01602080910402602001604051908101604052809291908181526020018280546135409061479e565b801561358d5780601f106135625761010080835404028352916020019161358d565b820191906000526020600020905b81548152906001019060200180831161357057829003601f168201915b50505050508152602001600382015481526020016004820154815250508282815181106135bd576135bc61505f565b5b6020026020010181905250808060010191505061346d565b508092505050919050565b60405180610180016040528060008152602001606081526020016000151581526020016000815260200160008152602001600081526020016000815260200160008152602001600081526020016000151581526020016000151581526020016000151581525090565b6040518060a0016040528060008152602001600073ffffffffffffffffffffffffffffffffffffffff1681526020016060815260200160008152602001600081525090565b6000604051905090565b600080fd5b600080fd5b6000819050919050565b6136b5816136a2565b81146136c057600080fd5b50565b6000813590506136d2816136ac565b92915050565b600080604083850312156136ef576136ee613698565b5b60006136fd858286016136c3565b925050602061370e858286016136c3565b9150509250929050565b600080fd5b600080fd5b6000601f19601f8301169050919050565b7f4e487b7100000000000000000000000000000000000000000000000000000000600052604160045260246000fd5b61376b82613722565b810181811067ffffffffffffffff8211171561378a57613789613733565b5b80604052505050565b600061379d61368e565b90506137a98282613762565b919050565b600067ffffffffffffffff8211156137c9576137c8613733565b5b6137d282613722565b9050602081019050919050565b82818337600083830152505050565b60006138016137fc846137ae565b613793565b90508281526020810184848401111561381d5761381c61371d565b5b6138288482856137df565b509392505050565b600082601f83011261384557613844613718565b5b81356138558482602086016137ee565b91505092915050565b60008060006060848603121561387757613876613698565b5b600084013567ffffffffffffffff8111156138955761389461369d565b5b6138a186828701613830565b93505060206138b2868287016136c3565b92505060406138c3868287016136c3565b9150509250925092565b6000602082840312156138e3576138e2613698565b5b60006138f1848285016136c3565b91505092915050565b613903816136a2565b82525050565b600060408201905061391e60008301856138fa565b61392b60208301846138fa565b9392505050565b600073ffffffffffffffffffffffffffffffffffffffff82169050919050565b600061395d82613932565b9050919050565b61396d81613952565b811461397857600080fd5b50565b60008135905061398a81613964565b92915050565b6000806000606084860312156139a9576139a8613698565b5b60006139b7868287016136c3565b935050602084013567ffffffffffffffff8111156139d8576139d761369d565b5b6139e486828701613830565b92505060406139f58682870161397b565b9150509250925092565b613a0881613952565b82525050565b600081519050919050565b600082825260208201905092915050565b60005b83811015613a48578082015181840152602081019050613a2d565b60008484015250505050565b6000613a5f82613a0e565b613a698185613a19565b9350613a79818560208601613a2a565b613a8281613722565b840191505092915050565b600060a082019050613aa260008301886138fa565b613aaf60208301876139ff565b8181036040830152613ac18186613a54565b9050613ad060608301856138fa565b613add60808301846138fa565b9695505050505050565b60008115159050919050565b613afc81613ae7565b82525050565b600061018082019050613b18600083018f6138fa565b8181036020830152613b2a818e613a54565b9050613b39604083018d613af3565b613b46606083018c6138fa565b613b53608083018b6138fa565b613b6060a083018a6138fa565b613b6d60c08301896138fa565b613b7a60e08301886138fa565b613b886101008301876138fa565b613b96610120830186613af3565b613ba4610140830185613af3565b613bb2610160830184613af3565b9d9c50505050505050505050505050565b6000602082019050613bd860008301846138fa565b92915050565b600081519050919050565b600082825260208201905092915050565b6000819050602082019050919050565b613c13816136a2565b82525050565b600082825260208201905092915050565b6000613c3582613a0e565b613c3f8185613c19565b9350613c4f818560208601613a2a565b613c5881613722565b840191505092915050565b613c6c81613ae7565b82525050565b600061018083016000830151613c8b6000860182613c0a565b5060208301518482036020860152613ca38282613c2a565b9150506040830151613cb86040860182613c63565b506060830151613ccb6060860182613c0a565b506080830151613cde6080860182613c0a565b5060a0830151613cf160a0860182613c0a565b5060c0830151613d0460c0860182613c0a565b5060e0830151613d1760e0860182613c0a565b50610100830151613d2c610100860182613c0a565b50610120830151613d41610120860182613c63565b50610140830151613d56610140860182613c63565b50610160830151613d6b610160860182613c63565b508091505092915050565b6000613d828383613c72565b905092915050565b6000602082019050919050565b6000613da282613bde565b613dac8185613be9565b935083602082028501613dbe85613bfa565b8060005b85811015613dfa5784840389528151613ddb8582613d76565b9450613de683613d8a565b925060208a01995050600181019050613dc2565b50829750879550505050505092915050565b60006020820190508181036000830152613e268184613d97565b905092915050565b6000602082019050613e4360008301846139ff565b92915050565b60008060408385031215613e6057613e5f613698565b5b6000613e6e858286016136c3565b9250506020613e7f8582860161397b565b9150509250929050565b600060c082019050613e9e60008301896138fa565b8181036020830152613eb08188613a54565b9050613ebf60408301876139ff565b613ecc60608301866138fa565b613ed960808301856138fa565b613ee660a0830184613af3565b979650505050505050565b600061014082019050613f07600083018d6138fa565b8181036020830152613f19818c613a54565b9050613f28604083018b613af3565b613f35606083018a6138fa565b613f4260808301896138fa565b613f4f60a08301886138fa565b613f5c60c08301876138fa565b613f6960e08301866138fa565b613f776101008301856138fa565b613f85610120830184613af3565b9b9a5050505050505050505050565b600060e082019050613fa9600083018a6138fa565b8181036020830152613fbb8189613a54565b9050613fca60408301886139ff565b613fd760608301876138fa565b613fe460808301866138fa565b613ff160a0830185613af3565b613ffe60c0830184613af3565b98975050505050505050565b600060208201905061401f6000830184613af3565b92915050565b600081519050919050565b600082825260208201905092915050565b6000819050602082019050919050565b61405a81613952565b82525050565b600060a0830160008301516140786000860182613c0a565b50602083015161408b6020860182614051565b50604083015184820360408601526140a38282613c2a565b91505060608301516140b86060860182613c0a565b5060808301516140cb6080860182613c0a565b508091505092915050565b60006140e28383614060565b905092915050565b6000602082019050919050565b600061410282614025565b61410c8185614030565b93508360208202850161411e85614041565b8060005b8581101561415a578484038952815161413b85826140d6565b9450614146836140ea565b925060208a01995050600181019050614122565b50829750879550505050505092915050565b6000602082019050818103600083015261418681846140f7565b905092915050565b7f766f746572206973206e6f742072656769737465726564210000000000000000600082015250565b60006141c4601883613a19565b91506141cf8261418e565b602082019050919050565b600060208201905081810360008301526141f3816141b7565b9050919050565b7f496e76616c696420656c656374696f6e20696400000000000000000000000000600082015250565b6000614230601383613a19565b915061423b826141fa565b602082019050919050565b6000602082019050818103600083015261425f81614223565b9050919050565b7f696e76616c69642063616e646964617465206964000000000000000000000000600082015250565b600061429c601483613a19565b91506142a782614266565b602082019050919050565b600060208201905081810360008301526142cb8161428f565b9050919050565b7f796f7520616c726561647920766f74656420666f72207468697320656c65637460008201527f696f6e2129000000000000000000000000000000000000000000000000000000602082015250565b600061432e602583613a19565b9150614339826142d2565b604082019050919050565b6000602082019050818103600083015261435d81614321565b9050919050565b7f656c656374696f6e206973206e6f742061637469766521000000000000000000600082015250565b600061439a601783613a19565b91506143a582614364565b602082019050919050565b600060208201905081810360008301526143c98161438d565b9050919050565b7f566f74696e67206973206e6f7420616374697665210000000000000000000000600082015250565b6000614406601583613a19565b9150614411826143d0565b602082019050919050565b60006020820190508181036000830152614435816143f9565b9050919050565b7f496e76616c69642074696d6520666f7220766f74696e67000000000000000000600082015250565b6000614472601783613a19565b915061447d8261443c565b602082019050919050565b600060208201905081810360008301526144a181614465565b9050919050565b7f496e76616c69642043616e646964617465204964000000000000000000000000600082015250565b60006144de601483613a19565b91506144e9826144a8565b602082019050919050565b6000602082019050818103600083015261450d816144d1565b9050919050565b7f4e487b7100000000000000000000000000000000000000000000000000000000600052601160045260246000fd5b600061454e826136a2565b91507fffffffffffffffffffffffffffffffffffffffffffffffffffffffffffffffff82036145805761457f614514565b5b600182019050919050565b7f766f7465722063617374656420766f7465000000000000000000000000000000600082015250565b60006145c1601183613a19565b91506145cc8261458b565b602082019050919050565b60006040820190506145ec60008301846138fa565b81810360208301526145fd816145b4565b905092915050565b7f496e76616c696400000000000000000000000000000000000000000000000000600082015250565b600061463b600783613a19565b915061464682614605565b602082019050919050565b6000602082019050818103600083015261466a8161462e565b9050919050565b7f766f74657220697320616c726561647920726567697374657265642100000000600082015250565b60006146a7601c83613a19565b91506146b282614671565b602082019050919050565b600060208201905081810360008301526146d68161469a565b9050919050565b7f526567697374726174696f6e207068617365206973206e6f742061637469766560008201527f2100000000000000000000000000000000000000000000000000000000000000602082015250565b6000614739602183613a19565b9150614744826146dd565b604082019050919050565b600060208201905081810360008301526147688161472c565b9050919050565b7f4e487b7100000000000000000000000000000000000000000000000000000000600052602260045260246000fd5b600060028204905060018216806147b657607f821691505b6020821081036147c9576147c861476f565b5b50919050565b60008190508160005260206000209050919050565b60006020601f8301049050919050565b600082821b905092915050565b6000600883026148317fffffffffffffffffffffffffffffffffffffffffffffffffffffffffffffffff826147f4565b61483b86836147f4565b95508019841693508086168417925050509392505050565b6000819050919050565b600061487861487361486e846136a2565b614853565b6136a2565b9050919050565b6000819050919050565b6148928361485d565b6148a661489e8261487f565b848454614801565b825550505050565b600090565b6148bb6148ae565b6148c6818484614889565b505050565b5b818110156148ea576148df6000826148b3565b6001810190506148cc565b5050565b601f82111561492f57614900816147cf565b614909846147e4565b81016020851015614918578190505b61492c614924856147e4565b8301826148cb565b50505b505050565b600082821c905092915050565b600061495260001984600802614934565b1980831691505092915050565b600061496b8383614941565b9150826002028217905092915050565b61498482613a0e565b67ffffffffffffffff81111561499d5761499c613733565b5b6149a7825461479e565b6149b28282856148ee565b600060209050601f8311600181146149e557600084156149d3578287015190505b6149dd858261495f565b865550614a45565b601f1984166149f3866147cf565b60005b82811015614a1b578489015182556001820191506020850194506020810190506149f6565b86831015614a385784890151614a34601f891682614941565b8355505b6001600288020188555050505b505050505050565b7f4e657720766f7465722072656769737465726564000000000000000000000000600082015250565b6000614a83601483613a19565b9150614a8e82614a4d565b602082019050919050565b6000604082019050614aae60008301846138fa565b8181036020830152614abf81614a76565b905092915050565b7f6f6e6c792061646d696e00000000000000000000000000000000000000000000600082015250565b6000614afd600a83613a19565b9150614b0882614ac7565b602082019050919050565b60006020820190508181036000830152614b2c81614af0565b9050919050565b7f496e76616c696420456c656374696f6e20496400000000000000000000000000600082015250565b6000614b69601383613a19565b9150614b7482614b33565b602082019050919050565b60006020820190508181036000830152614b9881614b5c565b9050919050565b7f656c656374696f6e206973206e6f7420636f6d706c6574656420796574000000600082015250565b6000614bd5601d83613a19565b9150614be082614b9f565b602082019050919050565b60006020820190508181036000830152614c0481614bc8565b9050919050565b7f656c656374696f6e20697320616c726561647920616374697665210000000000600082015250565b6000614c41601b83613a19565b9150614c4c82614c0b565b602082019050919050565b60006020820190508181036000830152614c7081614c34565b9050919050565b7f54686520656c656374696f6e20697320636f6d706c6574656400000000000000600082015250565b6000614cad601983613a19565b9150614cb882614c77565b602082019050919050565b60006040820190508181036000830152614cdc81614ca0565b9050614ceb60208301846138fa565b92915050565b7f43616e64696461746520416c7265616479206164646564210000000000000000600082015250565b6000614d27601883613a19565b9150614d3282614cf1565b602082019050919050565b60006020820190508181036000830152614d5681614d1a565b9050919050565b7f526567697374726174696f6e207068617365206e6f7420616374697665210000600082015250565b6000614d93601e83613a19565b9150614d9e82614d5d565b602082019050919050565b60006020820190508181036000830152614dc281614d86565b9050919050565b7f43616e646964617465206164646564207375636365737366756c6c7900000000600082015250565b6000614dff601c83613a19565b9150614e0a82614dc9565b602082019050919050565b6000604082019050614e2a60008301846138fa565b8181036020830152614e3b81614df2565b905092915050565b7f656c656374696f6e20697320616c726561647920636f6d706c65746564210000600082015250565b6000614e79601e83613a19565b9150614e8482614e43565b602082019050919050565b60006020820190508181036000830152614ea881614e6c565b9050919050565b7f656c656374696f6e20697320636f6d706c657465640000000000000000000000600082015250565b6000614ee5601583613a19565b9150614ef082614eaf565b602082019050919050565b60006020820190508181036000830152614f1481614ed8565b9050919050565b7f496e76616c69642063616e646964617465206964210000000000000000000000600082015250565b6000614f51601583613a19565b9150614f5c82614f1b565b602082019050919050565b60006020820190508181036000830152614f8081614f44565b9050919050565b7f456c656374696f6e20697320616c726561647920646561637469766574656421600082015250565b6000614fbd602083613a19565b9150614fc882614f87565b602082019050919050565b60006020820190508181036000830152614fec81614fb0565b9050919050565b7f456c656374696f6e206973204465616374697665000000000000000000000000600082015250565b6000615029601483613a19565b915061503482614ff3565b602082019050919050565b600060208201905081810360008301526150588161501c565b9050919050565b7f4e487b7100000000000000000000000000000000000000000000000000000000600052603260045260246000fd5b7f656c656374696f6e206973206465616374697661746564210000000000000000600082015250565b60006150c4601883613a19565b91506150cf8261508e565b602082019050919050565b600060208201905081810360008301526150f3816150b7565b9050919050565b7f726567697374726174696f6e20697320616c726561647920616374697661746560008201527f6421000000000000000000000000000000000000000000000000000000000000602082015250565b6000615156602283613a19565b9150615161826150fa565b604082019050919050565b6000602082019050818103600083015261518581615149565b9050919050565b7f566f74696e6720616c7265616479206465616374697661746564400000000000600082015250565b60006151c2601b83613a19565b91506151cd8261518c565b602082019050919050565b600060208201905081810360008301526151f1816151b5565b9050919050565b7f4e6f7720766f74696e6720706861736520697320446561637469766174656400600082015250565b600061522e601f83613a19565b9150615239826151f8565b602082019050919050565b6000602082019050818103600083015261525d81615221565b9050919050565b7f4e6f7720726567697374726174696f6e20706861736520697320416374697665600082015250565b600061529a602083613a19565b91506152a582615264565b602082019050919050565b600060208201905081810360008301526152c98161528d565b9050919050565b7f726567697374726174696f6e2069732061637469766521000000000000000000600082015250565b6000615306601783613a19565b9150615311826152d0565b602082019050919050565b60006020820190508181036000830152615335816152f9565b9050919050565b7f566f74696e6720706861736520697320616c726561647920616374697665746560008201527f6421000000000000000000000000000000000000000000000000000000000000602082015250565b6000615398602283613a19565b91506153a38261533c565b604082019050919050565b600060208201905081810360008301526153c78161538b565b9050919050565b7f4d7573742068617665206d6f7265207468616e206f6e652063616e646964617460008201527f6521000000000000000000000000000000000000000000000000000000000000602082015250565b600061542a602283613a19565b9150615435826153ce565b604082019050919050565b600060208201905081810360008301526154598161541d565b9050919050565b7f4d7573742068617665206d6f7265207468616e206f6e6520766f746572210000600082015250565b6000615496601e83613a19565b91506154a182615460565b602082019050919050565b600060208201905081810360008301526154c581615489565b9050919050565b7f4e6f7720766f74696e6720706861736520697320616374697661746564000000600082015250565b6000615502601d83613a19565b915061550d826154cc565b602082019050919050565b60006020820190508181036000830152615531816154f5565b9050919050565b7f496e76616c696420656c656374696f6e20496400000000000000000000000000600082015250565b600061556e601383613a19565b915061557982615538565b602082019050919050565b6000602082019050818103600083015261559d81615561565b9050919050565b7f496e76616c696420656c656374696f6e20696421000000000000000000000000600082015250565b60006155da601483613a19565b91506155e5826155a4565b602082019050919050565b60006020820190508181036000830152615609816155cd565b9050919050565b7f726567697374726174696f6e20697320616c726561647920646561637469766160008201527f7465642100000000000000000000000000000000000000000000000000000000602082015250565b600061566c602483613a19565b915061567782615610565b604082019050919050565b6000602082019050818103600083015261569b8161565f565b9050919050565b7f4e6f7720726567697374726174696f6e2070686173652069732044656163746960008201527f7661746564000000000000000000000000000000000000000000000000000000602082015250565b60006156fe602583613a19565b9150615709826156a2565b604082019050919050565b6000602082019050818103600083015261572d816156f1565b9050919050565b7f456c656374696f6e206973204163746976650000000000000000000000000000600082015250565b600061576a601283613a19565b915061577582615734565b602082019050919050565b600060208201905081810360008301526157998161575d565b9050919050565b7f496e76616c696420656e642074696d6521000000000000000000000000000000600082015250565b60006157d6601183613a19565b91506157e1826157a0565b602082019050919050565b60006020820190508181036000830152615805816157c9565b9050919050565b7f53746172742074696d65206d757374206265206265666f726520656e6420746960008201527f6d65000000000000000000000000000000000000000000000000000000000000602082015250565b6000615868602283613a19565b91506158738261580c565b604082019050919050565b600060208201905081810360008301526158978161585b565b9050919050565b600060608201905081810360008301526158b88186613a54565b90506158c760208301856138fa565b6158d460408301846138fa565b94935050505056fea2646970667358221220303d9560222eae930cb3dc2ed48da8dfd748945e94c16fde6c65db59dc3447b064736f6c634300081c0033",
  "linkReferences": {},
  "deployedLinkReferences": {}
}