{
  "_format": "hh-sol-artifact-1",
  "contractName": "Voting",
  "sourceName": "contracts/Voting.sol",
  "abi": [
    {
      "inputs": [],
      "stateMutability": "nonpayable",
      "type": "constructor"
    },
    {
      "anonymous": false,
      "inputs": [
        {
          "indexed": true,
          "internalType": "uint256",
          "name": "electionId",
          "type": "uint256"
        },
        {
          "indexed": false,
          "internalType": "string",
          "name": "message",
          "type": "string"
        }
      ],
      "name": "activeElectionEvent",
      "type": "event"
    },
    {
      "anonymous": false,
      "inputs": [
        {
          "indexed": true,
          "internalType": "uint256",
          "name": "electionId",
          "type": "uint256"
        },
        {
          "indexed": false,
          "internalType": "string",
          "name": "message",
          "type": "string"
        }
      ],
      "name": "activeRegistrationEvent",
      "type": "event"
    },
    {
      "anonymous": false,
      "inputs": [
        {
          "indexed": true,
          "internalType": "uint256",
          "name": "electionId",
          "type": "uint256"
        },
        {
          "indexed": false,
          "internalType": "string",
          "name": "message",
          "type": "string"
        }
      ],
      "name": "activeVotingEvent",
      "type": "event"
    },
    {
      "anonymous": false,
      "inputs": [
        {
          "indexed": false,
          "internalType": "uint256",
          "name": "candidateId",
          "type": "uint256"
        },
        {
          "indexed": false,
          "internalType": "string",
          "name": "message",
          "type": "string"
        }
      ],
      "name": "addCandidateEvent",
      "type": "event"
    },
    {
      "anonymous": false,
      "inputs": [
        {
          "indexed": false,
          "internalType": "uint256",
          "name": "voterId",
          "type": "uint256"
        },
        {
          "indexed": false,
          "internalType": "string",
          "name": "message",
          "type": "string"
        }
      ],
      "name": "castVoteEvent",
      "type": "event"
    },
    {
      "anonymous": false,
      "inputs": [
        {
          "indexed": true,
          "internalType": "uint256",
          "name": "electionId",
          "type": "uint256"
        },
        {
          "indexed": false,
          "internalType": "string",
          "name": "message",
          "type": "string"
        }
      ],
      "name": "completeElectionEvent",
      "type": "event"
    },
    {
      "anonymous": false,
      "inputs": [
        {
          "indexed": true,
          "internalType": "uint256",
          "name": "electionId",
          "type": "uint256"
        },
        {
          "indexed": false,
          "internalType": "string",
          "name": "message",
          "type": "string"
        }
      ],
      "name": "deactiveElectionEvent",
      "type": "event"
    },
    {
      "anonymous": false,
      "inputs": [
        {
          "indexed": true,
          "internalType": "uint256",
          "name": "electionId",
          "type": "uint256"
        },
        {
          "indexed": false,
          "internalType": "string",
          "name": "message",
          "type": "string"
        }
      ],
      "name": "deactiveRegistrationEvent",
      "type": "event"
    },
    {
      "anonymous": false,
      "inputs": [
        {
          "indexed": true,
          "internalType": "uint256",
          "name": "electionId",
          "type": "uint256"
        },
        {
          "indexed": false,
          "internalType": "string",
          "name": "message",
          "type": "string"
        }
      ],
      "name": "deactiveVotingEvent",
      "type": "event"
    },
    {
      "anonymous": false,
      "inputs": [
        {
          "indexed": true,
          "internalType": "uint256",
          "name": "electionId",
          "type": "uint256"
        },
        {
          "indexed": false,
          "internalType": "string",
          "name": "electionName",
          "type": "string"
        },
        {
          "indexed": false,
          "internalType": "uint256",
          "name": "startTime",
          "type": "uint256"
        },
        {
          "indexed": false,
          "internalType": "uint256",
          "name": "endTime",
          "type": "uint256"
        }
      ],
      "name": "electionCreated",
      "type": "event"
    },
    {
      "anonymous": false,
      "inputs": [
        {
          "indexed": true,
          "internalType": "uint256",
          "name": "electionId",
          "type": "uint256"
        },
        {
          "indexed": false,
          "internalType": "string",
          "name": "message",
          "type": "string"
        },
        {
          "indexed": false,
          "internalType": "uint256",
          "name": "winnerId",
          "type": "uint256"
        }
      ],
      "name": "getWinnerEvent",
      "type": "event"
    },
    {
      "anonymous": false,
      "inputs": [
        {
          "indexed": false,
          "internalType": "uint256",
          "name": "voterId",
          "type": "uint256"
        },
        {
          "indexed": false,
          "internalType": "string",
          "name": "message",
          "type": "string"
        }
      ],
      "name": "regVoterEvent",
      "type": "event"
    },
    {
      "inputs": [
        {
          "internalType": "uint256",
          "name": "_electionId",
          "type": "uint256"
        }
      ],
      "name": "activeElection",
      "outputs": [],
      "stateMutability": "nonpayable",
      "type": "function"
    },
    {
      "inputs": [
        {
          "internalType": "uint256",
          "name": "_electionId",
          "type": "uint256"
        }
      ],
      "name": "activeRegistration",
      "outputs": [],
      "stateMutability": "nonpayable",
      "type": "function"
    },
    {
      "inputs": [
        {
          "internalType": "uint256",
          "name": "_electionId",
          "type": "uint256"
        }
      ],
      "name": "activeVoting",
      "outputs": [],
      "stateMutability": "nonpayable",
      "type": "function"
    },
    {
      "inputs": [
        {
          "internalType": "uint256",
          "name": "_electionId",
          "type": "uint256"
        },
        {
          "internalType": "string",
          "name": "_candidateName",
          "type": "string"
        },
        {
          "internalType": "address",
          "name": "_candidateAddress",
          "type": "address"
        }
      ],
      "name": "addCandidate",
      "outputs": [],
      "stateMutability": "nonpayable",
      "type": "function"
    },
    {
      "inputs": [
        {
          "internalType": "uint256",
          "name": "",
          "type": "uint256"
        },
        {
          "internalType": "uint256",
          "name": "",
          "type": "uint256"
        }
      ],
      "name": "candidates",
      "outputs": [
        {
          "internalType": "uint256",
          "name": "candidateId",
          "type": "uint256"
        },
        {
          "internalType": "address",
          "name": "candidateAddress",
          "type": "address"
        },
        {
          "internalType": "string",
          "name": "candidateName",
          "type": "string"
        },
        {
          "internalType": "uint256",
          "name": "electionId",
          "type": "uint256"
        },
        {
          "internalType": "uint256",
          "name": "voteCount",
          "type": "uint256"
        }
      ],
      "stateMutability": "view",
      "type": "function"
    },
    {
      "inputs": [
        {
          "internalType": "uint256",
          "name": "_electionId",
          "type": "uint256"
        },
        {
          "internalType": "uint256",
          "name": "_candidateId",
          "type": "uint256"
        }
      ],
      "name": "castVote",
      "outputs": [],
      "stateMutability": "nonpayable",
      "type": "function"
    },
    {
      "inputs": [
        {
          "internalType": "uint256",
          "name": "_electionId",
          "type": "uint256"
        }
      ],
      "name": "completeElection",
      "outputs": [],
      "stateMutability": "nonpayable",
      "type": "function"
    },
    {
      "inputs": [
        {
          "internalType": "string",
          "name": "_electionName",
          "type": "string"
        },
        {
          "internalType": "uint256",
          "name": "_startTime",
          "type": "uint256"
        },
        {
          "internalType": "uint256",
          "name": "_endTime",
          "type": "uint256"
        }
      ],
      "name": "createElection",
      "outputs": [],
      "stateMutability": "nonpayable",
      "type": "function"
    },
    {
      "inputs": [
        {
          "internalType": "uint256",
          "name": "_electionId",
          "type": "uint256"
        }
      ],
      "name": "deactiveElection",
      "outputs": [],
      "stateMutability": "nonpayable",
      "type": "function"
    },
    {
      "inputs": [
        {
          "internalType": "uint256",
          "name": "_electionId",
          "type": "uint256"
        }
      ],
      "name": "deactiveRegistration",
      "outputs": [],
      "stateMutability": "nonpayable",
      "type": "function"
    },
    {
      "inputs": [
        {
          "internalType": "uint256",
          "name": "_electionId",
          "type": "uint256"
        }
      ],
      "name": "deactiveVoting",
      "outputs": [],
      "stateMutability": "nonpayable",
      "type": "function"
    },
    {
      "inputs": [
        {
          "internalType": "uint256",
          "name": "",
          "type": "uint256"
        }
      ],
      "name": "elections",
      "outputs": [
        {
          "internalType": "uint256",
          "name": "electionId",
          "type": "uint256"
        },
        {
          "internalType": "string",
          "name": "electionName",
          "type": "string"
        },
        {
          "internalType": "bool",
          "name": "isActive",
          "type": "bool"
        },
        {
          "internalType": "uint256",
          "name": "startTime",
          "type": "uint256"
        },
        {
          "internalType": "uint256",
          "name": "endTime",
          "type": "uint256"
        },
        {
          "internalType": "uint256",
          "name": "totalCandidates",
          "type": "uint256"
        },
        {
          "internalType": "uint256",
          "name": "totalVoters",
          "type": "uint256"
        },
        {
          "internalType": "uint256",
          "name": "totalVotes",
          "type": "uint256"
        },
        {
          "internalType": "uint256",
          "name": "winnerId",
          "type": "uint256"
        },
        {
          "internalType": "bool",
          "name": "registrationPhase",
          "type": "bool"
        },
        {
          "internalType": "bool",
          "name": "votingPhase",
          "type": "bool"
        },
        {
          "internalType": "bool",
          "name": "isCompleted",
          "type": "bool"
        }
      ],
      "stateMutability": "view",
      "type": "function"
    },
    {
      "inputs": [
        {
          "internalType": "uint256",
          "name": "_electionId",
          "type": "uint256"
        }
      ],
      "name": "getAllCandidates",
      "outputs": [
        {
          "components": [
            {
              "internalType": "uint256",
              "name": "candidateId",
              "type": "uint256"
            },
            {
              "internalType": "address",
              "name": "candidateAddress",
              "type": "address"
            },
            {
              "internalType": "string",
              "name": "candidateName",
              "type": "string"
            },
            {
              "internalType": "uint256",
              "name": "electionId",
              "type": "uint256"
            },
            {
              "internalType": "uint256",
              "name": "voteCount",
              "type": "uint256"
            }
          ],
          "internalType": "struct Voting.Candidate[]",
          "name": "",
          "type": "tuple[]"
        }
      ],
      "stateMutability": "view",
      "type": "function"
    },
    {
      "inputs": [],
      "name": "getAllElections",
      "outputs": [
        {
          "components": [
            {
              "internalType": "uint256",
              "name": "electionId",
              "type": "uint256"
            },
            {
              "internalType": "string",
              "name": "electionName",
              "type": "string"
            },
            {
              "internalType": "bool",
              "name": "isActive",
              "type": "bool"
            },
            {
              "internalType": "uint256",
              "name": "startTime",
              "type": "uint256"
            },
            {
              "internalType": "uint256",
              "name": "endTime",
              "type": "uint256"
            },
            {
              "internalType": "uint256",
              "name": "totalCandidates",
              "type": "uint256"
            },
            {
              "internalType": "uint256",
              "name": "totalVoters",
              "type": "uint256"
            },
            {
              "internalType": "uint256",
              "name": "totalVotes",
              "type": "uint256"
            },
            {
              "internalType": "uint256",
              "name": "winnerId",
              "type": "uint256"
            },
            {
              "internalType": "bool",
              "name": "registrationPhase",
              "type": "bool"
            },
            {
              "internalType": "bool",
              "name": "votingPhase",
              "type": "bool"
            },
            {
              "internalType": "bool",
              "name": "isCompleted",
              "type": "bool"
            }
          ],
          "internalType": "struct Voting.Election[]",
          "name": "",
          "type": "tuple[]"
        }
      ],
      "stateMutability": "view",
      "type": "function"
    },
    {
      "inputs": [],
      "name": "getBlockTimestamp",
      "outputs": [
        {
          "internalType": "uint256",
          "name": "",
          "type": "uint256"
        }
      ],
      "stateMutability": "view",
      "type": "function"
    },
    {
      "inputs": [
        {
          "internalType": "uint256",
          "name": "_electionId",
          "type": "uint256"
        },
        {
          "internalType": "uint256",
          "name": "_candidateId",
          "type": "uint256"
        }
      ],
      "name": "getCandidate",
      "outputs": [
        {
          "internalType": "uint256",
          "name": "candidateId",
          "type": "uint256"
        },
        {
          "internalType": "address",
          "name": "candidateAddress",
          "type": "address"
        },
        {
          "internalType": "string",
          "name": "candidateName",
          "type": "string"
        },
        {
          "internalType": "uint256",
          "name": "electionId",
          "type": "uint256"
        },
        {
          "internalType": "uint256",
          "name": "voteCount",
          "type": "uint256"
        }
      ],
      "stateMutability": "view",
      "type": "function"
    },
    {
      "inputs": [
        {
          "internalType": "uint256",
          "name": "_electionId",
          "type": "uint256"
        }
      ],
      "name": "getElection",
      "outputs": [
        {
          "internalType": "uint256",
          "name": "electionId",
          "type": "uint256"
        },
        {
          "internalType": "string",
          "name": "electionName",
          "type": "string"
        },
        {
          "internalType": "bool",
          "name": "isActive",
          "type": "bool"
        },
        {
          "internalType": "uint256",
          "name": "startTime",
          "type": "uint256"
        },
        {
          "internalType": "uint256",
          "name": "endTime",
          "type": "uint256"
        },
        {
          "internalType": "uint256",
          "name": "totalCandidates",
          "type": "uint256"
        },
        {
          "internalType": "uint256",
          "name": "totalVoters",
          "type": "uint256"
        },
        {
          "internalType": "uint256",
          "name": "totalVotes",
          "type": "uint256"
        },
        {
          "internalType": "uint256",
          "name": "winnerId",
          "type": "uint256"
        },
        {
          "internalType": "bool",
          "name": "isCompleted",
          "type": "bool"
        }
      ],
      "stateMutability": "view",
      "type": "function"
    },
    {
      "inputs": [],
      "name": "getOwner",
      "outputs": [
        {
          "internalType": "address",
          "name": "",
          "type": "address"
        }
      ],
      "stateMutability": "view",
      "type": "function"
    },
    {
      "inputs": [
        {
          "internalType": "uint256",
          "name": "_electionId",
          "type": "uint256"
        },
        {
          "internalType": "address",
          "name": "_voterAddress",
          "type": "address"
        }
      ],
      "name": "getVoter",
      "outputs": [
        {
          "internalType": "uint256",
          "name": "voterId",
          "type": "uint256"
        },
        {
          "internalType": "string",
          "name": "voterName",
          "type": "string"
        },
        {
          "internalType": "address",
          "name": "voterAddress",
          "type": "address"
        },
        {
          "internalType": "uint256",
          "name": "electionId",
          "type": "uint256"
        },
        {
          "internalType": "uint256",
          "name": "candidateId",
          "type": "uint256"
        },
        {
          "internalType": "bool",
          "name": "isVoted",
          "type": "bool"
        }
      ],
      "stateMutability": "view",
      "type": "function"
    },
    {
      "inputs": [
        {
          "internalType": "uint256",
          "name": "_electionId",
          "type": "uint256"
        }
      ],
      "name": "getWinner",
      "outputs": [
        {
          "internalType": "uint256",
          "name": "",
          "type": "uint256"
        },
        {
          "internalType": "uint256",
          "name": "",
          "type": "uint256"
        }
      ],
      "stateMutability": "nonpayable",
      "type": "function"
    },
    {
      "inputs": [
        {
          "internalType": "uint256",
          "name": "",
          "type": "uint256"
        },
        {
          "internalType": "address",
          "name": "",
          "type": "address"
        }
      ],
      "name": "isCandidateRegistered",
      "outputs": [
        {
          "internalType": "bool",
          "name": "",
          "type": "bool"
        }
      ],
      "stateMutability": "view",
      "type": "function"
    },
    {
      "inputs": [
        {
          "internalType": "string",
          "name": "_voterName",
          "type": "string"
        },
        {
          "internalType": "uint256",
          "name": "_electionId",
          "type": "uint256"
        },
        {
          "internalType": "uint256",
          "name": "_candidateId",
          "type": "uint256"
        }
      ],
      "name": "regVoter",
      "outputs": [],
      "stateMutability": "nonpayable",
      "type": "function"
    },
    {
      "inputs": [
        {
          "internalType": "uint256",
          "name": "_electionId",
          "type": "uint256"
        }
      ],
      "name": "verifyVoter",
      "outputs": [
        {
          "internalType": "bool",
          "name": "isRegistered",
          "type": "bool"
        }
      ],
      "stateMutability": "view",
      "type": "function"
    },
    {
      "inputs": [
        {
          "internalType": "uint256",
          "name": "",
          "type": "uint256"
        },
        {
          "internalType": "address",
          "name": "",
          "type": "address"
        }
      ],
      "name": "voters",
      "outputs": [
        {
          "internalType": "uint256",
          "name": "voterId",
          "type": "uint256"
        },
        {
          "internalType": "string",
          "name": "voterName",
          "type": "string"
        },
        {
          "internalType": "address",
          "name": "voterAddress",
          "type": "address"
        },
        {
          "internalType": "uint256",
          "name": "electionId",
          "type": "uint256"
        },
        {
          "internalType": "uint256",
          "name": "candidateId",
          "type": "uint256"
        },
        {
          "internalType": "bool",
          "name": "isVoted",
          "type": "bool"
        },
        {
          "internalType": "bool",
          "name": "isRegistered",
          "type": "bool"
        }
      ],
      "stateMutability": "view",
      "type": "function"
    }
  ],
  "bytecode": "0x60a060405234801561001057600080fd5b503373ffffffffffffffffffffffffffffffffffffffff1660808173ffffffffffffffffffffffffffffffffffffffff16815250506080516159fb6100a660003960008181610e6c01528181611125015281816115620152818161197301528181611f78015281816121d8015281816123c1015281816123fe01528181612da801528181612fa501526131a401526159fb6000f3fe608060405234801561001057600080fd5b50600436106101585760003560e01c80638885a413116100c3578063a0bd43e51161007c578063a0bd43e51461040f578063e1fc52af1461043f578063e39b28ef1461046f578063e9dbf4a61461048b578063f49a7a17146104a7578063f9ded646146104c357610158565b80638885a41314610315578063893d20e8146103315780638e292d081461034f5780638f47b1461461036b5780639d710777146103a05780639e319063146103d957610158565b80635cffe51a116101155780635cffe51a146102325780635e6fef011461024e578063796b89b9146102895780637de14242146102a75780637fd5f268146102db57806381c430ef146102f957610158565b80632c0a3f891461015d57806339ff79f4146101795780634129b2c91461019557806341403d30146101c65780634840042c146101e25780634bd46448146101fe575b600080fd5b610177600480360381019061017291906137c1565b6104f3565b005b610193600480360381019061018e9190613947565b610a35565b005b6101af60048036038101906101aa91906139b6565b610e50565b6040516101bd9291906139f2565b60405180910390f35b6101e060048036038101906101db9190613a79565b61110c565b005b6101fc60048036038101906101f791906139b6565b611549565b005b610218600480360381019061021391906137c1565b611749565b604051610229959493929190613b76565b60405180910390f35b61024c600480360381019061024791906139b6565b61195a565b005b610268600480360381019061026391906139b6565b611b52565b6040516102809c9b9a99989796959493929190613beb565b60405180910390f35b610291611c6e565b60405161029e9190613cac565b60405180910390f35b6102c160048036038101906102bc91906137c1565b611c76565b6040516102d2959493929190613b76565b60405180910390f35b6102e3611d61565b6040516102f09190613ef5565b60405180910390f35b610313600480360381019061030e91906139b6565b611f5f565b005b61032f600480360381019061032a91906139b6565b6121bf565b005b6103396123bd565b6040516103469190613f17565b60405180910390f35b610369600480360381019061036491906139b6565b6123e5565b005b61038560048036038101906103809190613f32565b6126f6565b60405161039796959493929190613f72565b60405180910390f35b6103ba60048036038101906103b591906139b6565b612991565b6040516103d09a99989796959493929190613fda565b60405180910390f35b6103f360048036038101906103ee9190613f32565b612ba1565b604051610406979695949392919061407d565b60405180910390f35b610429600480360381019061042491906139b6565b612cb2565b60405161043691906140f3565b60405180910390f35b61045960048036038101906104549190613f32565b612d60565b60405161046691906140f3565b60405180910390f35b610489600480360381019061048491906139b6565b612d8f565b005b6104a560048036038101906104a091906139b6565b612f8c565b005b6104c160048036038101906104bc9190613947565b61318b565b005b6104dd60048036038101906104d891906139b6565b61349b565b6040516104ea9190614255565b60405180910390f35b6003600083815260200190815260200160002060003373ffffffffffffffffffffffffffffffffffffffff1673ffffffffffffffffffffffffffffffffffffffff16815260200190815260200160002060050160019054906101000a900460ff16610593576040517f08c379a000000000000000000000000000000000000000000000000000000000815260040161058a906142c3565b60405180910390fd5b600080600084815260200190815260200160002060050154905060045483106105f1576040517f08c379a00000000000000000000000000000000000000000000000000000000081526004016105e89061432f565b60405180910390fd5b808210610633576040517f08c379a000000000000000000000000000000000000000000000000000000000815260040161062a9061439b565b60405180910390fd5b6003600084815260200190815260200160002060003373ffffffffffffffffffffffffffffffffffffffff1673ffffffffffffffffffffffffffffffffffffffff16815260200190815260200160002060050160009054906101000a900460ff16156106d4576040517f08c379a00000000000000000000000000000000000000000000000000000000081526004016106cb9061442d565b60405180910390fd5b60008084815260200190815260200160002060020160009054906101000a900460ff16610736576040517f08c379a000000000000000000000000000000000000000000000000000000000815260040161072d90614499565b60405180910390fd5b60008084815260200190815260200160002060090160019054906101000a900460ff16610798576040517f08c379a000000000000000000000000000000000000000000000000000000000815260040161078f90614505565b60405180910390fd5b4260008085815260200190815260200160002060030154111580156107d25750426000808581526020019081526020016000206004015410155b610811576040517f08c379a000000000000000000000000000000000000000000000000000000000815260040161080890614571565b60405180910390fd5b82600160008581526020019081526020016000206000848152602001908152602001600020600301541461087a576040517f08c379a0000000000000000000000000000000000000000000000000000000008152600401610871906145dd565b60405180910390fd5b816003600085815260200190815260200160002060003373ffffffffffffffffffffffffffffffffffffffff1673ffffffffffffffffffffffffffffffffffffffff1681526020019081526020016000206004018190555060016003600085815260200190815260200160002060003373ffffffffffffffffffffffffffffffffffffffff1673ffffffffffffffffffffffffffffffffffffffff16815260200190815260200160002060050160006101000a81548160ff02191690831515021790555060008084815260200190815260200160002060070160008154809291906109649061462c565b919050555060016000848152602001908152602001600020600083815260200190815260200160002060040160008154809291906109a19061462c565b91905055507f5533d5d8a59c8c6fc73fec643bde2a80d5249359048ce5ad8268999b467c9b646003600085815260200190815260200160002060003373ffffffffffffffffffffffffffffffffffffffff1673ffffffffffffffffffffffffffffffffffffffff16815260200190815260200160002060000154604051610a2891906146c0565b60405180910390a1505050565b826000815111610a7a576040517f08c379a0000000000000000000000000000000000000000000000000000000008152600401610a719061473a565b60405180910390fd5b60008060008581526020019081526020016000206005015490506003600085815260200190815260200160002060003373ffffffffffffffffffffffffffffffffffffffff1673ffffffffffffffffffffffffffffffffffffffff16815260200190815260200160002060050160019054906101000a900460ff1615610b35576040517f08c379a0000000000000000000000000000000000000000000000000000000008152600401610b2c906147a6565b60405180910390fd5b60008060008681526020019081526020016000206006016000815480929190610b5d9061462c565b9190505590506004548510610ba7576040517f08c379a0000000000000000000000000000000000000000000000000000000008152600401610b9e9061432f565b60405180910390fd5b818410610be9576040517f08c379a0000000000000000000000000000000000000000000000000000000008152600401610be09061439b565b60405180910390fd5b600081905060008087815260200190815260200160002060020160009054906101000a900460ff16610c50576040517f08c379a0000000000000000000000000000000000000000000000000000000008152600401610c4790614499565b60405180910390fd5b60008087815260200190815260200160002060090160009054906101000a900460ff16610cb2576040517f08c379a0000000000000000000000000000000000000000000000000000000008152600401610ca990614838565b60405180910390fd5b6040518060e001604052808281526020018881526020013373ffffffffffffffffffffffffffffffffffffffff16815260200187815260200160008152602001600015158152602001600115158152506003600088815260200190815260200160002060003373ffffffffffffffffffffffffffffffffffffffff1673ffffffffffffffffffffffffffffffffffffffff168152602001908152602001600020600082015181600001556020820151816001019081610d719190614a64565b5060408201518160020160006101000a81548173ffffffffffffffffffffffffffffffffffffffff021916908373ffffffffffffffffffffffffffffffffffffffff160217905550606082015181600301556080820151816004015560a08201518160050160006101000a81548160ff02191690831515021790555060c08201518160050160016101000a81548160ff0219169083151502179055509050507f0299d59c31dcf661049385a2c4b98ab6db3dede0f39be5fa6a4c5a9f0bd880d081604051610e3f9190614b82565b60405180910390a150505050505050565b6000803373ffffffffffffffffffffffffffffffffffffffff167f000000000000000000000000000000000000000000000000000000000000000073ffffffffffffffffffffffffffffffffffffffff1614610ee1576040517f08c379a0000000000000000000000000000000000000000000000000000000008152600401610ed890614bfc565b60405180910390fd5b6004548310610f25576040517f08c379a0000000000000000000000000000000000000000000000000000000008152600401610f1c90614c68565b60405180910390fd5b60008084815260200190815260200160002060090160029054906101000a900460ff16610f87576040517f08c379a0000000000000000000000000000000000000000000000000000000008152600401610f7e90614cd4565b60405180910390fd5b60008084815260200190815260200160002060020160009054906101000a900460ff1615610fea576040517f08c379a0000000000000000000000000000000000000000000000000000000008152600401610fe190614d40565b60405180910390fd5b600080600085815260200190815260200160002060050154905060008060005b838110156110ab5786600160008981526020019081526020016000206000838152602001908152602001600020600301540361109e576001600088815260200190815260200160002060008281526020019081526020016000206004015483101561109d576001600088815260200190815260200160002060008281526020019081526020016000206004015492508091505b5b808060010191505061100a565b508060008088815260200190815260200160002060080181905550857feb860cb3b9047fed9f8079266ddfd7a11e3149f4bcf11fc3d8f373b04c617717826040516110f69190614dac565b60405180910390a2818194509450505050915091565b3373ffffffffffffffffffffffffffffffffffffffff167f000000000000000000000000000000000000000000000000000000000000000073ffffffffffffffffffffffffffffffffffffffff161461119a576040517f08c379a000000000000000000000000000000000000000000000000000000000815260040161119190614bfc565b60405180910390fd5b8160008151116111df576040517f08c379a00000000000000000000000000000000000000000000000000000000081526004016111d69061473a565b60405180910390fd5b81600073ffffffffffffffffffffffffffffffffffffffff168173ffffffffffffffffffffffffffffffffffffffff160361124f576040517f08c379a00000000000000000000000000000000000000000000000000000000081526004016112469061473a565b60405180910390fd5b6004548510611293576040517f08c379a000000000000000000000000000000000000000000000000000000000815260040161128a90614c68565b60405180910390fd5b6002600086815260200190815260200160002060008473ffffffffffffffffffffffffffffffffffffffff1673ffffffffffffffffffffffffffffffffffffffff16815260200190815260200160002060009054906101000a900460ff1615611331576040517f08c379a000000000000000000000000000000000000000000000000000000000815260040161132890614e26565b60405180910390fd5b60008086815260200190815260200160002060090160009054906101000a900460ff16611393576040517f08c379a000000000000000000000000000000000000000000000000000000000815260040161138a90614e92565b60405180910390fd5b600080600087815260200190815260200160002060050160008154809291906113bb9061462c565b9190505590506040518060a001604052808281526020018573ffffffffffffffffffffffffffffffffffffffff16815260200186815260200187815260200160008152506001600088815260200190815260200160002060008381526020019081526020016000206000820151816000015560208201518160010160006101000a81548173ffffffffffffffffffffffffffffffffffffffff021916908373ffffffffffffffffffffffffffffffffffffffff16021790555060408201518160020190816114899190614a64565b50606082015181600301556080820151816004015590505060016002600088815260200190815260200160002060008673ffffffffffffffffffffffffffffffffffffffff1673ffffffffffffffffffffffffffffffffffffffff16815260200190815260200160002060006101000a81548160ff0219169083151502179055507f66b1543f5ce2008daad22e7d34bf4fe6171c5f3a1df8a5dd7f16b919b62a65bf816040516115399190614efe565b60405180910390a1505050505050565b3373ffffffffffffffffffffffffffffffffffffffff167f000000000000000000000000000000000000000000000000000000000000000073ffffffffffffffffffffffffffffffffffffffff16146115d7576040517f08c379a00000000000000000000000000000000000000000000000000000000081526004016115ce90614bfc565b60405180910390fd5b60045481111561161c576040517f08c379a000000000000000000000000000000000000000000000000000000000815260040161161390614c68565b60405180910390fd5b60008082815260200190815260200160002060020160009054906101000a900460ff161561167f576040517f08c379a000000000000000000000000000000000000000000000000000000000815260040161167690614d40565b60405180910390fd5b60008082815260200190815260200160002060090160029054906101000a900460ff16156116e2576040517f08c379a00000000000000000000000000000000000000000000000000000000081526004016116d990614f78565b60405180910390fd5b600160008083815260200190815260200160002060090160026101000a81548160ff021916908315150217905550807f4bf7e25c24d8d2e2b68c740e5971c960ea45ff3b301ad2b468c196bf9ed4f6a960405161173e90614fe4565b60405180910390a250565b6000806060600080600080600089815260200190815260200160002060050154905060045488106117af576040517f08c379a00000000000000000000000000000000000000000000000000000000081526004016117a690615050565b60405180910390fd5b808711156117f2576040517f08c379a00000000000000000000000000000000000000000000000000000000081526004016117e990615050565b60405180910390fd5b6000600160008a815260200190815260200160002060008981526020019081526020016000206040518060a0016040529081600082015481526020016001820160009054906101000a900473ffffffffffffffffffffffffffffffffffffffff1673ffffffffffffffffffffffffffffffffffffffff1673ffffffffffffffffffffffffffffffffffffffff16815260200160028201805461189390614887565b80601f01602080910402602001604051908101604052809291908181526020018280546118bf90614887565b801561190c5780601f106118e15761010080835404028352916020019161190c565b820191906000526020600020905b8154815290600101906020018083116118ef57829003601f168201915b50505050508152602001600382015481526020016004820154815250509050806000015181602001518260400151836060015184608001519650965096509650965050509295509295909350565b3373ffffffffffffffffffffffffffffffffffffffff167f000000000000000000000000000000000000000000000000000000000000000073ffffffffffffffffffffffffffffffffffffffff16146119e8576040517f08c379a00000000000000000000000000000000000000000000000000000000081526004016119df90614bfc565b60405180910390fd5b600454811115611a2d576040517f08c379a0000000000000000000000000000000000000000000000000000000008152600401611a2490614c68565b60405180910390fd5b60008082815260200190815260200160002060020160009054906101000a900460ff16611a8f576040517f08c379a0000000000000000000000000000000000000000000000000000000008152600401611a86906150bc565b60405180910390fd5b600080600083815260200190815260200160002060020160006101000a81548160ff021916908315150217905550600080600083815260200190815260200160002060090160006101000a81548160ff021916908315150217905550600080600083815260200190815260200160002060090160016101000a81548160ff021916908315150217905550807f805afb8e19e9e9e9103701927b3dcdf7c55c49171ac9ff29ac697ef28509f2a4604051611b4790615128565b60405180910390a250565b6000602052806000526040600020600091509050806000015490806001018054611b7b90614887565b80601f0160208091040260200160405190810160405280929190818152602001828054611ba790614887565b8015611bf45780601f10611bc957610100808354040283529160200191611bf4565b820191906000526020600020905b815481529060010190602001808311611bd757829003601f168201915b5050505050908060020160009054906101000a900460ff16908060030154908060040154908060050154908060060154908060070154908060080154908060090160009054906101000a900460ff16908060090160019054906101000a900460ff16908060090160029054906101000a900460ff1690508c565b600042905090565b6001602052816000526040600020602052806000526040600020600091509150508060000154908060010160009054906101000a900473ffffffffffffffffffffffffffffffffffffffff1690806002018054611cd290614887565b80601f0160208091040260200160405190810160405280929190818152602001828054611cfe90614887565b8015611d4b5780601f10611d2057610100808354040283529160200191611d4b565b820191906000526020600020905b815481529060010190602001808311611d2e57829003601f168201915b5050505050908060030154908060040154905085565b6060600060045467ffffffffffffffff811115611d8157611d8061381c565b5b604051908082528060200260200182016040528015611dba57816020015b611da76136c9565b815260200190600190039081611d9f5790505b50905060005b600454811015611f57576000808281526020019081526020016000206040518061018001604052908160008201548152602001600182018054611e0290614887565b80601f0160208091040260200160405190810160405280929190818152602001828054611e2e90614887565b8015611e7b5780601f10611e5057610100808354040283529160200191611e7b565b820191906000526020600020905b815481529060010190602001808311611e5e57829003601f168201915b505050505081526020016002820160009054906101000a900460ff161515151581526020016003820154815260200160048201548152602001600582015481526020016006820154815260200160078201548152602001600882015481526020016009820160009054906101000a900460ff161515151581526020016009820160019054906101000a900460ff161515151581526020016009820160029054906101000a900460ff161515151581525050828281518110611f3f57611f3e615148565b5b60200260200101819052508080600101915050611dc0565b508091505090565b3373ffffffffffffffffffffffffffffffffffffffff167f000000000000000000000000000000000000000000000000000000000000000073ffffffffffffffffffffffffffffffffffffffff1614611fed576040517f08c379a0000000000000000000000000000000000000000000000000000000008152600401611fe490614bfc565b60405180910390fd5b6004548110612031576040517f08c379a000000000000000000000000000000000000000000000000000000000815260040161202890614c68565b60405180910390fd5b60008082815260200190815260200160002060020160009054906101000a900460ff16612093576040517f08c379a000000000000000000000000000000000000000000000000000000000815260040161208a906151c3565b60405180910390fd5b60008082815260200190815260200160002060090160009054906101000a900460ff16156120f6576040517f08c379a00000000000000000000000000000000000000000000000000000000081526004016120ed90615255565b60405180910390fd5b60008082815260200190815260200160002060090160019054906101000a900460ff16612158576040517f08c379a000000000000000000000000000000000000000000000000000000000815260040161214f906152c1565b60405180910390fd5b600080600083815260200190815260200160002060090160016101000a81548160ff021916908315150217905550807f32aacc61c7893eeb621b0291b1e1f38a3edab51ef00280d7277400adda6bdbd26040516121b49061532d565b60405180910390a250565b3373ffffffffffffffffffffffffffffffffffffffff167f000000000000000000000000000000000000000000000000000000000000000073ffffffffffffffffffffffffffffffffffffffff161461224d576040517f08c379a000000000000000000000000000000000000000000000000000000000815260040161224490614bfc565b60405180910390fd5b6004548110612291576040517f08c379a000000000000000000000000000000000000000000000000000000000815260040161228890614c68565b60405180910390fd5b60008082815260200190815260200160002060020160009054906101000a900460ff166122f3576040517f08c379a00000000000000000000000000000000000000000000000000000000081526004016122ea906151c3565b60405180910390fd5b60008082815260200190815260200160002060090160009054906101000a900460ff1615612356576040517f08c379a000000000000000000000000000000000000000000000000000000000815260040161234d90615255565b60405180910390fd5b600160008083815260200190815260200160002060090160006101000a81548160ff021916908315150217905550807f812be57ff3aad52a34fd221061d1eb22acd3a8264d8fcb1b749ffe5a46f99e006040516123b290615399565b60405180910390a250565b60007f0000000000000000000000000000000000000000000000000000000000000000905090565b3373ffffffffffffffffffffffffffffffffffffffff167f000000000000000000000000000000000000000000000000000000000000000073ffffffffffffffffffffffffffffffffffffffff1614612473576040517f08c379a000000000000000000000000000000000000000000000000000000000815260040161246a90614bfc565b60405180910390fd5b60045481106124b7576040517f08c379a00000000000000000000000000000000000000000000000000000000081526004016124ae90614c68565b60405180910390fd5b60008082815260200190815260200160002060020160009054906101000a900460ff16612519576040517f08c379a0000000000000000000000000000000000000000000000000000000008152600401612510906151c3565b60405180910390fd5b60008082815260200190815260200160002060090160009054906101000a900460ff161561257c576040517f08c379a000000000000000000000000000000000000000000000000000000000815260040161257390615405565b60405180910390fd5b60008082815260200190815260200160002060090160019054906101000a900460ff16156125df576040517f08c379a00000000000000000000000000000000000000000000000000000000081526004016125d690615497565b60405180910390fd5b60016000808381526020019081526020016000206005015411612637576040517f08c379a000000000000000000000000000000000000000000000000000000000815260040161262e90615529565b60405180910390fd5b6001600080838152602001908152602001600020600601541161268f576040517f08c379a000000000000000000000000000000000000000000000000000000000815260040161268690615595565b60405180910390fd5b600160008083815260200190815260200160002060090160016101000a81548160ff021916908315150217905550807f9d40f798047b16879455bd5998cb8c300e47ac7db6a9e63670e0f761914343df6040516126eb90615601565b60405180910390a250565b600060606000806000808760008111612744576040517f08c379a000000000000000000000000000000000000000000000000000000000815260040161273b9061473a565b60405180910390fd5b6004548910612788576040517f08c379a000000000000000000000000000000000000000000000000000000000815260040161277f9061566d565b60405180910390fd5b600073ffffffffffffffffffffffffffffffffffffffff168873ffffffffffffffffffffffffffffffffffffffff16036127c0573397505b6000600360008b815260200190815260200160002060008a73ffffffffffffffffffffffffffffffffffffffff1673ffffffffffffffffffffffffffffffffffffffff1681526020019081526020016000206040518060e00160405290816000820154815260200160018201805461283790614887565b80601f016020809104026020016040519081016040528092919081815260200182805461286390614887565b80156128b05780601f10612885576101008083540402835291602001916128b0565b820191906000526020600020905b81548152906001019060200180831161289357829003601f168201915b505050505081526020016002820160009054906101000a900473ffffffffffffffffffffffffffffffffffffffff1673ffffffffffffffffffffffffffffffffffffffff1673ffffffffffffffffffffffffffffffffffffffff16815260200160038201548152602001600482015481526020016005820160009054906101000a900460ff161515151581526020016005820160019054906101000a900460ff1615151515815250509050806000015181602001518260400151836060015184608001518560a0015197509750975097509750975050509295509295509295565b600060606000806000806000806000806004548b106129e5576040517f08c379a00000000000000000000000000000000000000000000000000000000081526004016129dc906156d9565b60405180910390fd5b60008060008d81526020019081526020016000206040518061018001604052908160008201548152602001600182018054612a1f90614887565b80601f0160208091040260200160405190810160405280929190818152602001828054612a4b90614887565b8015612a985780601f10612a6d57610100808354040283529160200191612a98565b820191906000526020600020905b815481529060010190602001808311612a7b57829003601f168201915b505050505081526020016002820160009054906101000a900460ff161515151581526020016003820154815260200160048201548152602001600582015481526020016006820154815260200160078201548152602001600882015481526020016009820160009054906101000a900460ff161515151581526020016009820160019054906101000a900460ff161515151581526020016009820160029054906101000a900460ff1615151515815250509050806000015181602001518260400151836060015184608001518560a001518660c001518760e001518861010001518961016001519a509a509a509a509a509a509a509a509a509a50509193959799509193959799565b600360205281600052604060002060205280600052604060002060009150915050806000015490806001018054612bd790614887565b80601f0160208091040260200160405190810160405280929190818152602001828054612c0390614887565b8015612c505780601f10612c2557610100808354040283529160200191612c50565b820191906000526020600020905b815481529060010190602001808311612c3357829003601f168201915b5050505050908060020160009054906101000a900473ffffffffffffffffffffffffffffffffffffffff16908060030154908060040154908060050160009054906101000a900460ff16908060050160019054906101000a900460ff16905087565b60006004548210612cf8576040517f08c379a0000000000000000000000000000000000000000000000000000000008152600401612cef90614c68565b60405180910390fd5b6003600083815260200190815260200160002060003373ffffffffffffffffffffffffffffffffffffffff1673ffffffffffffffffffffffffffffffffffffffff16815260200190815260200160002060050160019054906101000a900460ff169050919050565b60026020528160005260406000206020528060005260406000206000915091509054906101000a900460ff1681565b3373ffffffffffffffffffffffffffffffffffffffff167f000000000000000000000000000000000000000000000000000000000000000073ffffffffffffffffffffffffffffffffffffffff1614612e1d576040517f08c379a0000000000000000000000000000000000000000000000000000000008152600401612e1490614bfc565b60405180910390fd5b6004548110612e61576040517f08c379a0000000000000000000000000000000000000000000000000000000008152600401612e5890614c68565b60405180910390fd5b60008082815260200190815260200160002060020160009054906101000a900460ff16612ec3576040517f08c379a0000000000000000000000000000000000000000000000000000000008152600401612eba906151c3565b60405180910390fd5b60008082815260200190815260200160002060090160009054906101000a900460ff16612f25576040517f08c379a0000000000000000000000000000000000000000000000000000000008152600401612f1c9061576b565b60405180910390fd5b600080600083815260200190815260200160002060090160006101000a81548160ff021916908315150217905550807f4db4bca33ffad2e48e831544e9b62894cd345ee0b0322f48a24d949ec7d4741e604051612f81906157fd565b60405180910390a250565b3373ffffffffffffffffffffffffffffffffffffffff167f000000000000000000000000000000000000000000000000000000000000000073ffffffffffffffffffffffffffffffffffffffff161461301a576040517f08c379a000000000000000000000000000000000000000000000000000000000815260040161301190614bfc565b60405180910390fd5b600454811061305e576040517f08c379a000000000000000000000000000000000000000000000000000000000815260040161305590614c68565b60405180910390fd5b60008082815260200190815260200160002060090160029054906101000a900460ff16156130c1576040517f08c379a00000000000000000000000000000000000000000000000000000000081526004016130b890614f78565b60405180910390fd5b60008082815260200190815260200160002060020160009054906101000a900460ff1615613124576040517f08c379a000000000000000000000000000000000000000000000000000000000815260040161311b90614d40565b60405180910390fd5b600160008083815260200190815260200160002060020160006101000a81548160ff021916908315150217905550807f5cc0095233d950906740f494e45969f5276be13b20a90cf897b3c1b2c9e8e8d960405161318090615869565b60405180910390a250565b3373ffffffffffffffffffffffffffffffffffffffff167f000000000000000000000000000000000000000000000000000000000000000073ffffffffffffffffffffffffffffffffffffffff1614613219576040517f08c379a000000000000000000000000000000000000000000000000000000000815260040161321090614bfc565b60405180910390fd5b82600081511161325e576040517f08c379a00000000000000000000000000000000000000000000000000000000081526004016132559061473a565b60405180910390fd5b814211156132a1576040517f08c379a0000000000000000000000000000000000000000000000000000000008152600401613298906158d5565b60405180910390fd5b818311156132e4576040517f08c379a00000000000000000000000000000000000000000000000000000000081526004016132db90615967565b60405180910390fd5b60405180610180016040528060045481526020018581526020016000151581526020018481526020018381526020016000815260200160008152602001600081526020016000815260200160001515815260200160001515815260200160001515815250600080600454815260200190815260200160002060008201518160000155602082015181600101908161337b9190614a64565b5060408201518160020160006101000a81548160ff021916908315150217905550606082015181600301556080820151816004015560a0820151816005015560c0820151816006015560e0820151816007015561010082015181600801556101208201518160090160006101000a81548160ff0219169083151502179055506101408201518160090160016101000a81548160ff0219169083151502179055506101608201518160090160026101000a81548160ff0219169083151502179055509050506004547f2e9b8dc915d5de229b12468c2f0ca7bfd1c46d1cea8e78d6debb1dcfa5a1459f85858560405161347593929190615987565b60405180910390a2600460008154809291906134909061462c565b919050555050505050565b606060045482106134e1576040517f08c379a00000000000000000000000000000000000000000000000000000000081526004016134d8906156d9565b60405180910390fd5b600080600084815260200190815260200160002060050154905060008167ffffffffffffffff8111156135175761351661381c565b5b60405190808252806020026020018201604052801561355057816020015b61353d613732565b8152602001906001900390816135355790505b50905060005b828110156136be576001600086815260200190815260200160002060008281526020019081526020016000206040518060a0016040529081600082015481526020016001820160009054906101000a900473ffffffffffffffffffffffffffffffffffffffff1673ffffffffffffffffffffffffffffffffffffffff1673ffffffffffffffffffffffffffffffffffffffff1681526020016002820180546135fd90614887565b80601f016020809104026020016040519081016040528092919081815260200182805461362990614887565b80156136765780601f1061364b57610100808354040283529160200191613676565b820191906000526020600020905b81548152906001019060200180831161365957829003601f168201915b50505050508152602001600382015481526020016004820154815250508282815181106136a6576136a5615148565b5b60200260200101819052508080600101915050613556565b508092505050919050565b60405180610180016040528060008152602001606081526020016000151581526020016000815260200160008152602001600081526020016000815260200160008152602001600081526020016000151581526020016000151581526020016000151581525090565b6040518060a0016040528060008152602001600073ffffffffffffffffffffffffffffffffffffffff1681526020016060815260200160008152602001600081525090565b6000604051905090565b600080fd5b600080fd5b6000819050919050565b61379e8161378b565b81146137a957600080fd5b50565b6000813590506137bb81613795565b92915050565b600080604083850312156137d8576137d7613781565b5b60006137e6858286016137ac565b92505060206137f7858286016137ac565b9150509250929050565b600080fd5b600080fd5b6000601f19601f8301169050919050565b7f4e487b7100000000000000000000000000000000000000000000000000000000600052604160045260246000fd5b6138548261380b565b810181811067ffffffffffffffff821117156138735761387261381c565b5b80604052505050565b6000613886613777565b9050613892828261384b565b919050565b600067ffffffffffffffff8211156138b2576138b161381c565b5b6138bb8261380b565b9050602081019050919050565b82818337600083830152505050565b60006138ea6138e584613897565b61387c565b90508281526020810184848401111561390657613905613806565b5b6139118482856138c8565b509392505050565b600082601f83011261392e5761392d613801565b5b813561393e8482602086016138d7565b91505092915050565b6000806000606084860312156139605761395f613781565b5b600084013567ffffffffffffffff81111561397e5761397d613786565b5b61398a86828701613919565b935050602061399b868287016137ac565b92505060406139ac868287016137ac565b9150509250925092565b6000602082840312156139cc576139cb613781565b5b60006139da848285016137ac565b91505092915050565b6139ec8161378b565b82525050565b6000604082019050613a0760008301856139e3565b613a1460208301846139e3565b9392505050565b600073ffffffffffffffffffffffffffffffffffffffff82169050919050565b6000613a4682613a1b565b9050919050565b613a5681613a3b565b8114613a6157600080fd5b50565b600081359050613a7381613a4d565b92915050565b600080600060608486031215613a9257613a91613781565b5b6000613aa0868287016137ac565b935050602084013567ffffffffffffffff811115613ac157613ac0613786565b5b613acd86828701613919565b9250506040613ade86828701613a64565b9150509250925092565b613af181613a3b565b82525050565b600081519050919050565b600082825260208201905092915050565b60005b83811015613b31578082015181840152602081019050613b16565b60008484015250505050565b6000613b4882613af7565b613b528185613b02565b9350613b62818560208601613b13565b613b6b8161380b565b840191505092915050565b600060a082019050613b8b60008301886139e3565b613b986020830187613ae8565b8181036040830152613baa8186613b3d565b9050613bb960608301856139e3565b613bc660808301846139e3565b9695505050505050565b60008115159050919050565b613be581613bd0565b82525050565b600061018082019050613c01600083018f6139e3565b8181036020830152613c13818e613b3d565b9050613c22604083018d613bdc565b613c2f606083018c6139e3565b613c3c608083018b6139e3565b613c4960a083018a6139e3565b613c5660c08301896139e3565b613c6360e08301886139e3565b613c716101008301876139e3565b613c7f610120830186613bdc565b613c8d610140830185613bdc565b613c9b610160830184613bdc565b9d9c50505050505050505050505050565b6000602082019050613cc160008301846139e3565b92915050565b600081519050919050565b600082825260208201905092915050565b6000819050602082019050919050565b613cfc8161378b565b82525050565b600082825260208201905092915050565b6000613d1e82613af7565b613d288185613d02565b9350613d38818560208601613b13565b613d418161380b565b840191505092915050565b613d5581613bd0565b82525050565b600061018083016000830151613d746000860182613cf3565b5060208301518482036020860152613d8c8282613d13565b9150506040830151613da16040860182613d4c565b506060830151613db46060860182613cf3565b506080830151613dc76080860182613cf3565b5060a0830151613dda60a0860182613cf3565b5060c0830151613ded60c0860182613cf3565b5060e0830151613e0060e0860182613cf3565b50610100830151613e15610100860182613cf3565b50610120830151613e2a610120860182613d4c565b50610140830151613e3f610140860182613d4c565b50610160830151613e54610160860182613d4c565b508091505092915050565b6000613e6b8383613d5b565b905092915050565b6000602082019050919050565b6000613e8b82613cc7565b613e958185613cd2565b935083602082028501613ea785613ce3565b8060005b85811015613ee35784840389528151613ec48582613e5f565b9450613ecf83613e73565b925060208a01995050600181019050613eab565b50829750879550505050505092915050565b60006020820190508181036000830152613f0f8184613e80565b905092915050565b6000602082019050613f2c6000830184613ae8565b92915050565b60008060408385031215613f4957613f48613781565b5b6000613f57858286016137ac565b9250506020613f6885828601613a64565b9150509250929050565b600060c082019050613f8760008301896139e3565b8181036020830152613f998188613b3d565b9050613fa86040830187613ae8565b613fb560608301866139e3565b613fc260808301856139e3565b613fcf60a0830184613bdc565b979650505050505050565b600061014082019050613ff0600083018d6139e3565b8181036020830152614002818c613b3d565b9050614011604083018b613bdc565b61401e606083018a6139e3565b61402b60808301896139e3565b61403860a08301886139e3565b61404560c08301876139e3565b61405260e08301866139e3565b6140606101008301856139e3565b61406e610120830184613bdc565b9b9a5050505050505050505050565b600060e082019050614092600083018a6139e3565b81810360208301526140a48189613b3d565b90506140b36040830188613ae8565b6140c060608301876139e3565b6140cd60808301866139e3565b6140da60a0830185613bdc565b6140e760c0830184613bdc565b98975050505050505050565b60006020820190506141086000830184613bdc565b92915050565b600081519050919050565b600082825260208201905092915050565b6000819050602082019050919050565b61414381613a3b565b82525050565b600060a0830160008301516141616000860182613cf3565b506020830151614174602086018261413a565b506040830151848203604086015261418c8282613d13565b91505060608301516141a16060860182613cf3565b5060808301516141b46080860182613cf3565b508091505092915050565b60006141cb8383614149565b905092915050565b6000602082019050919050565b60006141eb8261410e565b6141f58185614119565b9350836020820285016142078561412a565b8060005b85811015614243578484038952815161422485826141bf565b945061422f836141d3565b925060208a0199505060018101905061420b565b50829750879550505050505092915050565b6000602082019050818103600083015261426f81846141e0565b905092915050565b7f766f746572206973206e6f742072656769737465726564210000000000000000600082015250565b60006142ad601883613b02565b91506142b882614277565b602082019050919050565b600060208201905081810360008301526142dc816142a0565b9050919050565b7f496e76616c696420656c656374696f6e20696400000000000000000000000000600082015250565b6000614319601383613b02565b9150614324826142e3565b602082019050919050565b600060208201905081810360008301526143488161430c565b9050919050565b7f696e76616c69642063616e646964617465206964000000000000000000000000600082015250565b6000614385601483613b02565b91506143908261434f565b602082019050919050565b600060208201905081810360008301526143b481614378565b9050919050565b7f796f7520616c726561647920766f74656420666f72207468697320656c65637460008201527f696f6e2129000000000000000000000000000000000000000000000000000000602082015250565b6000614417602583613b02565b9150614422826143bb565b604082019050919050565b600060208201905081810360008301526144468161440a565b9050919050565b7f656c656374696f6e206973206e6f742061637469766521000000000000000000600082015250565b6000614483601783613b02565b915061448e8261444d565b602082019050919050565b600060208201905081810360008301526144b281614476565b9050919050565b7f566f74696e67206973206e6f7420616374697665210000000000000000000000600082015250565b60006144ef601583613b02565b91506144fa826144b9565b602082019050919050565b6000602082019050818103600083015261451e816144e2565b9050919050565b7f496e76616c69642074696d6520666f7220766f74696e67000000000000000000600082015250565b600061455b601783613b02565b915061456682614525565b602082019050919050565b6000602082019050818103600083015261458a8161454e565b9050919050565b7f496e76616c69642043616e646964617465204964000000000000000000000000600082015250565b60006145c7601483613b02565b91506145d282614591565b602082019050919050565b600060208201905081810360008301526145f6816145ba565b9050919050565b7f4e487b7100000000000000000000000000000000000000000000000000000000600052601160045260246000fd5b60006146378261378b565b91507fffffffffffffffffffffffffffffffffffffffffffffffffffffffffffffffff8203614669576146686145fd565b5b600182019050919050565b7f766f7465722063617374656420766f7465000000000000000000000000000000600082015250565b60006146aa601183613b02565b91506146b582614674565b602082019050919050565b60006040820190506146d560008301846139e3565b81810360208301526146e68161469d565b905092915050565b7f496e76616c696400000000000000000000000000000000000000000000000000600082015250565b6000614724600783613b02565b915061472f826146ee565b602082019050919050565b6000602082019050818103600083015261475381614717565b9050919050565b7f766f74657220697320616c726561647920726567697374657265642100000000600082015250565b6000614790601c83613b02565b915061479b8261475a565b602082019050919050565b600060208201905081810360008301526147bf81614783565b9050919050565b7f526567697374726174696f6e207068617365206973206e6f742061637469766560008201527f2100000000000000000000000000000000000000000000000000000000000000602082015250565b6000614822602183613b02565b915061482d826147c6565b604082019050919050565b6000602082019050818103600083015261485181614815565b9050919050565b7f4e487b7100000000000000000000000000000000000000000000000000000000600052602260045260246000fd5b6000600282049050600182168061489f57607f821691505b6020821081036148b2576148b1614858565b5b50919050565b60008190508160005260206000209050919050565b60006020601f8301049050919050565b600082821b905092915050565b60006008830261491a7fffffffffffffffffffffffffffffffffffffffffffffffffffffffffffffffff826148dd565b61492486836148dd565b95508019841693508086168417925050509392505050565b6000819050919050565b600061496161495c6149578461378b565b61493c565b61378b565b9050919050565b6000819050919050565b61497b83614946565b61498f61498782614968565b8484546148ea565b825550505050565b600090565b6149a4614997565b6149af818484614972565b505050565b5b818110156149d3576149c860008261499c565b6001810190506149b5565b5050565b601f821115614a18576149e9816148b8565b6149f2846148cd565b81016020851015614a01578190505b614a15614a0d856148cd565b8301826149b4565b50505b505050565b600082821c905092915050565b6000614a3b60001984600802614a1d565b1980831691505092915050565b6000614a548383614a2a565b9150826002028217905092915050565b614a6d82613af7565b67ffffffffffffffff811115614a8657614a8561381c565b5b614a908254614887565b614a9b8282856149d7565b600060209050601f831160018114614ace5760008415614abc578287015190505b614ac68582614a48565b865550614b2e565b601f198416614adc866148b8565b60005b82811015614b0457848901518255600182019150602085019450602081019050614adf565b86831015614b215784890151614b1d601f891682614a2a565b8355505b6001600288020188555050505b505050505050565b7f4e657720766f7465722072656769737465726564000000000000000000000000600082015250565b6000614b6c601483613b02565b9150614b7782614b36565b602082019050919050565b6000604082019050614b9760008301846139e3565b8181036020830152614ba881614b5f565b905092915050565b7f6f6e6c792061646d696e00000000000000000000000000000000000000000000600082015250565b6000614be6600a83613b02565b9150614bf182614bb0565b602082019050919050565b60006020820190508181036000830152614c1581614bd9565b9050919050565b7f496e76616c696420456c656374696f6e20496400000000000000000000000000600082015250565b6000614c52601383613b02565b9150614c5d82614c1c565b602082019050919050565b60006020820190508181036000830152614c8181614c45565b9050919050565b7f656c656374696f6e206973206e6f7420636f6d706c6574656420796574000000600082015250565b6000614cbe601d83613b02565b9150614cc982614c88565b602082019050919050565b60006020820190508181036000830152614ced81614cb1565b9050919050565b7f656c656374696f6e20697320616c726561647920616374697665210000000000600082015250565b6000614d2a601b83613b02565b9150614d3582614cf4565b602082019050919050565b60006020820190508181036000830152614d5981614d1d565b9050919050565b7f54686520656c656374696f6e20697320636f6d706c6574656400000000000000600082015250565b6000614d96601983613b02565b9150614da182614d60565b602082019050919050565b60006040820190508181036000830152614dc581614d89565b9050614dd460208301846139e3565b92915050565b7f43616e64696461746520416c7265616479206164646564210000000000000000600082015250565b6000614e10601883613b02565b9150614e1b82614dda565b602082019050919050565b60006020820190508181036000830152614e3f81614e03565b9050919050565b7f526567697374726174696f6e207068617365206e6f7420616374697665210000600082015250565b6000614e7c601e83613b02565b9150614e8782614e46565b602082019050919050565b60006020820190508181036000830152614eab81614e6f565b9050919050565b7f43616e646964617465206164646564207375636365737366756c6c7900000000600082015250565b6000614ee8601c83613b02565b9150614ef382614eb2565b602082019050919050565b6000604082019050614f1360008301846139e3565b8181036020830152614f2481614edb565b905092915050565b7f656c656374696f6e20697320616c726561647920636f6d706c65746564210000600082015250565b6000614f62601e83613b02565b9150614f6d82614f2c565b602082019050919050565b60006020820190508181036000830152614f9181614f55565b9050919050565b7f656c656374696f6e20697320636f6d706c657465640000000000000000000000600082015250565b6000614fce601583613b02565b9150614fd982614f98565b602082019050919050565b60006020820190508181036000830152614ffd81614fc1565b9050919050565b7f496e76616c69642063616e646964617465206964210000000000000000000000600082015250565b600061503a601583613b02565b915061504582615004565b602082019050919050565b600060208201905081810360008301526150698161502d565b9050919050565b7f456c656374696f6e20697320616c726561647920646561637469766574656421600082015250565b60006150a6602083613b02565b91506150b182615070565b602082019050919050565b600060208201905081810360008301526150d581615099565b9050919050565b7f456c656374696f6e206973204465616374697665000000000000000000000000600082015250565b6000615112601483613b02565b915061511d826150dc565b602082019050919050565b6000602082019050818103600083015261514181615105565b9050919050565b7f4e487b7100000000000000000000000000000000000000000000000000000000600052603260045260246000fd5b7f656c656374696f6e206973206465616374697661746564210000000000000000600082015250565b60006151ad601883613b02565b91506151b882615177565b602082019050919050565b600060208201905081810360008301526151dc816151a0565b9050919050565b7f726567697374726174696f6e20697320616c726561647920616374697661746560008201527f6421000000000000000000000000000000000000000000000000000000000000602082015250565b600061523f602283613b02565b915061524a826151e3565b604082019050919050565b6000602082019050818103600083015261526e81615232565b9050919050565b7f566f74696e6720616c7265616479206465616374697661746564400000000000600082015250565b60006152ab601b83613b02565b91506152b682615275565b602082019050919050565b600060208201905081810360008301526152da8161529e565b9050919050565b7f4e6f7720766f74696e6720706861736520697320446561637469766174656400600082015250565b6000615317601f83613b02565b9150615322826152e1565b602082019050919050565b600060208201905081810360008301526153468161530a565b9050919050565b7f4e6f7720726567697374726174696f6e20706861736520697320416374697665600082015250565b6000615383602083613b02565b915061538e8261534d565b602082019050919050565b600060208201905081810360008301526153b281615376565b9050919050565b7f726567697374726174696f6e2069732061637469766521000000000000000000600082015250565b60006153ef601783613b02565b91506153fa826153b9565b602082019050919050565b6000602082019050818103600083015261541e816153e2565b9050919050565b7f566f74696e6720706861736520697320616c726561647920616374697665746560008201527f6421000000000000000000000000000000000000000000000000000000000000602082015250565b6000615481602283613b02565b915061548c82615425565b604082019050919050565b600060208201905081810360008301526154b081615474565b9050919050565b7f4d7573742068617665206d6f7265207468616e206f6e652063616e646964617460008201527f6521000000000000000000000000000000000000000000000000000000000000602082015250565b6000615513602283613b02565b915061551e826154b7565b604082019050919050565b6000602082019050818103600083015261554281615506565b9050919050565b7f4d7573742068617665206d6f7265207468616e206f6e6520766f746572210000600082015250565b600061557f601e83613b02565b915061558a82615549565b602082019050919050565b600060208201905081810360008301526155ae81615572565b9050919050565b7f4e6f7720766f74696e6720706861736520697320616374697661746564000000600082015250565b60006155eb601d83613b02565b91506155f6826155b5565b602082019050919050565b6000602082019050818103600083015261561a816155de565b9050919050565b7f496e76616c696420656c656374696f6e20496400000000000000000000000000600082015250565b6000615657601383613b02565b915061566282615621565b602082019050919050565b600060208201905081810360008301526156868161564a565b9050919050565b7f496e76616c696420656c656374696f6e20696421000000000000000000000000600082015250565b60006156c3601483613b02565b91506156ce8261568d565b602082019050919050565b600060208201905081810360008301526156f2816156b6565b9050919050565b7f726567697374726174696f6e20697320616c726561647920646561637469766160008201527f7465642100000000000000000000000000000000000000000000000000000000602082015250565b6000615755602483613b02565b9150615760826156f9565b604082019050919050565b6000602082019050818103600083015261578481615748565b9050919050565b7f4e6f7720726567697374726174696f6e2070686173652069732044656163746960008201527f7661746564000000000000000000000000000000000000000000000000000000602082015250565b60006157e7602583613b02565b91506157f28261578b565b604082019050919050565b60006020820190508181036000830152615816816157da565b9050919050565b7f456c656374696f6e206973204163746976650000000000000000000000000000600082015250565b6000615853601283613b02565b915061585e8261581d565b602082019050919050565b6000602082019050818103600083015261588281615846565b9050919050565b7f496e76616c696420656e642074696d6521000000000000000000000000000000600082015250565b60006158bf601183613b02565b91506158ca82615889565b602082019050919050565b600060208201905081810360008301526158ee816158b2565b9050919050565b7f53746172742074696d65206d757374206265206265666f726520656e6420746960008201527f6d65000000000000000000000000000000000000000000000000000000000000602082015250565b6000615951602283613b02565b915061595c826158f5565b604082019050919050565b6000602082019050818103600083015261598081615944565b9050919050565b600060608201905081810360008301526159a18186613b3d565b90506159b060208301856139e3565b6159bd60408301846139e3565b94935050505056fea26469706673582212202f52267ff255641080b77ffcffe3e81cd1c6ce134aebf7d1611c538e1e648d4264736f6c634300081c0033",
  "linkReferences": {},
  "deployedLinkReferences": {}
}