{
  "_format": "hh-sol-artifact-1",
  "contractName": "Voting",
  "sourceName": "contracts/Voting.sol",
  "abi": [
    {
      "inputs": [],
      "stateMutability": "nonpayable",
      "type": "constructor"
    },
    {
      "anonymous": false,
      "inputs": [
        {
          "indexed": true,
          "internalType": "uint256",
          "name": "electionId",
          "type": "uint256"
        },
        {
          "indexed": false,
          "internalType": "string",
          "name": "electionName",
          "type": "string"
        },
        {
          "indexed": false,
          "internalType": "uint256",
          "name": "startTime",
          "type": "uint256"
        },
        {
          "indexed": false,
          "internalType": "uint256",
          "name": "endTime",
          "type": "uint256"
        }
      ],
      "name": "electionCreated",
      "type": "event"
    },
    {
      "inputs": [
        {
          "internalType": "uint256",
          "name": "_electionId",
          "type": "uint256"
        }
      ],
      "name": "activeElection",
      "outputs": [
        {
          "internalType": "string",
          "name": "",
          "type": "string"
        }
      ],
      "stateMutability": "nonpayable",
      "type": "function"
    },
    {
      "inputs": [
        {
          "internalType": "uint256",
          "name": "_electionId",
          "type": "uint256"
        }
      ],
      "name": "activeRegistration",
      "outputs": [
        {
          "internalType": "string",
          "name": "",
          "type": "string"
        }
      ],
      "stateMutability": "nonpayable",
      "type": "function"
    },
    {
      "inputs": [
        {
          "internalType": "uint256",
          "name": "_electionId",
          "type": "uint256"
        }
      ],
      "name": "activeVoting",
      "outputs": [
        {
          "internalType": "string",
          "name": "",
          "type": "string"
        }
      ],
      "stateMutability": "nonpayable",
      "type": "function"
    },
    {
      "inputs": [
        {
          "internalType": "uint256",
          "name": "_electionId",
          "type": "uint256"
        },
        {
          "internalType": "string",
          "name": "_candidateName",
          "type": "string"
        },
        {
          "internalType": "address",
          "name": "_candidateAddress",
          "type": "address"
        }
      ],
      "name": "addCandidate",
      "outputs": [
        {
          "internalType": "uint256",
          "name": "",
          "type": "uint256"
        }
      ],
      "stateMutability": "nonpayable",
      "type": "function"
    },
    {
      "inputs": [
        {
          "internalType": "uint256",
          "name": "",
          "type": "uint256"
        },
        {
          "internalType": "uint256",
          "name": "",
          "type": "uint256"
        }
      ],
      "name": "candidates",
      "outputs": [
        {
          "internalType": "uint256",
          "name": "candidateId",
          "type": "uint256"
        },
        {
          "internalType": "address",
          "name": "candidateAddress",
          "type": "address"
        },
        {
          "internalType": "string",
          "name": "candidateName",
          "type": "string"
        },
        {
          "internalType": "uint256",
          "name": "electionId",
          "type": "uint256"
        },
        {
          "internalType": "uint256",
          "name": "voteCount",
          "type": "uint256"
        }
      ],
      "stateMutability": "view",
      "type": "function"
    },
    {
      "inputs": [
        {
          "internalType": "uint256",
          "name": "_electionId",
          "type": "uint256"
        },
        {
          "internalType": "uint256",
          "name": "_candidateId",
          "type": "uint256"
        }
      ],
      "name": "castVote",
      "outputs": [
        {
          "internalType": "uint256",
          "name": "voterId",
          "type": "uint256"
        }
      ],
      "stateMutability": "nonpayable",
      "type": "function"
    },
    {
      "inputs": [
        {
          "internalType": "uint256",
          "name": "_electionId",
          "type": "uint256"
        }
      ],
      "name": "completeElection",
      "outputs": [
        {
          "internalType": "string",
          "name": "",
          "type": "string"
        }
      ],
      "stateMutability": "nonpayable",
      "type": "function"
    },
    {
      "inputs": [
        {
          "internalType": "string",
          "name": "_electionName",
          "type": "string"
        },
        {
          "internalType": "uint256",
          "name": "_startTime",
          "type": "uint256"
        },
        {
          "internalType": "uint256",
          "name": "_endTime",
          "type": "uint256"
        }
      ],
      "name": "createElection",
      "outputs": [
        {
          "internalType": "uint256",
          "name": "",
          "type": "uint256"
        }
      ],
      "stateMutability": "nonpayable",
      "type": "function"
    },
    {
      "inputs": [
        {
          "internalType": "uint256",
          "name": "_electionId",
          "type": "uint256"
        }
      ],
      "name": "deactiveElection",
      "outputs": [
        {
          "internalType": "string",
          "name": "",
          "type": "string"
        }
      ],
      "stateMutability": "nonpayable",
      "type": "function"
    },
    {
      "inputs": [
        {
          "internalType": "uint256",
          "name": "_electionId",
          "type": "uint256"
        }
      ],
      "name": "deactiveRegistration",
      "outputs": [
        {
          "internalType": "string",
          "name": "",
          "type": "string"
        }
      ],
      "stateMutability": "nonpayable",
      "type": "function"
    },
    {
      "inputs": [
        {
          "internalType": "uint256",
          "name": "_electionId",
          "type": "uint256"
        }
      ],
      "name": "deactiveVoting",
      "outputs": [
        {
          "internalType": "string",
          "name": "",
          "type": "string"
        }
      ],
      "stateMutability": "nonpayable",
      "type": "function"
    },
    {
      "inputs": [
        {
          "internalType": "uint256",
          "name": "",
          "type": "uint256"
        }
      ],
      "name": "elections",
      "outputs": [
        {
          "internalType": "uint256",
          "name": "electionId",
          "type": "uint256"
        },
        {
          "internalType": "string",
          "name": "electionName",
          "type": "string"
        },
        {
          "internalType": "bool",
          "name": "isActive",
          "type": "bool"
        },
        {
          "internalType": "uint256",
          "name": "startTime",
          "type": "uint256"
        },
        {
          "internalType": "uint256",
          "name": "endTime",
          "type": "uint256"
        },
        {
          "internalType": "uint256",
          "name": "totalCandidates",
          "type": "uint256"
        },
        {
          "internalType": "uint256",
          "name": "totalVoters",
          "type": "uint256"
        },
        {
          "internalType": "uint256",
          "name": "totalVotes",
          "type": "uint256"
        },
        {
          "internalType": "uint256",
          "name": "winnerId",
          "type": "uint256"
        },
        {
          "internalType": "bool",
          "name": "registrationPhase",
          "type": "bool"
        },
        {
          "internalType": "bool",
          "name": "votingPhase",
          "type": "bool"
        },
        {
          "internalType": "bool",
          "name": "isCompleted",
          "type": "bool"
        }
      ],
      "stateMutability": "view",
      "type": "function"
    },
    {
      "inputs": [
        {
          "internalType": "uint256",
          "name": "_electionId",
          "type": "uint256"
        }
      ],
      "name": "getAllCandidates",
      "outputs": [
        {
          "components": [
            {
              "internalType": "uint256",
              "name": "candidateId",
              "type": "uint256"
            },
            {
              "internalType": "address",
              "name": "candidateAddress",
              "type": "address"
            },
            {
              "internalType": "string",
              "name": "candidateName",
              "type": "string"
            },
            {
              "internalType": "uint256",
              "name": "electionId",
              "type": "uint256"
            },
            {
              "internalType": "uint256",
              "name": "voteCount",
              "type": "uint256"
            }
          ],
          "internalType": "struct Voting.Candidate[]",
          "name": "",
          "type": "tuple[]"
        }
      ],
      "stateMutability": "view",
      "type": "function"
    },
    {
      "inputs": [],
      "name": "getAllElections",
      "outputs": [
        {
          "components": [
            {
              "internalType": "uint256",
              "name": "electionId",
              "type": "uint256"
            },
            {
              "internalType": "string",
              "name": "electionName",
              "type": "string"
            },
            {
              "internalType": "bool",
              "name": "isActive",
              "type": "bool"
            },
            {
              "internalType": "uint256",
              "name": "startTime",
              "type": "uint256"
            },
            {
              "internalType": "uint256",
              "name": "endTime",
              "type": "uint256"
            },
            {
              "internalType": "uint256",
              "name": "totalCandidates",
              "type": "uint256"
            },
            {
              "internalType": "uint256",
              "name": "totalVoters",
              "type": "uint256"
            },
            {
              "internalType": "uint256",
              "name": "totalVotes",
              "type": "uint256"
            },
            {
              "internalType": "uint256",
              "name": "winnerId",
              "type": "uint256"
            },
            {
              "internalType": "bool",
              "name": "registrationPhase",
              "type": "bool"
            },
            {
              "internalType": "bool",
              "name": "votingPhase",
              "type": "bool"
            },
            {
              "internalType": "bool",
              "name": "isCompleted",
              "type": "bool"
            }
          ],
          "internalType": "struct Voting.Election[]",
          "name": "",
          "type": "tuple[]"
        }
      ],
      "stateMutability": "view",
      "type": "function"
    },
    {
      "inputs": [],
      "name": "getBlockTimestamp",
      "outputs": [
        {
          "internalType": "uint256",
          "name": "",
          "type": "uint256"
        }
      ],
      "stateMutability": "view",
      "type": "function"
    },
    {
      "inputs": [
        {
          "internalType": "uint256",
          "name": "_electionId",
          "type": "uint256"
        },
        {
          "internalType": "uint256",
          "name": "_candidateId",
          "type": "uint256"
        }
      ],
      "name": "getCandidate",
      "outputs": [
        {
          "internalType": "uint256",
          "name": "candidateId",
          "type": "uint256"
        },
        {
          "internalType": "address",
          "name": "candidateAddress",
          "type": "address"
        },
        {
          "internalType": "string",
          "name": "candidateName",
          "type": "string"
        },
        {
          "internalType": "uint256",
          "name": "electionId",
          "type": "uint256"
        },
        {
          "internalType": "uint256",
          "name": "voteCount",
          "type": "uint256"
        }
      ],
      "stateMutability": "view",
      "type": "function"
    },
    {
      "inputs": [
        {
          "internalType": "uint256",
          "name": "_electionId",
          "type": "uint256"
        }
      ],
      "name": "getElection",
      "outputs": [
        {
          "internalType": "uint256",
          "name": "electionId",
          "type": "uint256"
        },
        {
          "internalType": "string",
          "name": "electionName",
          "type": "string"
        },
        {
          "internalType": "bool",
          "name": "isActive",
          "type": "bool"
        },
        {
          "internalType": "uint256",
          "name": "startTime",
          "type": "uint256"
        },
        {
          "internalType": "uint256",
          "name": "endTime",
          "type": "uint256"
        },
        {
          "internalType": "uint256",
          "name": "totalCandidates",
          "type": "uint256"
        },
        {
          "internalType": "uint256",
          "name": "totalVoters",
          "type": "uint256"
        },
        {
          "internalType": "uint256",
          "name": "totalVotes",
          "type": "uint256"
        },
        {
          "internalType": "uint256",
          "name": "winnerId",
          "type": "uint256"
        },
        {
          "internalType": "bool",
          "name": "isCompleted",
          "type": "bool"
        }
      ],
      "stateMutability": "view",
      "type": "function"
    },
    {
      "inputs": [],
      "name": "getOwner",
      "outputs": [
        {
          "internalType": "address",
          "name": "",
          "type": "address"
        }
      ],
      "stateMutability": "view",
      "type": "function"
    },
    {
      "inputs": [
        {
          "internalType": "uint256",
          "name": "_electionId",
          "type": "uint256"
        },
        {
          "internalType": "address",
          "name": "_voterAddress",
          "type": "address"
        }
      ],
      "name": "getVoter",
      "outputs": [
        {
          "internalType": "uint256",
          "name": "voterId",
          "type": "uint256"
        },
        {
          "internalType": "string",
          "name": "voterName",
          "type": "string"
        },
        {
          "internalType": "address",
          "name": "voterAddress",
          "type": "address"
        },
        {
          "internalType": "uint256",
          "name": "electionId",
          "type": "uint256"
        },
        {
          "internalType": "uint256",
          "name": "candidateId",
          "type": "uint256"
        },
        {
          "internalType": "bool",
          "name": "isVoted",
          "type": "bool"
        }
      ],
      "stateMutability": "view",
      "type": "function"
    },
    {
      "inputs": [
        {
          "internalType": "uint256",
          "name": "_electionId",
          "type": "uint256"
        }
      ],
      "name": "getWinner",
      "outputs": [
        {
          "internalType": "uint256",
          "name": "",
          "type": "uint256"
        },
        {
          "internalType": "uint256",
          "name": "",
          "type": "uint256"
        }
      ],
      "stateMutability": "nonpayable",
      "type": "function"
    },
    {
      "inputs": [
        {
          "internalType": "uint256",
          "name": "",
          "type": "uint256"
        },
        {
          "internalType": "address",
          "name": "",
          "type": "address"
        }
      ],
      "name": "isCandidateRegistered",
      "outputs": [
        {
          "internalType": "bool",
          "name": "",
          "type": "bool"
        }
      ],
      "stateMutability": "view",
      "type": "function"
    },
    {
      "inputs": [
        {
          "internalType": "string",
          "name": "_voterName",
          "type": "string"
        },
        {
          "internalType": "uint256",
          "name": "_electionId",
          "type": "uint256"
        },
        {
          "internalType": "uint256",
          "name": "_candidateId",
          "type": "uint256"
        }
      ],
      "name": "regVoter",
      "outputs": [
        {
          "internalType": "uint256",
          "name": "voterId",
          "type": "uint256"
        }
      ],
      "stateMutability": "nonpayable",
      "type": "function"
    },
    {
      "inputs": [
        {
          "internalType": "uint256",
          "name": "",
          "type": "uint256"
        },
        {
          "internalType": "address",
          "name": "",
          "type": "address"
        }
      ],
      "name": "voters",
      "outputs": [
        {
          "internalType": "uint256",
          "name": "voterId",
          "type": "uint256"
        },
        {
          "internalType": "string",
          "name": "voterName",
          "type": "string"
        },
        {
          "internalType": "address",
          "name": "voterAddress",
          "type": "address"
        },
        {
          "internalType": "uint256",
          "name": "electionId",
          "type": "uint256"
        },
        {
          "internalType": "uint256",
          "name": "candidateId",
          "type": "uint256"
        },
        {
          "internalType": "bool",
          "name": "isVoted",
          "type": "bool"
        },
        {
          "internalType": "bool",
          "name": "isRegistered",
          "type": "bool"
        }
      ],
      "stateMutability": "view",
      "type": "function"
    }
  ],
  "bytecode": "0x60a060405234801561001057600080fd5b503373ffffffffffffffffffffffffffffffffffffffff1660808173ffffffffffffffffffffffffffffffffffffffff16815250506080516152cb6100a660003960008181610ead015281816111300152818161153d0152818161195401528181611f5f015281816121c5015281816123b2015281816123f101528181612c4301528181612e46015261304b01526152cb6000f3fe608060405234801561001057600080fd5b506004361061014d5760003560e01c806381c430ef116100c35780639e3190631161007c5780639e3190631461046e578063e1fc52af146104a4578063e39b28ef146104d4578063e9dbf4a614610504578063f49a7a1714610534578063f9ded646146105645761014d565b806381c430ef146103525780638885a41314610382578063893d20e8146103b25780638e292d08146103d05780638f47b146146104005780639d710777146104355761014d565b80634bd46448116101155780634bd46448146102435780635cffe51a146102775780635e6fef01146102a7578063796b89b9146102e25780637de14242146103005780637fd5f268146103345761014d565b80632c0a3f891461015257806339ff79f4146101825780634129b2c9146101b257806341403d30146101e35780634840042c14610213575b600080fd5b61016c6004803603810190610167919061366f565b610594565b60405161017991906136be565b60405180910390f35b61019c6004803603810190610197919061381f565b610aa6565b6040516101a991906136be565b60405180910390f35b6101cc60048036038101906101c7919061388e565b610e91565b6040516101da9291906138bb565b60405180910390f35b6101fd60048036038101906101f89190613942565b611115565b60405161020a91906136be565b60405180910390f35b61022d6004803603810190610228919061388e565b611522565b60405161023a9190613a30565b60405180910390f35b61025d6004803603810190610258919061366f565b611728565b60405161026e959493929190613a61565b60405180910390f35b610291600480360381019061028c919061388e565b611939565b60405161029e9190613a30565b60405180910390f35b6102c160048036038101906102bc919061388e565b611b37565b6040516102d99c9b9a99989796959493929190613ad6565b60405180910390f35b6102ea611c53565b6040516102f791906136be565b60405180910390f35b61031a6004803603810190610315919061366f565b611c5b565b60405161032b959493929190613a61565b60405180910390f35b61033c611d46565b6040516103499190613dc5565b60405180910390f35b61036c6004803603810190610367919061388e565b611f44565b6040516103799190613a30565b60405180910390f35b61039c6004803603810190610397919061388e565b6121aa565b6040516103a99190613a30565b60405180910390f35b6103ba6123ae565b6040516103c79190613de7565b60405180910390f35b6103ea60048036038101906103e5919061388e565b6123d6565b6040516103f79190613a30565b60405180910390f35b61041a60048036038101906104159190613e02565b61263d565b60405161042c96959493929190613e42565b60405180910390f35b61044f600480360381019061044a919061388e565b6128d8565b6040516104659a99989796959493929190613eaa565b60405180910390f35b61048860048036038101906104839190613e02565b612ae8565b60405161049b9796959493929190613f4d565b60405180910390f35b6104be60048036038101906104b99190613e02565b612bf9565b6040516104cb9190613fc3565b60405180910390f35b6104ee60048036038101906104e9919061388e565b612c28565b6040516104fb9190613a30565b60405180910390f35b61051e6004803603810190610519919061388e565b612e2b565b60405161052b9190613a30565b60405180910390f35b61054e6004803603810190610549919061381f565b613030565b60405161055b91906136be565b60405180910390f35b61057e6004803603810190610579919061388e565b613349565b60405161058b9190614125565b60405180910390f35b60006003600084815260200190815260200160002060003373ffffffffffffffffffffffffffffffffffffffff1673ffffffffffffffffffffffffffffffffffffffff16815260200190815260200160002060050160019054906101000a900460ff16610636576040517f08c379a000000000000000000000000000000000000000000000000000000000815260040161062d90614193565b60405180910390fd5b60008060008581526020019081526020016000206005015490506004548410610694576040517f08c379a000000000000000000000000000000000000000000000000000000000815260040161068b906141ff565b60405180910390fd5b8083106106d6576040517f08c379a00000000000000000000000000000000000000000000000000000000081526004016106cd9061426b565b60405180910390fd5b6003600085815260200190815260200160002060003373ffffffffffffffffffffffffffffffffffffffff1673ffffffffffffffffffffffffffffffffffffffff16815260200190815260200160002060050160009054906101000a900460ff1615610777576040517f08c379a000000000000000000000000000000000000000000000000000000000815260040161076e906142fd565b60405180910390fd5b60008085815260200190815260200160002060020160009054906101000a900460ff166107d9576040517f08c379a00000000000000000000000000000000000000000000000000000000081526004016107d090614369565b60405180910390fd5b60008085815260200190815260200160002060090160019054906101000a900460ff1661083b576040517f08c379a0000000000000000000000000000000000000000000000000000000008152600401610832906143d5565b60405180910390fd5b4260008086815260200190815260200160002060030154111580156108755750426000808681526020019081526020016000206004015410155b6108b4576040517f08c379a00000000000000000000000000000000000000000000000000000000081526004016108ab90614441565b60405180910390fd5b83600160008681526020019081526020016000206000858152602001908152602001600020600301541461091d576040517f08c379a0000000000000000000000000000000000000000000000000000000008152600401610914906144ad565b60405180910390fd5b826003600086815260200190815260200160002060003373ffffffffffffffffffffffffffffffffffffffff1673ffffffffffffffffffffffffffffffffffffffff1681526020019081526020016000206004018190555060016003600086815260200190815260200160002060003373ffffffffffffffffffffffffffffffffffffffff1673ffffffffffffffffffffffffffffffffffffffff16815260200190815260200160002060050160006101000a81548160ff0219169083151502179055506000808581526020019081526020016000206007016000815480929190610a07906144fc565b91905055506001600085815260200190815260200160002060008481526020019081526020016000206004016000815480929190610a44906144fc565b91905055506003600085815260200190815260200160002060003373ffffffffffffffffffffffffffffffffffffffff1673ffffffffffffffffffffffffffffffffffffffff1681526020019081526020016000206000015491505092915050565b6000836000815111610aed576040517f08c379a0000000000000000000000000000000000000000000000000000000008152600401610ae490614590565b60405180910390fd5b60008060008681526020019081526020016000206005015490506003600086815260200190815260200160002060003373ffffffffffffffffffffffffffffffffffffffff1673ffffffffffffffffffffffffffffffffffffffff16815260200190815260200160002060050160019054906101000a900460ff1615610ba8576040517f08c379a0000000000000000000000000000000000000000000000000000000008152600401610b9f906145fc565b60405180910390fd5b60008060008781526020019081526020016000206006016000815480929190610bd0906144fc565b9190505590506004548610610c1a576040517f08c379a0000000000000000000000000000000000000000000000000000000008152600401610c11906141ff565b60405180910390fd5b818510610c5c576040517f08c379a0000000000000000000000000000000000000000000000000000000008152600401610c539061426b565b60405180910390fd5b600081905060008088815260200190815260200160002060020160009054906101000a900460ff16610cc3576040517f08c379a0000000000000000000000000000000000000000000000000000000008152600401610cba90614369565b60405180910390fd5b60008088815260200190815260200160002060090160009054906101000a900460ff16610d25576040517f08c379a0000000000000000000000000000000000000000000000000000000008152600401610d1c9061468e565b60405180910390fd5b6040518060e001604052808281526020018981526020013373ffffffffffffffffffffffffffffffffffffffff16815260200188815260200160008152602001600015158152602001600115158152506003600089815260200190815260200160002060003373ffffffffffffffffffffffffffffffffffffffff1673ffffffffffffffffffffffffffffffffffffffff168152602001908152602001600020600082015181600001556020820151816001019081610de491906148ba565b5060408201518160020160006101000a81548173ffffffffffffffffffffffffffffffffffffffff021916908373ffffffffffffffffffffffffffffffffffffffff160217905550606082015181600301556080820151816004015560a08201518160050160006101000a81548160ff02191690831515021790555060c08201518160050160016101000a81548160ff021916908315150217905550905050809450505050509392505050565b6000803373ffffffffffffffffffffffffffffffffffffffff167f000000000000000000000000000000000000000000000000000000000000000073ffffffffffffffffffffffffffffffffffffffff1614610f22576040517f08c379a0000000000000000000000000000000000000000000000000000000008152600401610f19906149d8565b60405180910390fd5b6004548310610f66576040517f08c379a0000000000000000000000000000000000000000000000000000000008152600401610f5d90614a44565b60405180910390fd5b60008084815260200190815260200160002060090160029054906101000a900460ff16610fc8576040517f08c379a0000000000000000000000000000000000000000000000000000000008152600401610fbf90614ab0565b60405180910390fd5b60008084815260200190815260200160002060020160009054906101000a900460ff161561102b576040517f08c379a000000000000000000000000000000000000000000000000000000000815260040161102290614b1c565b60405180910390fd5b600080600085815260200190815260200160002060050154905060008060005b838110156110ec578660016000898152602001908152602001600020600083815260200190815260200160002060030154036110df57600160008881526020019081526020016000206000828152602001908152602001600020600401548310156110de576001600088815260200190815260200160002060008281526020019081526020016000206004015492508091505b5b808060010191505061104b565b508060008088815260200190815260200160002060080181905550818194509450505050915091565b60003373ffffffffffffffffffffffffffffffffffffffff167f000000000000000000000000000000000000000000000000000000000000000073ffffffffffffffffffffffffffffffffffffffff16146111a5576040517f08c379a000000000000000000000000000000000000000000000000000000000815260040161119c906149d8565b60405180910390fd5b8260008151116111ea576040517f08c379a00000000000000000000000000000000000000000000000000000000081526004016111e190614590565b60405180910390fd5b82600073ffffffffffffffffffffffffffffffffffffffff168173ffffffffffffffffffffffffffffffffffffffff160361125a576040517f08c379a000000000000000000000000000000000000000000000000000000000815260040161125190614590565b60405180910390fd5b600454861061129e576040517f08c379a000000000000000000000000000000000000000000000000000000000815260040161129590614a44565b60405180910390fd5b6002600087815260200190815260200160002060008573ffffffffffffffffffffffffffffffffffffffff1673ffffffffffffffffffffffffffffffffffffffff16815260200190815260200160002060009054906101000a900460ff161561133c576040517f08c379a000000000000000000000000000000000000000000000000000000000815260040161133390614b88565b60405180910390fd5b60008087815260200190815260200160002060090160009054906101000a900460ff1661139e576040517f08c379a000000000000000000000000000000000000000000000000000000000815260040161139590614bf4565b60405180910390fd5b600080600088815260200190815260200160002060050160008154809291906113c6906144fc565b9190505590506040518060a001604052808281526020018673ffffffffffffffffffffffffffffffffffffffff16815260200187815260200188815260200160008152506001600089815260200190815260200160002060008381526020019081526020016000206000820151816000015560208201518160010160006101000a81548173ffffffffffffffffffffffffffffffffffffffff021916908373ffffffffffffffffffffffffffffffffffffffff160217905550604082015181600201908161149491906148ba565b50606082015181600301556080820151816004015590505060016002600089815260200190815260200160002060008773ffffffffffffffffffffffffffffffffffffffff1673ffffffffffffffffffffffffffffffffffffffff16815260200190815260200160002060006101000a81548160ff0219169083151502179055508093505050509392505050565b60603373ffffffffffffffffffffffffffffffffffffffff167f000000000000000000000000000000000000000000000000000000000000000073ffffffffffffffffffffffffffffffffffffffff16146115b2576040517f08c379a00000000000000000000000000000000000000000000000000000000081526004016115a9906149d8565b60405180910390fd5b6004548211156115f7576040517f08c379a00000000000000000000000000000000000000000000000000000000081526004016115ee90614a44565b60405180910390fd5b60008083815260200190815260200160002060020160009054906101000a900460ff161561165a576040517f08c379a000000000000000000000000000000000000000000000000000000000815260040161165190614b1c565b60405180910390fd5b60008083815260200190815260200160002060090160029054906101000a900460ff16156116bd576040517f08c379a00000000000000000000000000000000000000000000000000000000081526004016116b490614c60565b60405180910390fd5b600160008084815260200190815260200160002060090160026101000a81548160ff0219169083151502179055506040518060400160405280601581526020017f456c656374696f6e20697320436f6d706c6574656400000000000000000000008152509050919050565b60008060606000806000806000898152602001908152602001600020600501549050600454881061178e576040517f08c379a000000000000000000000000000000000000000000000000000000000815260040161178590614ccc565b60405180910390fd5b808711156117d1576040517f08c379a00000000000000000000000000000000000000000000000000000000081526004016117c890614ccc565b60405180910390fd5b6000600160008a815260200190815260200160002060008981526020019081526020016000206040518060a0016040529081600082015481526020016001820160009054906101000a900473ffffffffffffffffffffffffffffffffffffffff1673ffffffffffffffffffffffffffffffffffffffff1673ffffffffffffffffffffffffffffffffffffffff168152602001600282018054611872906146dd565b80601f016020809104026020016040519081016040528092919081815260200182805461189e906146dd565b80156118eb5780601f106118c0576101008083540402835291602001916118eb565b820191906000526020600020905b8154815290600101906020018083116118ce57829003601f168201915b50505050508152602001600382015481526020016004820154815250509050806000015181602001518260400151836060015184608001519650965096509650965050509295509295909350565b60603373ffffffffffffffffffffffffffffffffffffffff167f000000000000000000000000000000000000000000000000000000000000000073ffffffffffffffffffffffffffffffffffffffff16146119c9576040517f08c379a00000000000000000000000000000000000000000000000000000000081526004016119c0906149d8565b60405180910390fd5b600454821115611a0e576040517f08c379a0000000000000000000000000000000000000000000000000000000008152600401611a0590614a44565b60405180910390fd5b60008083815260200190815260200160002060020160009054906101000a900460ff16611a70576040517f08c379a0000000000000000000000000000000000000000000000000000000008152600401611a6790614d38565b60405180910390fd5b600080600084815260200190815260200160002060020160006101000a81548160ff021916908315150217905550600080600084815260200190815260200160002060090160006101000a81548160ff021916908315150217905550600080600084815260200190815260200160002060090160016101000a81548160ff0219169083151502179055506040518060400160405280601481526020017f456c656374696f6e2069732044656163746976650000000000000000000000008152509050919050565b6000602052806000526040600020600091509050806000015490806001018054611b60906146dd565b80601f0160208091040260200160405190810160405280929190818152602001828054611b8c906146dd565b8015611bd95780601f10611bae57610100808354040283529160200191611bd9565b820191906000526020600020905b815481529060010190602001808311611bbc57829003601f168201915b5050505050908060020160009054906101000a900460ff16908060030154908060040154908060050154908060060154908060070154908060080154908060090160009054906101000a900460ff16908060090160019054906101000a900460ff16908060090160029054906101000a900460ff1690508c565b600042905090565b6001602052816000526040600020602052806000526040600020600091509150508060000154908060010160009054906101000a900473ffffffffffffffffffffffffffffffffffffffff1690806002018054611cb7906146dd565b80601f0160208091040260200160405190810160405280929190818152602001828054611ce3906146dd565b8015611d305780601f10611d0557610100808354040283529160200191611d30565b820191906000526020600020905b815481529060010190602001808311611d1357829003601f168201915b5050505050908060030154908060040154905085565b6060600060045467ffffffffffffffff811115611d6657611d656136f4565b5b604051908082528060200260200182016040528015611d9f57816020015b611d8c613577565b815260200190600190039081611d845790505b50905060005b600454811015611f3c576000808281526020019081526020016000206040518061018001604052908160008201548152602001600182018054611de7906146dd565b80601f0160208091040260200160405190810160405280929190818152602001828054611e13906146dd565b8015611e605780601f10611e3557610100808354040283529160200191611e60565b820191906000526020600020905b815481529060010190602001808311611e4357829003601f168201915b505050505081526020016002820160009054906101000a900460ff161515151581526020016003820154815260200160048201548152602001600582015481526020016006820154815260200160078201548152602001600882015481526020016009820160009054906101000a900460ff161515151581526020016009820160019054906101000a900460ff161515151581526020016009820160029054906101000a900460ff161515151581525050828281518110611f2457611f23614d58565b5b60200260200101819052508080600101915050611da5565b508091505090565b60603373ffffffffffffffffffffffffffffffffffffffff167f000000000000000000000000000000000000000000000000000000000000000073ffffffffffffffffffffffffffffffffffffffff1614611fd4576040517f08c379a0000000000000000000000000000000000000000000000000000000008152600401611fcb906149d8565b60405180910390fd5b6004548210612018576040517f08c379a000000000000000000000000000000000000000000000000000000000815260040161200f90614a44565b60405180910390fd5b60008083815260200190815260200160002060020160009054906101000a900460ff1661207a576040517f08c379a000000000000000000000000000000000000000000000000000000000815260040161207190614dd3565b60405180910390fd5b60008083815260200190815260200160002060090160009054906101000a900460ff16156120dd576040517f08c379a00000000000000000000000000000000000000000000000000000000081526004016120d490614e65565b60405180910390fd5b60008083815260200190815260200160002060090160019054906101000a900460ff1661213f576040517f08c379a000000000000000000000000000000000000000000000000000000000815260040161213690614ed1565b60405180910390fd5b600080600084815260200190815260200160002060090160016101000a81548160ff0219169083151502179055506040518060400160405280601281526020017f456c656374696f6e2069732041637469766500000000000000000000000000008152509050919050565b60603373ffffffffffffffffffffffffffffffffffffffff167f000000000000000000000000000000000000000000000000000000000000000073ffffffffffffffffffffffffffffffffffffffff161461223a576040517f08c379a0000000000000000000000000000000000000000000000000000000008152600401612231906149d8565b60405180910390fd5b600454821061227e576040517f08c379a000000000000000000000000000000000000000000000000000000000815260040161227590614a44565b60405180910390fd5b60008083815260200190815260200160002060020160009054906101000a900460ff166122e0576040517f08c379a00000000000000000000000000000000000000000000000000000000081526004016122d790614dd3565b60405180910390fd5b60008083815260200190815260200160002060090160009054906101000a900460ff1615612343576040517f08c379a000000000000000000000000000000000000000000000000000000000815260040161233a90614e65565b60405180910390fd5b600160008084815260200190815260200160002060090160006101000a81548160ff0219169083151502179055506040518060400160405280602081526020017f4e6f7720726567697374726174696f6e207068617365206973204163746976658152509050919050565b60007f0000000000000000000000000000000000000000000000000000000000000000905090565b60603373ffffffffffffffffffffffffffffffffffffffff167f000000000000000000000000000000000000000000000000000000000000000073ffffffffffffffffffffffffffffffffffffffff1614612466576040517f08c379a000000000000000000000000000000000000000000000000000000000815260040161245d906149d8565b60405180910390fd5b60045482106124aa576040517f08c379a00000000000000000000000000000000000000000000000000000000081526004016124a190614a44565b60405180910390fd5b60008083815260200190815260200160002060020160009054906101000a900460ff1661250c576040517f08c379a000000000000000000000000000000000000000000000000000000000815260040161250390614dd3565b60405180910390fd5b60008083815260200190815260200160002060090160009054906101000a900460ff161561256f576040517f08c379a000000000000000000000000000000000000000000000000000000000815260040161256690614f3d565b60405180910390fd5b60008083815260200190815260200160002060090160019054906101000a900460ff16156125d2576040517f08c379a00000000000000000000000000000000000000000000000000000000081526004016125c990614fcf565b60405180910390fd5b600160008084815260200190815260200160002060090160016101000a81548160ff0219169083151502179055506040518060400160405280601281526020017f456c656374696f6e2069732041637469766500000000000000000000000000008152509050919050565b60006060600080600080876000811161268b576040517f08c379a000000000000000000000000000000000000000000000000000000000815260040161268290614590565b60405180910390fd5b60045489106126cf576040517f08c379a00000000000000000000000000000000000000000000000000000000081526004016126c69061503b565b60405180910390fd5b600073ffffffffffffffffffffffffffffffffffffffff168873ffffffffffffffffffffffffffffffffffffffff1603612707573397505b6000600360008b815260200190815260200160002060008a73ffffffffffffffffffffffffffffffffffffffff1673ffffffffffffffffffffffffffffffffffffffff1681526020019081526020016000206040518060e00160405290816000820154815260200160018201805461277e906146dd565b80601f01602080910402602001604051908101604052809291908181526020018280546127aa906146dd565b80156127f75780601f106127cc576101008083540402835291602001916127f7565b820191906000526020600020905b8154815290600101906020018083116127da57829003601f168201915b505050505081526020016002820160009054906101000a900473ffffffffffffffffffffffffffffffffffffffff1673ffffffffffffffffffffffffffffffffffffffff1673ffffffffffffffffffffffffffffffffffffffff16815260200160038201548152602001600482015481526020016005820160009054906101000a900460ff161515151581526020016005820160019054906101000a900460ff1615151515815250509050806000015181602001518260400151836060015184608001518560a0015197509750975097509750975050509295509295509295565b600060606000806000806000806000806004548b1061292c576040517f08c379a0000000000000000000000000000000000000000000000000000000008152600401612923906150a7565b60405180910390fd5b60008060008d81526020019081526020016000206040518061018001604052908160008201548152602001600182018054612966906146dd565b80601f0160208091040260200160405190810160405280929190818152602001828054612992906146dd565b80156129df5780601f106129b4576101008083540402835291602001916129df565b820191906000526020600020905b8154815290600101906020018083116129c257829003601f168201915b505050505081526020016002820160009054906101000a900460ff161515151581526020016003820154815260200160048201548152602001600582015481526020016006820154815260200160078201548152602001600882015481526020016009820160009054906101000a900460ff161515151581526020016009820160019054906101000a900460ff161515151581526020016009820160029054906101000a900460ff1615151515815250509050806000015181602001518260400151836060015184608001518560a001518660c001518760e001518861010001518961016001519a509a509a509a509a509a509a509a509a509a50509193959799509193959799565b600360205281600052604060002060205280600052604060002060009150915050806000015490806001018054612b1e906146dd565b80601f0160208091040260200160405190810160405280929190818152602001828054612b4a906146dd565b8015612b975780601f10612b6c57610100808354040283529160200191612b97565b820191906000526020600020905b815481529060010190602001808311612b7a57829003601f168201915b5050505050908060020160009054906101000a900473ffffffffffffffffffffffffffffffffffffffff16908060030154908060040154908060050160009054906101000a900460ff16908060050160019054906101000a900460ff16905087565b60026020528160005260406000206020528060005260406000206000915091509054906101000a900460ff1681565b60603373ffffffffffffffffffffffffffffffffffffffff167f000000000000000000000000000000000000000000000000000000000000000073ffffffffffffffffffffffffffffffffffffffff1614612cb8576040517f08c379a0000000000000000000000000000000000000000000000000000000008152600401612caf906149d8565b60405180910390fd5b6004548210612cfc576040517f08c379a0000000000000000000000000000000000000000000000000000000008152600401612cf390614a44565b60405180910390fd5b60008083815260200190815260200160002060020160009054906101000a900460ff16612d5e576040517f08c379a0000000000000000000000000000000000000000000000000000000008152600401612d5590614dd3565b60405180910390fd5b60008083815260200190815260200160002060090160009054906101000a900460ff16612dc0576040517f08c379a0000000000000000000000000000000000000000000000000000000008152600401612db790615139565b60405180910390fd5b600080600084815260200190815260200160002060090160006101000a81548160ff0219169083151502179055506040518060400160405280601281526020017f456c656374696f6e2069732041637469766500000000000000000000000000008152509050919050565b60603373ffffffffffffffffffffffffffffffffffffffff167f000000000000000000000000000000000000000000000000000000000000000073ffffffffffffffffffffffffffffffffffffffff1614612ebb576040517f08c379a0000000000000000000000000000000000000000000000000000000008152600401612eb2906149d8565b60405180910390fd5b6004548210612eff576040517f08c379a0000000000000000000000000000000000000000000000000000000008152600401612ef690614a44565b60405180910390fd5b60008083815260200190815260200160002060090160029054906101000a900460ff1615612f62576040517f08c379a0000000000000000000000000000000000000000000000000000000008152600401612f5990614c60565b60405180910390fd5b60008083815260200190815260200160002060020160009054906101000a900460ff1615612fc5576040517f08c379a0000000000000000000000000000000000000000000000000000000008152600401612fbc90614b1c565b60405180910390fd5b600160008084815260200190815260200160002060020160006101000a81548160ff0219169083151502179055506040518060400160405280601281526020017f456c656374696f6e2069732041637469766500000000000000000000000000008152509050919050565b60003373ffffffffffffffffffffffffffffffffffffffff167f000000000000000000000000000000000000000000000000000000000000000073ffffffffffffffffffffffffffffffffffffffff16146130c0576040517f08c379a00000000000000000000000000000000000000000000000000000000081526004016130b7906149d8565b60405180910390fd5b836000815111613105576040517f08c379a00000000000000000000000000000000000000000000000000000000081526004016130fc90614590565b60405180910390fd5b82421115613148576040517f08c379a000000000000000000000000000000000000000000000000000000000815260040161313f906151a5565b60405180910390fd5b8284111561318b576040517f08c379a000000000000000000000000000000000000000000000000000000000815260040161318290615237565b60405180910390fd5b60405180610180016040528060045481526020018681526020016000151581526020018581526020018481526020016000815260200160008152602001600081526020016000815260200160001515815260200160001515815260200160001515815250600080600454815260200190815260200160002060008201518160000155602082015181600101908161322291906148ba565b5060408201518160020160006101000a81548160ff021916908315150217905550606082015181600301556080820151816004015560a0820151816005015560c0820151816006015560e0820151816007015561010082015181600801556101208201518160090160006101000a81548160ff0219169083151502179055506101408201518160090160016101000a81548160ff0219169083151502179055506101608201518160090160026101000a81548160ff0219169083151502179055509050506004547f2e9b8dc915d5de229b12468c2f0ca7bfd1c46d1cea8e78d6debb1dcfa5a1459f86868660405161331c93929190615257565b60405180910390a260046000815480929190613337906144fc565b91905055506004549150509392505050565b6060600454821061338f576040517f08c379a0000000000000000000000000000000000000000000000000000000008152600401613386906150a7565b60405180910390fd5b600080600084815260200190815260200160002060050154905060008167ffffffffffffffff8111156133c5576133c46136f4565b5b6040519080825280602002602001820160405280156133fe57816020015b6133eb6135e0565b8152602001906001900390816133e35790505b50905060005b8281101561356c576001600086815260200190815260200160002060008281526020019081526020016000206040518060a0016040529081600082015481526020016001820160009054906101000a900473ffffffffffffffffffffffffffffffffffffffff1673ffffffffffffffffffffffffffffffffffffffff1673ffffffffffffffffffffffffffffffffffffffff1681526020016002820180546134ab906146dd565b80601f01602080910402602001604051908101604052809291908181526020018280546134d7906146dd565b80156135245780601f106134f957610100808354040283529160200191613524565b820191906000526020600020905b81548152906001019060200180831161350757829003601f168201915b505050505081526020016003820154815260200160048201548152505082828151811061355457613553614d58565b5b60200260200101819052508080600101915050613404565b508092505050919050565b60405180610180016040528060008152602001606081526020016000151581526020016000815260200160008152602001600081526020016000815260200160008152602001600081526020016000151581526020016000151581526020016000151581525090565b6040518060a0016040528060008152602001600073ffffffffffffffffffffffffffffffffffffffff1681526020016060815260200160008152602001600081525090565b6000604051905090565b600080fd5b600080fd5b6000819050919050565b61364c81613639565b811461365757600080fd5b50565b60008135905061366981613643565b92915050565b600080604083850312156136865761368561362f565b5b60006136948582860161365a565b92505060206136a58582860161365a565b9150509250929050565b6136b881613639565b82525050565b60006020820190506136d360008301846136af565b92915050565b600080fd5b600080fd5b6000601f19601f8301169050919050565b7f4e487b7100000000000000000000000000000000000000000000000000000000600052604160045260246000fd5b61372c826136e3565b810181811067ffffffffffffffff8211171561374b5761374a6136f4565b5b80604052505050565b600061375e613625565b905061376a8282613723565b919050565b600067ffffffffffffffff82111561378a576137896136f4565b5b613793826136e3565b9050602081019050919050565b82818337600083830152505050565b60006137c26137bd8461376f565b613754565b9050828152602081018484840111156137de576137dd6136de565b5b6137e98482856137a0565b509392505050565b600082601f830112613806576138056136d9565b5b81356138168482602086016137af565b91505092915050565b6000806000606084860312156138385761383761362f565b5b600084013567ffffffffffffffff81111561385657613855613634565b5b613862868287016137f1565b93505060206138738682870161365a565b92505060406138848682870161365a565b9150509250925092565b6000602082840312156138a4576138a361362f565b5b60006138b28482850161365a565b91505092915050565b60006040820190506138d060008301856136af565b6138dd60208301846136af565b9392505050565b600073ffffffffffffffffffffffffffffffffffffffff82169050919050565b600061390f826138e4565b9050919050565b61391f81613904565b811461392a57600080fd5b50565b60008135905061393c81613916565b92915050565b60008060006060848603121561395b5761395a61362f565b5b60006139698682870161365a565b935050602084013567ffffffffffffffff81111561398a57613989613634565b5b613996868287016137f1565b92505060406139a78682870161392d565b9150509250925092565b600081519050919050565b600082825260208201905092915050565b60005b838110156139eb5780820151818401526020810190506139d0565b60008484015250505050565b6000613a02826139b1565b613a0c81856139bc565b9350613a1c8185602086016139cd565b613a25816136e3565b840191505092915050565b60006020820190508181036000830152613a4a81846139f7565b905092915050565b613a5b81613904565b82525050565b600060a082019050613a7660008301886136af565b613a836020830187613a52565b8181036040830152613a9581866139f7565b9050613aa460608301856136af565b613ab160808301846136af565b9695505050505050565b60008115159050919050565b613ad081613abb565b82525050565b600061018082019050613aec600083018f6136af565b8181036020830152613afe818e6139f7565b9050613b0d604083018d613ac7565b613b1a606083018c6136af565b613b27608083018b6136af565b613b3460a083018a6136af565b613b4160c08301896136af565b613b4e60e08301886136af565b613b5c6101008301876136af565b613b6a610120830186613ac7565b613b78610140830185613ac7565b613b86610160830184613ac7565b9d9c50505050505050505050505050565b600081519050919050565b600082825260208201905092915050565b6000819050602082019050919050565b613bcc81613639565b82525050565b600082825260208201905092915050565b6000613bee826139b1565b613bf88185613bd2565b9350613c088185602086016139cd565b613c11816136e3565b840191505092915050565b613c2581613abb565b82525050565b600061018083016000830151613c446000860182613bc3565b5060208301518482036020860152613c5c8282613be3565b9150506040830151613c716040860182613c1c565b506060830151613c846060860182613bc3565b506080830151613c976080860182613bc3565b5060a0830151613caa60a0860182613bc3565b5060c0830151613cbd60c0860182613bc3565b5060e0830151613cd060e0860182613bc3565b50610100830151613ce5610100860182613bc3565b50610120830151613cfa610120860182613c1c565b50610140830151613d0f610140860182613c1c565b50610160830151613d24610160860182613c1c565b508091505092915050565b6000613d3b8383613c2b565b905092915050565b6000602082019050919050565b6000613d5b82613b97565b613d658185613ba2565b935083602082028501613d7785613bb3565b8060005b85811015613db35784840389528151613d948582613d2f565b9450613d9f83613d43565b925060208a01995050600181019050613d7b565b50829750879550505050505092915050565b60006020820190508181036000830152613ddf8184613d50565b905092915050565b6000602082019050613dfc6000830184613a52565b92915050565b60008060408385031215613e1957613e1861362f565b5b6000613e278582860161365a565b9250506020613e388582860161392d565b9150509250929050565b600060c082019050613e5760008301896136af565b8181036020830152613e6981886139f7565b9050613e786040830187613a52565b613e8560608301866136af565b613e9260808301856136af565b613e9f60a0830184613ac7565b979650505050505050565b600061014082019050613ec0600083018d6136af565b8181036020830152613ed2818c6139f7565b9050613ee1604083018b613ac7565b613eee606083018a6136af565b613efb60808301896136af565b613f0860a08301886136af565b613f1560c08301876136af565b613f2260e08301866136af565b613f306101008301856136af565b613f3e610120830184613ac7565b9b9a5050505050505050505050565b600060e082019050613f62600083018a6136af565b8181036020830152613f7481896139f7565b9050613f836040830188613a52565b613f9060608301876136af565b613f9d60808301866136af565b613faa60a0830185613ac7565b613fb760c0830184613ac7565b98975050505050505050565b6000602082019050613fd86000830184613ac7565b92915050565b600081519050919050565b600082825260208201905092915050565b6000819050602082019050919050565b61401381613904565b82525050565b600060a0830160008301516140316000860182613bc3565b506020830151614044602086018261400a565b506040830151848203604086015261405c8282613be3565b91505060608301516140716060860182613bc3565b5060808301516140846080860182613bc3565b508091505092915050565b600061409b8383614019565b905092915050565b6000602082019050919050565b60006140bb82613fde565b6140c58185613fe9565b9350836020820285016140d785613ffa565b8060005b8581101561411357848403895281516140f4858261408f565b94506140ff836140a3565b925060208a019950506001810190506140db565b50829750879550505050505092915050565b6000602082019050818103600083015261413f81846140b0565b905092915050565b7f766f746572206973206e6f742072656769737465726564210000000000000000600082015250565b600061417d6018836139bc565b915061418882614147565b602082019050919050565b600060208201905081810360008301526141ac81614170565b9050919050565b7f496e76616c696420656c656374696f6e20696400000000000000000000000000600082015250565b60006141e96013836139bc565b91506141f4826141b3565b602082019050919050565b60006020820190508181036000830152614218816141dc565b9050919050565b7f696e76616c69642063616e646964617465206964000000000000000000000000600082015250565b60006142556014836139bc565b91506142608261421f565b602082019050919050565b6000602082019050818103600083015261428481614248565b9050919050565b7f796f7520616c726561647920766f74656420666f72207468697320656c65637460008201527f696f6e2129000000000000000000000000000000000000000000000000000000602082015250565b60006142e76025836139bc565b91506142f28261428b565b604082019050919050565b60006020820190508181036000830152614316816142da565b9050919050565b7f656c656374696f6e206973206e6f742061637469766521000000000000000000600082015250565b60006143536017836139bc565b915061435e8261431d565b602082019050919050565b6000602082019050818103600083015261438281614346565b9050919050565b7f566f74696e67206973206e6f7420616374697665210000000000000000000000600082015250565b60006143bf6015836139bc565b91506143ca82614389565b602082019050919050565b600060208201905081810360008301526143ee816143b2565b9050919050565b7f496e76616c69642074696d6520666f7220766f74696e67000000000000000000600082015250565b600061442b6017836139bc565b9150614436826143f5565b602082019050919050565b6000602082019050818103600083015261445a8161441e565b9050919050565b7f496e76616c69642043616e646964617465204964000000000000000000000000600082015250565b60006144976014836139bc565b91506144a282614461565b602082019050919050565b600060208201905081810360008301526144c68161448a565b9050919050565b7f4e487b7100000000000000000000000000000000000000000000000000000000600052601160045260246000fd5b600061450782613639565b91507fffffffffffffffffffffffffffffffffffffffffffffffffffffffffffffffff8203614539576145386144cd565b5b600182019050919050565b7f496e76616c696400000000000000000000000000000000000000000000000000600082015250565b600061457a6007836139bc565b915061458582614544565b602082019050919050565b600060208201905081810360008301526145a98161456d565b9050919050565b7f766f74657220697320616c726561647920726567697374657265642100000000600082015250565b60006145e6601c836139bc565b91506145f1826145b0565b602082019050919050565b60006020820190508181036000830152614615816145d9565b9050919050565b7f526567697374726174696f6e207068617365206973206e6f742061637469766560008201527f2100000000000000000000000000000000000000000000000000000000000000602082015250565b60006146786021836139bc565b91506146838261461c565b604082019050919050565b600060208201905081810360008301526146a78161466b565b9050919050565b7f4e487b7100000000000000000000000000000000000000000000000000000000600052602260045260246000fd5b600060028204905060018216806146f557607f821691505b602082108103614708576147076146ae565b5b50919050565b60008190508160005260206000209050919050565b60006020601f8301049050919050565b600082821b905092915050565b6000600883026147707fffffffffffffffffffffffffffffffffffffffffffffffffffffffffffffffff82614733565b61477a8683614733565b95508019841693508086168417925050509392505050565b6000819050919050565b60006147b76147b26147ad84613639565b614792565b613639565b9050919050565b6000819050919050565b6147d18361479c565b6147e56147dd826147be565b848454614740565b825550505050565b600090565b6147fa6147ed565b6148058184846147c8565b505050565b5b818110156148295761481e6000826147f2565b60018101905061480b565b5050565b601f82111561486e5761483f8161470e565b61484884614723565b81016020851015614857578190505b61486b61486385614723565b83018261480a565b50505b505050565b600082821c905092915050565b600061489160001984600802614873565b1980831691505092915050565b60006148aa8383614880565b9150826002028217905092915050565b6148c3826139b1565b67ffffffffffffffff8111156148dc576148db6136f4565b5b6148e682546146dd565b6148f182828561482d565b600060209050601f8311600181146149245760008415614912578287015190505b61491c858261489e565b865550614984565b601f1984166149328661470e565b60005b8281101561495a57848901518255600182019150602085019450602081019050614935565b868310156149775784890151614973601f891682614880565b8355505b6001600288020188555050505b505050505050565b7f6f6e6c792061646d696e00000000000000000000000000000000000000000000600082015250565b60006149c2600a836139bc565b91506149cd8261498c565b602082019050919050565b600060208201905081810360008301526149f1816149b5565b9050919050565b7f496e76616c696420456c656374696f6e20496400000000000000000000000000600082015250565b6000614a2e6013836139bc565b9150614a39826149f8565b602082019050919050565b60006020820190508181036000830152614a5d81614a21565b9050919050565b7f656c656374696f6e206973206e6f7420636f6d706c6574656420796574000000600082015250565b6000614a9a601d836139bc565b9150614aa582614a64565b602082019050919050565b60006020820190508181036000830152614ac981614a8d565b9050919050565b7f656c656374696f6e20697320616c726561647920616374697665210000000000600082015250565b6000614b06601b836139bc565b9150614b1182614ad0565b602082019050919050565b60006020820190508181036000830152614b3581614af9565b9050919050565b7f43616e64696461746520416c7265616479206164646564210000000000000000600082015250565b6000614b726018836139bc565b9150614b7d82614b3c565b602082019050919050565b60006020820190508181036000830152614ba181614b65565b9050919050565b7f526567697374726174696f6e207068617365206e6f7420616374697665210000600082015250565b6000614bde601e836139bc565b9150614be982614ba8565b602082019050919050565b60006020820190508181036000830152614c0d81614bd1565b9050919050565b7f656c656374696f6e20697320616c726561647920636f6d706c65746564210000600082015250565b6000614c4a601e836139bc565b9150614c5582614c14565b602082019050919050565b60006020820190508181036000830152614c7981614c3d565b9050919050565b7f496e76616c69642063616e646964617465206964210000000000000000000000600082015250565b6000614cb66015836139bc565b9150614cc182614c80565b602082019050919050565b60006020820190508181036000830152614ce581614ca9565b9050919050565b7f456c656374696f6e20697320616c726561647920646561637469766574656421600082015250565b6000614d226020836139bc565b9150614d2d82614cec565b602082019050919050565b60006020820190508181036000830152614d5181614d15565b9050919050565b7f4e487b7100000000000000000000000000000000000000000000000000000000600052603260045260246000fd5b7f656c656374696f6e206973206465616374697661746564210000000000000000600082015250565b6000614dbd6018836139bc565b9150614dc882614d87565b602082019050919050565b60006020820190508181036000830152614dec81614db0565b9050919050565b7f726567697374726174696f6e20697320616c726561647920616374697661746560008201527f6421000000000000000000000000000000000000000000000000000000000000602082015250565b6000614e4f6022836139bc565b9150614e5a82614df3565b604082019050919050565b60006020820190508181036000830152614e7e81614e42565b9050919050565b7f566f74696e6720616c7265616479206465616374697661746564400000000000600082015250565b6000614ebb601b836139bc565b9150614ec682614e85565b602082019050919050565b60006020820190508181036000830152614eea81614eae565b9050919050565b7f726567697374726174696f6e2069732061637469766521000000000000000000600082015250565b6000614f276017836139bc565b9150614f3282614ef1565b602082019050919050565b60006020820190508181036000830152614f5681614f1a565b9050919050565b7f566f74696e6720706861736520697320616c726561647920616374697665746560008201527f6421000000000000000000000000000000000000000000000000000000000000602082015250565b6000614fb96022836139bc565b9150614fc482614f5d565b604082019050919050565b60006020820190508181036000830152614fe881614fac565b9050919050565b7f496e76616c696420656c656374696f6e20496400000000000000000000000000600082015250565b60006150256013836139bc565b915061503082614fef565b602082019050919050565b6000602082019050818103600083015261505481615018565b9050919050565b7f496e76616c696420656c656374696f6e20696421000000000000000000000000600082015250565b60006150916014836139bc565b915061509c8261505b565b602082019050919050565b600060208201905081810360008301526150c081615084565b9050919050565b7f726567697374726174696f6e20697320616c726561647920646561637469766160008201527f7465642100000000000000000000000000000000000000000000000000000000602082015250565b60006151236024836139bc565b915061512e826150c7565b604082019050919050565b6000602082019050818103600083015261515281615116565b9050919050565b7f496e76616c696420656e642074696d6521000000000000000000000000000000600082015250565b600061518f6011836139bc565b915061519a82615159565b602082019050919050565b600060208201905081810360008301526151be81615182565b9050919050565b7f53746172742074696d65206d757374206265206265666f726520656e6420746960008201527f6d65000000000000000000000000000000000000000000000000000000000000602082015250565b60006152216022836139bc565b915061522c826151c5565b604082019050919050565b6000602082019050818103600083015261525081615214565b9050919050565b6000606082019050818103600083015261527181866139f7565b905061528060208301856136af565b61528d60408301846136af565b94935050505056fea26469706673582212206e6f1eb7590eac457686ef4d15b134bf27a0bb28dd4a119798a877dadb6eb85464736f6c634300081c0033",
  "linkReferences": {},
  "deployedLinkReferences": {}
}